:100000000C9474000C949C000C949C000C94BA0109
:100010000C94F5020C944F030C949C000C949C00DF
:100020000C949C000C949C000C949C000C949C00E0
:100030000C949C000C949C000C949C000C949C00D0
:100040000C940B0B0C949C000C94690E0C949B0E5E
:100050000C949C000C949C000C949C000C949C00B0
:100060000C949C000C949C00E303260426042604B4
:1000700026042604F503050415042604260481033A
:100080009103A303B303C303D303000000080002DA
:10009000010000030407000000000000000001024E
:1000A0000408102040800102040810200102040806
:1000B00010200404040404040404020202020202E4
:1000C00003030303030300000000230026002900AC
:1000D00000000000250028002B0000000000240084
:1000E00027002A00CA0ACB0E11241FBECFEFD8E08A
:1000F000DEBFCDBF12E0A0E0B1E0E2E5F7E202C072
:1001000005900D92AC31B107D9F723E0ACE1B2E034
:1001100001C01D92A539B207E1F710E0C8EED0E0AA
:1001200004C02297FE010E948F13C43ED107C9F775
:100130000E940F0F0C94A7130C940000CF92DF9233
:10014000EF92FF92E82FF0E0DF01A25EBD4F8C91AD
:100150008230F9F078F4813009F052C0EE0FFF1FC1
:10016000E95CFD4F0190F081E02DFF90EF90DF9072
:10017000CF900994833021F1843009F041C08091FF
:100180001C0290911D02FF90EF90DF90CF900C9495
:100190008105C0902F02D0903002E0903102F090A3
:1001A00032020E94610B22E3C20ED11CE11CF11C41
:1001B000C616D706E806F90618F560E070E016C026
:1001C000C0903302D0903402E0903502F0903602B5
:1001D0000E94610B22E3C20ED11CE11CF11CC61669
:1001E000D706E806F90660F461E070E080914B0202
:1001F00090914C02FF90EF90DF90CF900C946204AE
:10020000FF90EF90DF90CF900895CF93C82F80910B
:10021000020181FF02C0C1FF46C08091020181FD41
:100220002CC0C1FF2AC080912502823051F40E9467
:10023000610B60932F027093300280933102909390
:10024000320280912502833051F40E94610B609349
:10025000330270933402809335029093360280917A
:100260002502813051F40E94550B60932B0270934C
:100270002C0280932D0290932E028091020182FF26
:1002800016C0C2FD14C088E00E949E008091020149
:1002900083FF3EC0C3FD3CC089E00E949E00C09326
:1002A0000201CF91089587E00E949E00E6CF8091E1
:1002B000020182FDEBCFC2FFE9CF8091260282309E
:1002C00051F40E94610B60932F027093300280936F
:1002D00031029093320280912602833051F40E94C1
:1002E000610B6093330270933402809335029093D4
:1002F000360280912602813049F60E94550B6093A8
:100300002B0270932C0280932D0290932E02BECF6D
:100310008091020182FDC3CFC2FFC1CF809127022D
:10032000823051F40E94610B60932F02709330026F
:10033000809331029093320280912702833051F4EE
:100340000E94610B609333027093340280933502F4
:100350009093360280912702813009F0A0CF0E944D
:10036000550B60932B0270932C0280932D02909377
:100370002E0295CF1F920F920FB60F9211242F933A
:100380003F934F935F936F937F938F939F93AF931D
:10039000BF93EF93FF9393B180912A0289230E9428
:1003A0000501FF91EF91BF91AF919F918F917F9147
:1003B0006F915F914F913F912F910F900FBE0F90D2
:1003C0001F901895CF93C82F8091010180FF02C024
:1003D000C0FF53C08091010180FD1EC0C0FF1CC042
:1003E00080911E02823051F40E94550B60932F02BF
:1003F00070933002809331029093320280911E02FA
:10040000833051F40E94550B609333027093340291
:1004100080933502909336028091010181FF31C0B3
:10042000C1FD2FC081E00E949E008091010182FFEA
:100430004CC0C2FD4AC082E00E949E008091010132
:1004400083FF67C0C3FD65C083E00E949E0080916A
:10045000010184FF82C0C4FD80C084E00E949E0030
:100460008091010185FF9DC0C5FD9BC085E00E9474
:100470009E00C0930101CF91089580E00E949E00EC
:10048000CBCF8091010181FDD0CFC1FFCECF809134
:100490001F02823051F40E94550B60932F0270931B
:1004A0003002809331029093320280911F02833098
:1004B00009F0BBCF0E94550B609333027093340256
:1004C0008093350290933602B0CF8091010182FD76
:1004D000B5CFC2FFB3CF80912002823051F40E9489
:1004E000550B60932F0270933002809331029093EA
:1004F000320280912002833009F0A0CF0E94550B78
:1005000060933302709334028093350290933602E5
:1005100095CF8091010183FD9ACFC3FF98CF809141
:100520002102823051F40E94550B60932F02709388
:100530003002809331029093320280912102833005
:1005400009F085CF0E94550B6093330270933402FB
:1005500080933502909336027ACF8091010184FD19
:100560007FCFC4FF7DCF80912202823051F40E9460
:10057000550B60932F027093300280933102909359
:10058000320280912202833009F06ACF0E94550B1B
:100590006093330270933402809335029093360255
:1005A0005FCF8091010185FD64CFC5FF62CF80914F
:1005B0002302823051F40E94550B60932F027093F6
:1005C0003002809331029093320280912302833073
:1005D00009F04FCF0E94550B6093330270933402A1
:1005E000809335029093360244CF1F920F920FB63C
:1005F0000F9211242F933F934F935F936F937F93A9
:100600008F939F93AF93BF93EF93FF9396B1809196
:10061000290289230E94E201FF91EF91BF91AF91DE
:100620009F918F917F916F915F914F913F912F910A
:100630000F900FBE0F901F901895CF93C82F8091E9
:10064000000183FF02C0C3FF26C08091000183FD2B
:100650001EC0C3FF1CC080912402823051F40E944E
:10066000550B60932F027093300280933102909368
:10067000320280912402833051F40E94550B609322
:100680003302709334028093350290933602C09304
:100690000001CF91089586E00E949E00F8CF1F923E
:1006A0000F920FB60F9211242F933F934F935F93A6
:1006B0006F937F938F939F93AF93BF93EF93FF932A
:1006C00099B18091280289230E941D03FF91EF9127
:1006D000BF91AF919F918F917F916F915F914F915A
:1006E0003F912F910F900FBE0F901F901895039779
:1006F0008131910508F0AAC08C5C9F4FFC010C94DD
:100700008D1380916C00816080936C0080916800F3
:1007100082608093680060931E028091290281604C
:100720000FC080916C00826080936C0080916800A3
:1007300082608093680060931F028091290282602A
:1007400080932902089580916C00846080936C00EE
:10075000809168008260809368006093200280919D
:1007600029028460EDCF80916C00886080936C00DA
:10077000809168008260809368006093210280917C
:1007800029028860DDCF80916C00806180936C00CD
:10079000809168008260809368006093220280915B
:1007A00029028061CDCF80916C00806280936C00C3
:1007B000809168008260809368006093230280913A
:1007C00029028062BDCF80916D00886080936D00AA
:1007D0008091680084608093680060932402809117
:1007E0002802886080932802089580916B008260BF
:1007F00080936B00809168008160809368006093B3
:10080000250280912A0282601FC080916B00846063
:1008100080936B0080916800816080936800609392
:10082000260280912A0284600FC080916B0088604C
:1008300080936B0080916800816080936800609372
:10084000270280912A02886080932A020895EF92FD
:10085000FF920F931F93CF93DF9300D0CDB7DEB7F6
:100860007C01062F142F62E0802F5A8379830E9427
:100870008C0C62E0812F0E948C0C62E0802F7981C9
:10088000972F0E94770363E0812F5A81952F0E9452
:100890007703F7011082118212821382148215826B
:1008A00016821782F0924C02E0924B0281E0808720
:1008B00081870F900F90DF91CF911F910F91FF9043
:1008C000EF9008950F931F93FC0161157105B1F02E
:1008D0006130710529F50185112707FD1095212F3C
:1008E000312F4481558166817781400F511F621FEE
:1008F000731F448355836683778312C00085112755
:1009000007FD1095212F312F408151816281738124
:10091000400F511F621F731F408351836283738393
:100920001F910F910895FC016130710571F06230E3
:10093000710539F0672B69F41082118212821382DB
:1009400008951082118212821382148215821682F7
:10095000178208956115710549F06130710561F4E0
:10096000FC0164817581868197810895FC01608115
:10097000718182819381089560E070E0CB010895D8
:1009800061E087E00E948C0C61E088E00E948C0CA2
:1009900061E082E00E948C0C61E084E00C948C0C9D
:1009A00061E082E00E94C50C61E084E00E94C50C19
:1009B00060E070E085E00C94040C61E087E00E9448
:1009C000C50C61E088E00E94C50C60E070E086E044
:1009D0000C94040CCF93DF93EC010E94D004CE0161
:1009E000DF91CF910C94DD04CF93C62F61E082E0BC
:1009F0000E94C50C60E084E00E94C50C6C2F70E082
:100A000085E00E94040CE0914B02F0914C0230977B
:100A100011F081E08087CF910895CF93C62F60E0D9
:100A200082E00E94C50C61E084E00E94C50C6C2F3E
:100A300070E085E00E94040CE0914B02F0914C02C2
:100A4000309711F08FEF8087CF9108951616170613
:100A500014F40C940D057195619571090C94F404CE
:100A6000CF93C62F61E087E00E94C50C60E088E06C
:100A70000E94C50C6C2F70E086E00E94040CE0918F
:100A80004B02F0914C02309711F081E08187CF91B9
:100A90000895CF93C62F60E087E00E94C50C61E007
:100AA00088E00E94C50C6C2F70E086E00E94040C68
:100AB000E0914B02F0914C02309711F08FEF81875B
:100AC000CF9108951616170614F40C9430057195FD
:100AD000619571090C944905FC01718360838FEF66
:100AE0009FEF93838283958384830895FC018081A3
:100AF0000C94E70B20E001972FEF8F3F9207D9F777
:100B00000895EF92FF920F931F93CF93DF93EC0121
:100B10008B899C890E947A0508E010E0EE24E3941A
:100B2000F12C8D899E890E947A05EE85FF85808152
:100B30009D85892311F0FE2803C08E2D8095F82213
:100B4000EE0C0150110969F78F89988D0E947A0582
:100B500080914E0220914D0290E001968F7399276B
:100B600030E08217930779F0E0914E02F0E0E15B0C
:100B7000FD4FF08280914E0290E001968F7399278D
:100B800080934E0203C08B8D81608B8FDF91CF915C
:100B90001F910F91FF90EF90089562E08091050101
:100BA0000E948C0C61E0809103010E948C0C60E03B
:100BB0008DE00E94C50C26E040E855E260E070E060
:100BC00088EF92E00E94070E60ED77E080E090E011
:100BD0000E94840B6EE071E088EF92E00E94690F42
:100BE00064EF71E080E090E00C94840B0F931F930E
:100BF000CF93DF93C5E0D0E087ED92E00E947605C9
:100C0000080F191F2197C1F7C80165E070E00E9425
:100C10005713CB017093B7026093B602DF91CF9167
:100C20001F910F9108950F931F93CF93DF93C5E00A
:100C3000D0E081ED92E00E947605080F191F219700
:100C4000C1F7C80165E070E00E945713CB017093B3
:100C5000B5026093B402DF91CF911F910F91089577
:100C60000F931F93CF93DF93C5E0D0E083EE92E024
:100C70000E947605080F191F2197C1F7C80165E08A
:100C800070E00E945713CB017093B9026093B802D1
:100C9000DF91CF911F910F9108950F931F93CF93E1
:100CA000DF93C5E0D0E08DED92E00E947605080F5D
:100CB000191F2197C1F7C80165E070E00E94571322
:100CC000CB017093BB026093BA02DF91CF911F9169
:100CD0000F9108950F931F93CF93DF93C5E0D0E05A
:100CE00089EE92E00E947605080F191F2197C1F73F
:100CF000C80165E070E00E945713CB017093BD02FC
:100D00006093BC02DF91CF911F910F9108956F9274
:100D10007F928F929F92AF92BF92CF92DF92EF928B
:100D2000FF920F931F93CF93DF936B017C01EA0136
:100D3000890163E271E088EF92E00E945C0F22E09B
:100D400030E0B701A60188EF92E00E94231164E32E
:100D500071E088EF92E00E945C0F4AE050E0BE0133
:100D600088EF92E00E94301060E471E088EF92E03A
:100D70000E94690F4AE050E0B80188EF92E00E94BB
:100D800030106DE471E088EF92E00E94690F2091CD
:100D9000BE023091BF024091C0025091C102C70112
:100DA000B6010E94A1116B017C0123E030E0AB0190
:100DB000BC0188EF92E00E94251162E070E087ECB0
:100DC00092E00E949304BE0186EC92E00E94260508
:100DD000B80186EC92E00E946205612C712CD0E093
:100DE000C0E0B3018D2F9C2F97FF07C09095809591
:100DF000709561957F4F8F4F9F4F0E943C124B0122
:100E00005C0160910B0170910C01882777FD809542
:100E1000982F0E943C129B01AC01C701B6010E94B1
:100E2000F0129B01AC01C501B4010E949D1187FF26
:100E300047C060E070E087EC92E00E94AA043B01AA
:100E4000D82FC92F61E070E087EC92E00E94AA04DD
:100E50004B015C012AE030E0A3016D2F7C2F88EF6D
:100E600092E00E94E60F6BE571E088EF92E00E944D
:100E70005C0F2AE030E0B501A40188EF92E00E9407
:100E8000E60F6BE571E088EF92E00E945C0F6091E5
:100E90000B0170910C01882777FD8095982F0E9497
:100EA0003C129B01AC01C701B6010E94F012AB01DC
:100EB000BC0122E030E088EF92E00E94251191CF42
:100EC00086EC92E0DF91CF911F910F91FF90EF9010
:100ED000DF90CF90BF90AF909F908F907F906F905A
:100EE0000C94EA046DE571E088EF92E00E94690FCE
:100EF0002AE530E046EA5FEF60E070E080E89FE3DB
:100F00000E94870668EC70E080E090E00E94840B0D
:100F10000E946A06833593400CF449C00E94300653
:100F2000833593400CF443C00E944D0683359340B3
:100F3000F4F10E94F60583359340CCF10E9413062C
:100F400083359340A4F186EC92E00E94EA0410926B
:100F5000C5021092C4021092C3021092C202809184
:100F6000920290919302FC01EC56FD4F23E5208301
:100F7000019690939302809392026091C4027091C3
:100F8000C50286EC92E00E9426056091C202709133
:100F9000C30286EC92E00E9462056EEE72E080E091
:100FA00090E00E94840B86EC92E00C94EA040E948C
:100FB000F605823593400CF786EA9FEF9093C502C1
:100FC0008093C4029093C3028093C20280919202E4
:100FD00090919302FC01EC56FD4F22E5C8CF6DE5E0
:100FE00071E088EF92E00E94690F86EC92E00E9427
:100FF000EA042AE530E046EA5FEF60E070E080E86E
:101000009FE30E9487060E94300683359340ECF5EB
:101010000E944D0683359340C4F5809192029091D1
:101020009302FC01EC56FD4F2CE420830196909333
:101030009302809392028AE590E09093C502809398
:10104000C4029093C3028093C20282E593E090931E
:10105000B3028093B2026091C4027091C50286EC23
:1010600092E00E9426056091C2027091C30286EC54
:1010700092E00E9462056091B2027091B3028827EB
:1010800077FD8095982F0C94840B86EA9FEF9093C0
:10109000C5028093C4028AE590E09093C3028093D6
:1010A000C20284E690E09093B3028093B2028091F2
:1010B000920290919302FC01EC56FD4F23E52083B0
:1010C00001969093930280939202C5CF2091920251
:1010D00030919302C9010397FC01EC56FD4F40810A
:1010E000423561F4D901AD56BD4F2C912C3431F409
:1010F000909393028093920285E5808320919202DF
:1011000030919302C9010397FC01EC56FD4F4081D9
:10111000423551F4D901AD56BD4F2C91233521F400
:1011200090939302809392022091920230919302C5
:10113000C9010397FC01EC56FD4F4081423561F433
:10114000D901AD56BD4F2C91223531F490939302C5
:101150008093920283E580832091920230919302E2
:10116000C9010397FC01EC56FD4F4081433559F40A
:10117000D901AD56BD4F2C91223529F4909393029D
:101180008093920220832091920230919302C901B0
:101190000397FC01EC56FD4F4081433561F4D901C2
:1011A000AD56BD4F2C91233531F49093930280932B
:1011B000920285E580832091920230919302C901C9
:1011C0000397FC01EC56FD4F40814C3461F4D9018A
:1011D000AD56BD4F2C91223531F4909393028093FC
:1011E000920285E580830895CF93DF9362E771E0F3
:1011F00088EF92E00E94690F809192029091930291
:101200008C179D0754F0FE01EC56FD4F608188EF6E
:1012100092E00E947B0F2196EFCF62E771E088EFAA
:1012200092E0DF91CF910C94690F67EB71E088EF4A
:1012300092E00C94690F81ED92E00E9476054AE0FD
:1012400050E0BC0188EF92E00E9430106BE571E045
:1012500088EF92E00E945C0F89EE92E00E94760592
:101260004AE050E0BC0188EF92E00E9430106BE54C
:1012700071E088EF92E00E945C0F83EE92E00E94A2
:1012800076054AE050E0BC0188EF92E00E94301001
:101290006BE571E088EF92E00E945C0F8DED92E0CB
:1012A0000E9476054AE050E0BC0188EF92E00E947F
:1012B00030106BE571E088EF92E00E945C0F87EDE3
:1012C00092E00E9476054AE050E0BC0188EF92E08F
:1012D0000E94301088EF92E00E94650F0E94300655
:1012E000833593409CF01092900210928F0262EC32
:1012F00071E088EF92E00E94690F86EA9FEF909379
:10130000C5028093C4028AE590E02FC00E944D067A
:10131000833593409CF01092900210928F0262E904
:1013200071E088EF92E00E94690F8EE79FEF909343
:10133000C5028093C40282E390E017C00E946A064F
:1013400083359340B4F01092900210928F0265EAB8
:1013500071E088EF92E00E94690F8EEC9FEF90930E
:10136000C5028093C40282E890E09093C302809308
:10137000C2020E94F605833593405CF00E944D0640
:101380008335934034F00E941306823593400CF469
:101390005CC00E941306833593400CF483C00E9406
:1013A0006A06833593400CF47DC00E943006833575
:1013B00093400CF477C00E94F605823593400CF000
:1013C00071C01092900210928F0269ED71E088EF67
:1013D00092E00E94690F0E94EF0780918F02909126
:1013E0009002029789F41092C5021092C4021092E2
:1013F000C3021092C20281E08093910261E08DE00D
:101400000E94C50C0E94F40880919102882341F04B
:10141000809105010E94FB0C892B11F40E94150993
:101420006091C4027091C50286EC92E00E9426058C
:101430006091C2027091C30286EC92E00E94620544
:1014400060E070E0CB010C94840B1092900210923B
:101450008F028091920290919302FC01EC56FD4F15
:1014600022E5208301969093930280939202319714
:101470008081853511F40E9466086EEC71E088EF7A
:1014800092E00E94690F86EA9FEF9093C5028093D5
:10149000C4029093C3028093C20263E770E080E0CD
:1014A00090E075C00E946A068335934034F10E9433
:1014B0003006833593400CF10E944D0683359340EE
:1014C000E4F00E94F60583359340BCF00E941306B9
:1014D0008335934094F067EE71E088EF92E00E94CC
:1014E000690F0E94720780918F029091900201967D
:1014F0009093900280938F0270CF0E946A0682358B
:1015000093400CF06ACF0E943006823593400CF075
:1015100064CF0E944D06823593400CF05ECF0E944E
:10152000F605823593400CF058CF0E9413068235A1
:1015300093400CF052CF8091920290919302FC0163
:10154000EC56FD4F25E520830196909393028093FE
:1015500092021092900210928F0266EF71E088EF73
:1015600092E00E94690F86EC92E00E94EA0464E631
:1015700070E086EC92E00E94260564E670E086EC5E
:1015800092E00E94620562E573E080E090E00E94D4
:10159000840B23CF61E170E089EE92E00E946C053C
:1015A00064E170E083EE92E00E946C0565E170E01A
:1015B0008DED92E00E946C056FE070E087ED92E0A7
:1015C0000E946C056EE070E081ED92E00E946C0577
:1015D0004AE050E060E170E087EC92E00E9427046E
:1015E00086EC92E00E94C0042BED3FE049E450E419
:1015F00060910701709108018091090190910A01A1
:101600000E94F0126093BE027093BF028093C002EA
:101610009093C10208951F920F920FB60F9211245A
:101620002F933F938F939F93AF93BF938091F0023B
:101630009091F102A091F202B091F3023091EF0289
:1016400023E0230F2D3720F40196A11DB11D05C005
:1016500026E8230F0296A11DB11D2093EF0280936F
:10166000F0029093F102A093F202B093F302809102
:10167000F4029091F502A091F602B091F702019662
:10168000A11DB11D8093F4029093F502A093F60280
:10169000B093F702BF91AF919F918F913F912F919E
:1016A0000F900FBE0F901F9018952FB7F894609170
:1016B000F0027091F1028091F2029091F3022FBF3B
:1016C00008953FB7F8948091F4029091F502A091AB
:1016D000F602B091F70226B5A89B05C02F3F19F07E
:1016E0000196A11DB11D3FBF6627782F892F9A2F24
:1016F000620F711D811D911D42E0660F771F881FCB
:10170000991F4A95D1F70895CF92DF92EF92FF92F9
:10171000CF93DF936B017C010E94610BEB01C1143D
:10172000D104E104F10489F00E9437110E94610B99
:101730006C1B7D0B683E734090F381E0C81AD108A2
:10174000E108F108C851DC4FEACFDF91CF91FF905B
:10175000EF90DF90CF900895789484B5826084BD37
:1017600084B5816084BD85B5826085BD85B58160A5
:1017700085BDEEE6F0E0808181608083E1E8F0E005
:101780001082808182608083808181608083E0E834
:10179000F0E0808181608083E1EBF0E08081846013
:1017A0008083E0EBF0E0808181608083EAE7F0E015
:1017B0008081846080838081826080838081816079
:1017C00080838081806880831092C10008958E306C
:1017D00008F08E50877020910D0190E4299F9001B0
:1017E0001124822B80937C0080917A008064809306
:1017F0007A0080917A0086FDFCCF8091780020915C
:10180000790090E0922B08951F93CF93DF93182FC8
:10181000EB0161E00E948C0C209711F460E004C0A1
:10182000CF3FD10539F461E0812FDF91CF911F9136
:101830000C94C50CE12FF0E0E657FF4FE491E33044
:10184000F9F048F4E130B9F0E230A1F584B58062F6
:1018500084BDC8BD34C0E730E9F0E83019F1E430A8
:1018600049F580918000806280938000D0938B0046
:10187000C0938A0024C084B5806884BDC7BD1FC0E2
:1018800080918000806880938000D0938900C0930D
:10189000880015C08091B00080688093B000C0932C
:1018A000B3000DC08091B00080628093B000C093FF
:1018B000B40005C0C038D1050CF0B5CFAFCFDF9173
:1018C000CF911F910895833081F028F4813099F0F1
:1018D0008230A1F008958730A9F08830B9F08430C3
:1018E000D1F4809180008F7D03C0809180008F773C
:1018F00080938000089584B58F7702C084B58F7D72
:1019000084BD08958091B0008F7703C08091B000AE
:101910008F7D8093B0000895CF93DF9390E0FC011A
:10192000E256FF4F2491FC01EE54FF4F849188232F
:1019300049F190E0880F991FFC01E652FF4FA591F5
:10194000B49180539F4FFC01C591D4919FB7611111
:1019500008C0F8948C91209582238C9388818223EF
:101960000AC0623051F4F8948C91322F3095832361
:101970008C938881822B888304C0F8948C91822B6D
:101980008C939FBFDF91CF9108950F931F93CF93B7
:10199000DF931F92CDB7DEB7282F30E0F901E6576D
:1019A000FF4F8491F901E256FF4F1491F901EE5473
:1019B000FF4F04910023C9F0882321F069830E941E
:1019C000630C6981E02FF0E0EE0FFF1FE053FF4F43
:1019D000A591B4919FB7F8948C91611103C01095B3
:1019E000812301C0812B8C939FBF0F90DF91CF91FA
:1019F0001F910F910895CF93DF93282F30E0F901C5
:101A0000E657FF4F8491F901E256FF4FD491F90157
:101A1000EE54FF4FC491CC2391F081110E94630CCE
:101A2000EC2FF0E0EE0FFF1FEA53FF4FA591B491AA
:101A30002C912D2381E090E021F480E002C080E031
:101A400090E0DF91CF910895FC01818D228D90E08F
:101A5000805C9F4F821B91098F7399270895FC0129
:101A6000918D828D981731F0828DE80FF11D858D53
:101A700090E008958FEF9FEF0895FC01918D828D86
:101A8000981761F0828DDF01A80FB11D5D968C91D2
:101A9000928D9F5F9F73928F90E008958FEF9FEFDD
:101AA000089581EC9EE0892B49F080E090E0892B3D
:101AB00029F00E94C10E81110C9400000895FC01D0
:101AC000848DDF01A80FB11DA35ABF4F2C91848DC7
:101AD00090E001968F739927848FA689B7892C93FC
:101AE000A089B1898C9180648C93938D848D981397
:101AF00006C00288F389E02D80818F7D8083089560
:101B0000CF93DF93EC01888D8823C9F0EA89FB89A4
:101B1000808185FD05C0A889B9898C9186FD0FC09B
:101B20000FB607FCF5CF808185FFF2CFA889B98970
:101B30008C9185FFEDCFCE010E945F0DE7CFDF9145
:101B4000CF910895CF92DF92FF920F931F93CF937F
:101B5000DF931F92CDB7DEB76C0181E0D6015896B6
:101B60008C9358975B969C915B975C968C915C9755
:101B7000981307C05096ED91FC915197808185FD97
:101B80002EC0F601038D10E00F5F1F4F0F7311275A
:101B9000F02EF601848DF81211C00FB607FCF9CFB4
:101BA000D6015096ED91FC915197808185FFF1CF40
:101BB000C60169830E945F0D6981EBCF838DE80FB9
:101BC000F11DE35AFF4F6083D6015B960C935B9740
:101BD0005296ED91FC915397808180620CC0D601A2
:101BE0005696ED91FC91579760835096ED91FC913C
:101BF000519780818064808381E090E00F90DF9135
:101C0000CF911F910F91FF90DF90CF900895BF92D9
:101C1000CF92DF92EF92FF92CF93DF93EC016A01B4
:101C20007B01B22EE889F98982E08083411581EE3B
:101C3000580761057105A1F060E079E08DE390E05F
:101C4000A70196010E946B132150310941095109E6
:101C50005695479537952795211580E1380798F0D7
:101C6000E889F989108260E874E88EE190E0A701C4
:101C700096010E946B132150310941095109569573
:101C8000479537952795EC85FD853083EE85FF8553
:101C90002083188EEC89FD89B082EA89FB898081D6
:101CA00080618083EA89FB89808188608083EA89FA
:101CB000FB89808180688083EA89FB8980818F7DB0
:101CC0008083DF91CF91FF90EF90DF90CF90BF9016
:101CD00008951F920F920FB60F9211242F938F9396
:101CE0009F93EF93FF93E0910803F09109038081A4
:101CF000E0910E03F0910F0382FD12C0908180915C
:101D000011038F5F8F7320911203821751F0E091BE
:101D10001103F0E0E850FD4F958F8093110301C04F
:101D20008081FF91EF919F918F912F910F900FBE26
:101D30000F901F9018951F920F920FB60F921124BB
:101D40002F933F934F935F936F937F938F939F93C3
:101D5000AF93BF93EF93FF9388EF92E00E945F0DE4
:101D6000FF91EF91BF91AF919F918F917F916F9173
:101D70005F914F913F912F910F900FBE0F901F9049
:101D8000189588EF92E00E94240D21E0892B09F438
:101D900020E0822F08951092FB021092FA0288EE42
:101DA00093E0A0E0B0E08093FC029093FD02A0934A
:101DB000FE02B093FF0281E092E09093F9028093DB
:101DC000F80285EC90E0909305038093040384EC83
:101DD00090E0909307038093060380EC90E090934B
:101DE00009038093080381EC90E090930B038093A8
:101DF0000A0382EC90E090930D0380930C0386EC31
:101E000090E090930F0380930E03109211031092B1
:101E100012031092130310921403089508950E9460
:101E2000AC0B0E940E0F0E94CD05C1E5DDE00E94C3
:101E30001B092097E1F30E94510DF9CFCF92DF9259
:101E4000EF92FF920F931F93CF93DF936C017A0170
:101E5000EB01E60EF71E00E010E0CE15DF0561F0A5
:101E60006991D601ED91FC910190F081E02DC601C0
:101E70000995080F191FF1CFC801DF91CF911F916C
:101E80000F91FF90EF90DF90CF900895611571054D
:101E900081F0DB010D900020E9F7AD0141505109BF
:101EA000461B570BDC01ED91FC910280F381E02D84
:101EB000099480E090E008950C94460FDC01ED91C8
:101EC000FC910190F081E02D09946DE072E00C949A
:101ED000460F0F931F93CF93DF93EC010E94460FA1
:101EE0008C01CE010E94650F800F911FDF91CF9171
:101EF0001F910F9108950F931F93CF93DF93EC01E0
:101F00000E945E0F8C01CE010E94650F800F911F11
:101F1000DF91CF911F910F9108958F929F92AF9271
:101F2000BF92CF92DF92EF92FF920F931F93CF93C6
:101F3000DF93CDB7DEB7A1970FB6F894DEBF0FBE23
:101F4000CDBF7C01C42EE52FCB01D22E19A221E0FA
:101F50002D1510F02AE0D22E8E010F5D1F4F8D2C13
:101F6000912CA12CB12C6C2D7E2FA50194010E94E7
:101F70006B138C2DD29E80191124015011098A30C7
:101F800014F4805D01C0895CF8018083211531055E
:101F90004105510521F0C22EE32FCA01E4CFB8015B
:101FA000C7010E94460FA1960FB6F894DEBF0FBE80
:101FB000CDBFDF91CF911F910F91FF90EF90DF90F8
:101FC000CF90BF90AF909F908F900895CF92DF9267
:101FD000EF92FF920F931F93CF93DF93EC016A016F
:101FE0007B012115310579F4E881F9810190F081B7
:101FF000E02D642FDF91CF911F910F91FF90EF9013
:10200000DF90CF9009942A303105E9F477FF1AC0A8
:102010006DE20E945E0F8C0144275527BA014C19CE
:102020005D096E097F092AE0CE010E948D0F800FA5
:10203000911FDF91CF911F910F91FF90EF90DF9053
:10204000CF9008952AE0B701A601CE01DF91CF918C
:102050001F910F91FF90EF90DF90CF900C948D0F18
:102060009A01AB01662757FD6095762F0C94E60F19
:102070004F925F926F927F928F929F92AF92BF9298
:10208000CF92DF92EF92FF920F931F93CF93DF9344
:10209000EC016A017B01B22E9A01AB01C701B601C6
:1020A0000E945313882319F060E172E027C02601D3
:1020B0003701E89477F82FEF3FEF4FE75FE7C30171
:1020C000B2010E94531381110DC02FEF3FEF4FE774
:1020D0005FE7C301B2010E949D1118161CF464E170
:1020E00072E00CC02FEF3FEF4FE75FE4C701B6018E
:1020F0000E94EC121816ACF468E172E0CE01DF9198
:10210000CF911F910F91FF90EF90DF90CF90BF90F4
:10211000AF909F908F907F906F905F904F900C94B6
:10212000460F2FEF3FEF4FE75FECC701B6010E946C
:102130009D1187FDE1CF20E030E0A901C701B60184
:102140000E949D1187FF0AC06DE2CE010E945E0FC2
:102150008C01F7FAF094F7F8F09402C000E010E078
:10216000A12C60E070E080E09FE3AB1441F020E040
:1021700030E040E251E40E94A111A394F6CF9B010C
:10218000AC01C701B6010E9439116B017C010E94AC
:102190000E122B013C010E943A129B01AC01C701B7
:1021A000B6010E9438116B017C012AE0B301A20143
:1021B000CE010E948D0F080F191FBB2039F06BE470
:1021C00071E0CE010E94460F080F191F7B2C77206B
:1021D00041F120E030E040E251E4C701B6010E9445
:1021E000F0126B017C010E9409124B01AA2497FC9A
:1021F000A094BA2C2AE030E0B501A401CE010E94DF
:10220000E60F080F191FC501B4010E943C129B0183
:10221000AC01C701B6010E9438116B017C017A94B0
:10222000D6CFC801DF91CF911F910F91FF90EF9012
:10223000DF90CF90BF90AF909F908F907F906F90E6
:102240005F904F9008950C9438100F931F93CF9385
:10225000DF93EC010E9438108C01CE010E94650FC3
:10226000800F911FDF91CF911F910F9108950895D5
:102270005058BB27AA270ED075C166D130F06BD15C
:1022800020F031F49F3F11F41EF45BC10EF4E09591
:10229000E7FB51C1E92F77D180F3BA1762077307C3
:1022A0008407950718F071F49EF58FC10EF4E09540
:1022B0000B2EBA2FA02D0B01B90190010C01CA0100
:1022C000A0011124FF27591B99F0593F50F4503EAB
:1022D00068F11A16F040A22F232F342F4427585F9D
:1022E000F3CF469537952795A795F0405395C9F7B5
:1022F0007EF41F16BA0B620B730B840BBAF091506D
:10230000A1F0FF0FBB1F661F771F881FC2F70EC00B
:10231000BA0F621F731F841F48F4879577956795DE
:10232000B795F7959E3F08F0B3CF9395880F08F0C7
:102330009927EE0F979587950895D9D008F481E0F5
:1023400008950CD00FC107D140F0FED030F021F439
:102350005F3F19F0F0C0511139C1F3C014D198F3A7
:102360009923C9F35523B1F3951B550BBB27AA2716
:1023700062177307840738F09F5F5F4F220F331F88
:10238000441FAA1FA9F333D00E2E3AF0E0E830D054
:1023900091505040E695001CCAF729D0FE2F27D057
:1023A000660F771F881FBB1F261737074807AB0725
:1023B000B0E809F0BB0B802DBF01FF2793585F4F9A
:1023C0002AF09E3F510568F0B6C000C15F3FECF3B4
:1023D000983EDCF3869577956795B795F7959F5F5F
:1023E000C9F7880F911D9695879597F90895E1E0B3
:1023F000660F771F881FBB1F621773078407BA0712
:1024000020F0621B730B840BBA0BEE1F88F7E0956C
:10241000089504D06894B111D9C00895BCD088F053
:102420009F5790F0B92F9927B751A0F0D1F0660FC0
:10243000771F881F991F1AF0BA95C9F712C0B130DB
:1024400081F0C3D0B1E00895C0C0672F782F8827EE
:10245000B85F39F0B93FCCF3869577956795B3951A
:10246000D9F73EF490958095709561957F4F8F4F89
:102470009F4F0895E89409C097FB3EF4909580958E
:10248000709561957F4F8F4F9F4F9923A9F0F92F3A
:1024900096E9BB279395F695879577956795B795B8
:1024A000F111F8CFFAF4BB0F11F460FF1BC06F5F9E
:1024B0007F4F8F4F9F4F16C0882311F096E911C0B0
:1024C000772321F09EE8872F762F05C0662371F0D1
:1024D00096E8862F70E060E02AF09A95660F771FE5
:1024E000881FDAF7880F9695879597F90895990FC1
:1024F0000008550FAA0BE0E8FEEF16161706E807CE
:10250000F907C0F012161306E407F50798F0621BEE
:10251000730B840B950B39F40A2661F0232B242BC3
:10252000252B21F408950A2609F4A140A6958FEFE2
:10253000811D811D089597F99F6780E870E060E034
:1025400008959FEF80EC089500240A94161617064C
:1025500018060906089500240A9412161306140694
:1025600005060895092E0394000C11F4882352F0F7
:10257000BB0F40F4BF2B11F460FF04C06F5F7F4FAF
:102580008F4F9F4F089557FD9058440F551F59F096
:102590005F3F71F04795880F97FB991F61F09F3F50
:1025A00079F087950895121613061406551FF2CF79
:1025B0004695F1DF08C0161617061806991FF1CFC9
:1025C00086957105610508940895E894BB276627F0
:1025D0007727CB0197F908958ADF08F48FEF0895E4
:1025E0000BD0C0CFB1DF28F0B6DF18F0952309F08B
:1025F000A2CFA7CF1124EACFC6DFA0F3959FD1F3D6
:10260000950F50E0551F629FF001729FBB27F00DA0
:10261000B11D639FAA27F00DB11DAA1F649F6627F5
:10262000B00DA11D661F829F2227B00DA11D621F44
:10263000739FB00DA11D621F839FA00D611D221FFE
:10264000749F3327A00D611D231F849F600D211DE2
:10265000822F762F6A2F11249F5750408AF0E1F085
:1026600088234AF0EE0FFF1FBB1F661F771F881FCE
:1026700091505040A9F79E3F510570F05CCFA6CF16
:102680005F3FECF3983EDCF3869577956795B795B9
:10269000F795E7959F5FC1F7FE2B880F911D9695E3
:1026A000879597F9089523DF880B990B089597FB79
:1026B000072E16F4009407D077FD09D00E949313DB
:1026C00007FC05D03EF4909581959F4F0895709535
:1026D00061957F4F0895A1E21A2EAA1BBB1BFD0135
:1026E0000DC0AA1FBB1FEE1FFF1FA217B307E407F1
:1026F000F50720F0A21BB30BE40BF50B661F771F49
:10270000881F991F1A9469F7609570958095909528
:102710009B01AC01BD01CF010895EE0FFF1F059095
:10272000F491E02D0994AA1BBB1B51E107C0AA1F1D
:10273000BB1FA617B70710F0A61BB70B881F991F62
:102740005A95A9F780959095BC01CD010895F8940C
:02275000FFCFB9
:10275200083F0E0D000C000AD72340C00001495269
:102762002053656E736F722052656164696E677380
:102772003A2000647269766544697374616E6365B8
:102782002829200020696E63686573206174200027
:10279200206C65667420706F7765722E00207269F6
:1027A20067687420706F7765722E0009004D6F762E
:1027B2006520666F727761726420616E20696E6354
:1027C20068002A2D2D2D2D2D2D2D2D2D2D2D2D2D2C
:1027D2002D2D2D2D2D2D2D2D2D2D2D2D2D2D2D2D27
:1027E2002A005475726E20736C696768746C792064
:1027F2006C656674005475726E20736C69676874D8
:10280200207269676874005245504C4159494E47DD
:102812002100476F205374726169676874005475B0
:10282200726E205249474854006465636964696E58
:1028320067206C656674006465636964696E67200D
:10284200726967687400552D5455524E000000009D
:1028520000A20D1E0F240D3D0D2F0D800D0D0A003F
:0C2862006E616E00696E66006F766600A5
:00000001FF
