:100000000C946F000C9497000C9497000C94B5011D
:100010000C94F0020C944A030C9497000C949700F3
:100020000C9497000C9497000C9497000C949700F4
:100030000C9497000C9497000C9497000C949700E4
:100040000C949F090C9497000C94D40C0C94060DFE
:100050000C9497000C9497000C9497000C949700C4
:100060000C9497000C949700DE03210421042104D2
:1000700021042104F00300041004210421047C0362
:100080008C039E03AE03BE03CE03000000080002F3
:10009000010000030407000000000000000001024E
:1000A0000408102040800102040810200102040806
:1000B00010200404040404040404020202020202E4
:1000C00003030303030300000000250028002B00A6
:1000D00000000000240027002A005E09360D1124CC
:1000E0001FBECFEFD8E0DEBFCDBF11E0A0E0B1E092
:1000F000E4E0F4E202C005900D92AC3EB107D9F7FE
:1001000023E0ACEEB1E001C01D92A034B207E1F7EC
:1001100010E0CEEDD0E004C02297FE010E94E8116D
:10012000CA3DD107C9F70E947A0D0C9400120C94B5
:100130000000CF92DF92EF92FF92E82FF0E0DF0114
:10014000A251BE4F8C918230F9F078F4813009F0E1
:1001500052C0EE0FFF1FE95FFD4F0190F081E02DCF
:10016000FF90EF90DF90CF900994833021F184309D
:1001700009F041C08091EC019091ED01FF90EF906A
:10018000DF90CF900C947C05C090FF01D0900002CE
:10019000E0900102F09002020E94F50922E3C20EF3
:1001A000D11CE11CF11CC616D706E806F90618F5A5
:1001B00060E070E016C0C0900302D0900402E090AE
:1001C0000502F09006020E94F50922E3C20ED11C3E
:1001D000E11CF11CC616D706E806F90660F461E0DA
:1001E00070E080911B0290911C02FF90EF90DF90D5
:1001F000CF900C945D04FF90EF90DF90CF90089526
:10020000CF93C82F8091020181FF02C0C1FF46C079
:100210008091020181FD2CC0C1FF2AC08091F501AF
:10022000823051F40E94F5096093FF01709300023F
:1002300080930102909302028091F501833051F482
:100240000E94F509609303027093040280930502F3
:10025000909306028091F501813051F40E94E909E2
:100260006093FB017093FC018093FD019093FE016C
:100270008091020182FF16C0C2FD14C088E00E9476
:1002800099008091020183FF3EC0C3FD3CC089E01C
:100290000E949900C0930201CF91089587E00E94C7
:1002A0009900E6CF8091020182FDEBCFC2FFE9CF3A
:1002B0008091F601823051F40E94F5096093FF01AC
:1002C0007093000280930102909302028091F601E4
:1002D000833051F40E94F509609303027093040285
:1002E00080930502909306028091F601813049F6D1
:1002F0000E94E9096093FB017093FC018093FD016A
:100300009093FE01BECF8091020182FDC3CFC2FF58
:10031000C1CF8091F701823051F40E94F5096093BA
:10032000FF0170930002809301029093020280917A
:10033000F701833051F40E94F50960930302709332
:10034000040280930502909306028091F7018130A8
:1003500009F0A0CF0E94E9096093FB017093FC01B2
:100360008093FD019093FE0195CF1F920F920FB6DF
:100370000F9211242F933F934F935F936F937F932B
:100380008F939F93AF93BF93EF93FF9393B180911C
:10039000FA0189230E940001FF91EF91BF91AF9173
:1003A0009F918F917F916F915F914F913F912F918D
:1003B0000F900FBE0F901F901895CF93C82F80916C
:1003C000010180FF02C0C0FF53C08091010180FD88
:1003D0001EC0C0FF1CC08091EE01823051F40E940B
:1003E000E9096093FF0170930002809301029093EA
:1003F00002028091EE01833051F40E94E90960937A
:100400000302709304028093050290930602809188
:10041000010181FF31C0C1FD2FC081E00E94990020
:100420008091010182FF4CC0C2FD4AC082E00E945F
:1004300099008091010183FF67C0C3FD65C083E01F
:100440000E9499008091010184FF82C0C4FD80C098
:1004500084E00E9499008091010185FF9DC0C5FD47
:100460009BC085E00E949900C0930101CF9108953F
:1004700080E00E949900CBCF8091010181FDD0CF17
:10048000C1FFCECF8091EF01823051F40E94E90983
:100490006093FF0170930002809301029093020227
:1004A0008091EF01833009F0BBCF0E94E90960938E
:1004B0000302709304028093050290930602B0CF6A
:1004C0008091010182FDB5CFC2FFB3CF8091F001D1
:1004D000823051F40E94E9096093FF017093000299
:1004E00080930102909302028091F001833009F021
:1004F000A0CF0E94E90960930302709304028093E5
:1005000005029093060295CF8091010183FD9ACF59
:10051000C3FF98CF8091F101823051F40E94E90924
:100520006093FF0170930002809301029093020296
:100530008091F101833009F085CF0E94E909609331
:1005400003027093040280930502909306027ACF0F
:100550008091010184FD7FCFC4FF7DCF8091F201A6
:10056000823051F40E94E9096093FF017093000208
:1005700080930102909302028091F201833009F08E
:100580006ACF0E94E909609303027093040280938A
:100590000502909306025FCF8091010185FD64CF33
:1005A000C5FF62CF8091F301823051F40E94E909C6
:1005B0006093FF0170930002809301029093020206
:1005C0008091F301833009F04FCF0E94E9096093D5
:1005D000030270930402809305029093060244CFB5
:1005E0001F920F920FB60F9211242F933F934F93A8
:1005F0005F936F937F938F939F93AF93BF93EF938B
:10060000FF9396B18091F90189230E94DD01FF914A
:10061000EF91BF91AF919F918F917F916F915F917A
:100620004F913F912F910F900FBE0F901F901895F3
:10063000CF93C82F8091000183FF02C0C3FF26C063
:100640008091000183FD1EC0C3FF1CC08091F40196
:10065000823051F40E94E9096093FF017093000217
:1006600080930102909302028091F401833051F44F
:100670000E94E909609303027093040280930502CB
:1006800090930602C0930001CF91089586E00E94E6
:100690009900F8CF1F920F920FB60F9211242F934B
:1006A0003F934F935F936F937F938F939F93AF93FA
:1006B000BF93EF93FF9399B18091F80189230E9432
:1006C0001803FF91EF91BF91AF919F918F917F910F
:1006D0006F915F914F913F912F910F900FBE0F90AF
:1006E0001F90189503978131910508F0AAC08C5C82
:1006F0009F4FFC010C94E61180916C008160809307
:100700006C00809168008260809368006093EE01C5
:100710008091F90181600FC080916C0082608093AC
:100720006C00809168008260809368006093EF01A4
:100730008091F90182608093F901089580916C00A5
:10074000846080936C008091680082608093680070
:100750006093F0018091F9018460EDCF80916C008D
:10076000886080936C00809168008260809368004C
:100770006093F1018091F9018860DDCF80916C0078
:10078000806180936C008091680082608093680033
:100790006093F2018091F9018061CDCF80916C006E
:1007A000806280936C008091680082608093680012
:1007B0006093F3018091F9018062BDCF80916D005B
:1007C000886080936D0080916800846080936800E9
:1007D0006093F4018091F80188608093F801089596
:1007E00080916B00826080936B00809168008160D3
:1007F000809368006093F5018091FA0182601FC0C8
:1008000080916B00846080936B00809168008160B0
:10081000809368006093F6018091FA0184600FC0B4
:1008200080916B00886080936B008091680081608C
:10083000809368006093F7018091FA01886080934B
:10084000FA010895EF92FF920F931F93CF93DF93D6
:1008500000D0CDB7DEB77C01062F142F62E0802FC9
:100860005A8379830E94200B62E0812F0E94200B23
:1008700062E0802F7981972F0E94720363E0812FBD
:100880005A81952F0E947203F70110821182128201
:1008900013821482158216821782F0921C02E09253
:1008A0001B0281E0808781870F900F90DF91CF91AD
:1008B0001F910F91FF90EF9008950F931F93FC01EC
:1008C00061157105B1F06130710529F501851127B8
:1008D00007FD1095212F312F448155816681778145
:1008E000400F511F621F731F4483558366837783B4
:1008F00012C00085112707FD1095212F312F40814F
:10090000518162817381400F511F621F731F4083A9
:100910005183628373831F910F910895FC016130AD
:10092000710571F06230710539F0672B69F410823E
:100930001182128213820895108211821282138210
:10094000148215821682178208956115710549F087
:100950006130710561F4FC01648175818681978144
:100960000895FC016081718182819381089560E026
:1009700070E0CB01089561E087E00E94200B61E008
:1009800088E00E94200B61E082E00E94200B61E081
:1009900084E00C94200B61E082E00E94590B61E03E
:1009A00084E00E94590B60E070E085E00C94980AA6
:1009B00061E087E00E94590B61E088E00E94590BDA
:1009C00060E070E086E00C94980ACF93DF93EC012E
:1009D0000E94CB04CE01DF91CF910C94D804CF9329
:1009E000C62F61E082E00E94590B60E084E00E9423
:1009F000590B6C2F70E085E00E94980AE0911B0271
:100A0000F0911C02309711F081E08087CF9108951A
:100A1000CF93C62F60E082E00E94590B61E084E032
:100A20000E94590B6C2F70E085E00E94980AE091BB
:100A30001B02F0911C02309711F08FEF8087CF914D
:100A400008951616170614F40C940805719561950F
:100A500071090C94EF04CF93C62F61E087E00E94E8
:100A6000590B60E088E00E94590B6C2F70E086E023
:100A70000E94980AE0911B02F0911C02309711F03D
:100A800081E08187CF910895CF93C62F60E087E002
:100A90000E94590B61E088E00E94590B6C2F70E0B6
:100AA00086E00E94980AE0911B02F0911C023097A8
:100AB00011F08FEF8187CF9108951616170614F461
:100AC0000C942B057195619571090C944405FC01FA
:100AD000718360838FEF9FEF9383828395838483F9
:100AE0000895FC0180810C947B0A20E001972FEF90
:100AF0008F3F9207D9F70895EF92FF920F931F93BC
:100B0000CF93DF93EC018B899C890E94750508E0E7
:100B100010E0EE24E394F12C8D899E890E947505E6
:100B2000EE85FF8580819D85892311F0FE2803C015
:100B30008E2D8095F822EE0C0150110969F78F89EE
:100B4000988D0E94750580911E0220911D0290E0F3
:100B500001968F73992730E08217930779F0E0911F
:100B60001E02F0E0E15EFD4FF08280911E0290E0F7
:100B700001968F73992780931E0203C08B8D81602D
:100B80008B8FDF91CF911F910F91FF90EF90089580
:100B900026E040E855E260E070E083EA92E00E94DF
:100BA000720C60ED77E080E090E00E94180A6AE045
:100BB00071E083EA92E00E94D40D64EF71E080E07E
:100BC00090E00C94180A0F931F93CF93DF93C5E026
:100BD000D0E082E892E00E947105080F191F21976A
:100BE000C1F7C80165E070E00E94B011CB017093BD
:100BF000620260936102DF91CF911F910F9108957E
:100C00000F931F93CF93DF93C5E0D0E08CE792E082
:100C10000E947105080F191F2197C1F7C80165E0EF
:100C200070E00E94B011CB017093600260935F028C
:100C3000DF91CF911F910F9108950F931F93CF9341
:100C4000DF93C5E0D0E08EE892E00E947105080FC6
:100C5000191F2197C1F7C80165E070E00E94B0112B
:100C6000CB017093640260936302DF91CF911F9177
:100C70000F9108950F931F93CF93DF93C5E0D0E0BA
:100C800088E892E00E947105080F191F2197C1F7AB
:100C9000C80165E070E00E94B011CB01709366025C
:100CA00060936502DF91CF911F910F9108950F938B
:100CB0001F93CF93DF93C5E0D0E084E992E00E94D8
:100CC0007105080F191F2197C1F7C80165E070E091
:100CD0000E94B011CB017093680260936702DF91AC
:100CE000CF911F910F9108956F927F928F929F9253
:100CF000AF92BF92CF92DF92EF92FF920F931F932A
:100D0000CF93DF936B017C01EA0189016FE171E010
:100D100083EA92E00E94C70D22E030E0B701A6010D
:100D200083EA92E00E947C0F60E371E083EA92E044
:100D30000E94C70D4AE050E0BE0183EA92E00E94A3
:100D4000890E6CE371E083EA92E00E94D40D4AE0E0
:100D500050E0B80183EA92E00E94890E69E471E0F4
:100D600083EA92E00E94D40D2091690230916A02D8
:100D700040916B0250916C02C701B6010E94FA0FBC
:100D80006B017C0123E030E0AB01BC0183EA92E01F
:100D90000E947E0F62E070E082E792E00E948E0483
:100DA000BE0181E792E00E942105B80181E792E04F
:100DB0000E945D05612C712CD0E0C0E0B3018D2F45
:100DC0009C2F97FF07C090958095709561957F4FF8
:100DD0008F4F9F4F0E9495104B015C01609107015E
:100DE00070910801882777FD8095982F0E949510B3
:100DF0009B01AC01C701B6010E9449119B01AC01E6
:100E0000C501B4010E94F60F87FF47C060E070E0A3
:100E100082E792E00E94A5043B01D82FC92F61E030
:100E200070E082E792E00E94A5044B015C012AE099
:100E300030E0A3016D2F7C2F83EA92E00E943F0EE9
:100E400067E571E083EA92E00E94C70D2AE030E096
:100E5000B501A40183EA92E00E943F0E67E571E0CC
:100E600083EA92E00E94C70D60910701709108012A
:100E7000882777FD8095982F0E9495109B01AC01E3
:100E8000C701B6010E944911AB01BC0122E030E06C
:100E900083EA92E00E947E0F91CF81E792E0DF919A
:100EA000CF911F910F91FF90EF90DF90CF90BF9067
:100EB000AF909F908F907F906F900C94E50469E5C0
:100EC00071E083EA92E00E94D40D24E630E04CE920
:100ED0005FEF60E070E080E89FE30E94740668ECDA
:100EE00070E080E090E00E94180A0E945706833567
:100EF0009340D4F10E941D0683359340ACF10E94CB
:100F00003A068335934084F10E94E305833593408C
:100F10005CF10E9400068335934034F181E792E052
:100F20000E94E5041092700210926F0210926E02FD
:100F300010926D0260916F027091700281E792E0F1
:100F40000E94210560916D0270916E0281E792E02E
:100F50000E945D0562E573E080E090E00E94180A5F
:100F600081E792E00C94E5040E94E305823593400A
:100F70000CF78CE99FEF9093700280936F0290932F
:100F80006E0280936D02D6CF69E571E083EA92E04C
:100F90000E94D40D24E630E04CE95FEF60E070E0A1
:100FA00080E89FE30E94740668EC70E080E090E0C7
:100FB0000E94180A0E941D06823593403CF484E684
:100FC00090E09093700280936F0208C08AE69FEFD2
:100FD0009093700280936F0286E990E090936E0286
:100FE00080936D0260916F027091700281E792E0D0
:100FF0000E94210560916D0270916E0281E792E07E
:101000000E945D056EEE72E080E090E00C94180A9C
:101010008CE792E00E9471054AE050E0BC0183EA4F
:1010200092E00E94890E67E571E083EA92E00E94F7
:10103000C70D84E992E00E9471054AE050E0BC01CE
:1010400083EA92E00E94890E67E571E083EA92E00C
:101050000E94C70D8EE892E00E9471054AE050E0C0
:10106000BC0183EA92E00E94890E67E571E083EAA1
:1010700092E00E94C70D88E892E00E9471054AE064
:1010800050E0BC0183EA92E00E94890E67E571E0BE
:1010900083EA92E00E94C70D82E892E00E94710507
:1010A0004AE050E0BC0183EA92E00E94890E83EAA4
:1010B00092E00E94D00D0E941D06833593407CF083
:1010C0006EE671E083EA92E00E94D40D8CE99FEF16
:1010D0009093700280936F0284E690E027C00E9494
:1010E0003A06833593407CF06AE771E083EA92E048
:1010F0000E94D40D84E79FEF9093700280936F025B
:101100008CE390E013C00E9457068335934094F01F
:101110006DE871E083EA92E00E94D40D84EC9FEFC9
:101120009093700280936F028CE890E090936E022F
:1011300080936D020E94E305833593405CF00E942A
:101140003A068335934034F00E940006823593407E
:101150000CF47AC00E9400068335934084F00E940C
:101160005706833593405CF00E941D0683359340FB
:1011700034F00E94E305823593400CF47CC00E9459
:10118000570683359340ACF00E941D06833593408B
:1011900084F00E943A06833593405CF00E94E30598
:1011A0008335934034F00E940006833593400CF061
:1011B0006BC00E945706823593400CF06EC00E94AF
:1011C0001D06823593400CF068C00E943A068235B5
:1011D00093400CF062C00E94E305823593400CF00E
:1011E0005CC00E940006823593400CF056C064E655
:1011F00070E080E090E00E94180A67EC71E083EAFA
:1012000092E00E94D40D24E630E04CE95FEF60E00C
:1012100070E080E490E40E94740668E37FEF81E769
:1012200092E00E94210568E37FEF81E792E00E944F
:101230005D0562E573E080E090E00E94180A60E0DE
:1012400070E0CB010C94180A6FE971E083EA92E038
:101250000E94D40D8CE99FEF9093700280936F02EF
:1012600090936E0280936D026CE370E080E090E0FA
:101270000E94180A6FCF6AEA71E083EA92E00E9446
:10128000D40D0E94C4077BCF68EB71E083EA92E043
:101290000E94D40D0E945F078CCF60916F02709105
:1012A000700281E792E00E94210560916D027091C9
:1012B0006E0281E792E00E945D05C1CF61E170E0BE
:1012C00084E992E00E94670564E170E08EE892E0B4
:1012D0000E94670565E170E088E892E00E9467057A
:1012E0006FE070E082E892E00E9467056EE070E0D7
:1012F0008CE792E00E9467054AE050E060E170E010
:1013000082E792E00E94220481E792E00E94BB04FF
:101310002BED3FE049E450E460910301709104013A
:1013200080910501909106010E9449116093690224
:1013300070936A0280936B0290936C0208951F92DF
:101340000F920FB60F9211242F933F938F939F9379
:10135000AF93BF9380919B0290919C02A0919D02BC
:10136000B0919E0230919A0223E0230F2D3720F492
:101370000196A11DB11D05C026E8230F0296A11DEF
:10138000B11D20939A0280939B0290939C02A0939C
:101390009D02B0939E0280919F029091A002A09125
:1013A000A102B091A2020196A11DB11D80939F02DE
:1013B0009093A002A093A102B093A202BF91AF911B
:1013C0009F918F913F912F910F900FBE0F901F9083
:1013D00018952FB7F89460919B0270919C028091B0
:1013E0009D0290919E022FBF08953FB7F89480917F
:1013F0009F029091A002A091A102B091A20226B5F5
:10140000A89B05C02F3F19F00196A11DB11D3FBF3C
:101410006627782F892F9A2F620F711D811D911DCC
:1014200042E0660F771F881F991F4A95D1F70895EC
:10143000CF92DF92EF92FF92CF93DF936B017C010B
:101440000E94F509EB01C114D104E104F10489F013
:101450000E94900F0E94F5096C1B7D0B683E734043
:1014600090F381E0C81AD108E108F108C851DC4FB7
:10147000EACFDF91CF91FF90EF90DF90CF9008956A
:10148000789484B5826084BD84B5816084BD85B55F
:10149000826085BD85B5816085BDEEE6F0E0808126
:1014A00081608083E1E8F0E0108280818260808347
:1014B000808181608083E0E8F0E0808181608083CA
:1014C000E1EBF0E0808184608083E0EBF0E08081FC
:1014D00081608083EAE7F0E080818460808380819E
:1014E0008260808380818160808380818068808346
:1014F0001092C10008958E3008F08E5087702091B0
:10150000090190E4299F90011124822B80937C0093
:1015100080917A00806480937A0080917A0086FDC1
:10152000FCCF809178002091790090E0922B089573
:101530001F93CF93DF93182FEB0161E00E94200BE4
:10154000209711F460E004C0CF3FD10539F461E089
:10155000812FDF91CF911F910C94590BE12FF0E077
:10156000E657FF4FE491E330F9F048F4E130B9F089
:10157000E230A1F584B5806284BDC8BD34C0E730D7
:10158000E9F0E83019F1E43049F58091800080629B
:1015900080938000D0938B00C0938A0024C084B5D0
:1015A000806884BDC7BD1FC0809180008068809323
:1015B0008000D0938900C093880015C08091B0004E
:1015C00080688093B000C093B3000DC08091B000DC
:1015D00080628093B000C093B40005C0C038D105CC
:1015E0000CF0B5CFAFCFDF91CF911F91089583302D
:1015F00081F028F4813099F08230A1F0089587308D
:10160000A9F08830B9F08430D1F4809180008F7DCA
:1016100003C0809180008F7780938000089584B507
:101620008F7702C084B58F7D84BD08958091B0000E
:101630008F7703C08091B0008F7D8093B0000895B4
:10164000CF93DF9390E0FC01E256FF4F2491FC0121
:10165000EE54FF4F8491882349F190E0880F991F41
:10166000FC01E053FF4FA591B4918A539F4FFC01B9
:10167000C591D4919FB7611108C0F8948C912095C1
:1016800082238C93888182230AC0623051F4F894BB
:101690008C91322F309583238C938881822B888381
:1016A00004C0F8948C91822B8C939FBFDF91CF91D3
:1016B00008950F931F93CF93DF931F92CDB7DEB79B
:1016C000282F30E0F901E657FF4F8491F901E256E7
:1016D000FF4F1491F901EE54FF4F04910023C9F01C
:1016E000882321F069830E94F70A6981E02FF0E0E6
:1016F000EE0FFF1FEA53FF4FA591B4919FB7F894E7
:101700008C91611103C01095812301C0812B8C93B2
:101710009FBF0F90DF91CF911F910F910895FC0112
:10172000818D228D90E0805C9F4F821B91098F7389
:1017300099270895FC01918D828D981731F0828D43
:10174000E80FF11D858D90E008958FEF9FEF0895CC
:10175000FC01918D828D981761F0828DDF01A80FB9
:10176000B11D5D968C91928D9F5F9F73928F90E0DB
:1017700008958FEF9FEF08958CE29DE0892B49F04B
:1017800080E090E0892B29F00E942C0D81110C94AF
:1017900000000895FC01848DDF01A80FB11DA35A3C
:1017A000BF4F2C91848D90E001968F739927848F81
:1017B000A689B7892C93A089B1898C9180648C9378
:1017C000938D848D981306C00288F389E02D808163
:1017D0008F7D80830895CF93DF93EC01888D8823DC
:1017E000C9F0EA89FB89808185FD05C0A889B9898E
:1017F0008C9186FD0FC00FB607FCF5CF808185FF69
:10180000F2CFA889B9898C9185FFEDCFCE010E94D6
:10181000CA0BE7CFDF91CF910895CF92DF92FF926D
:101820000F931F93CF93DF931F92CDB7DEB76C0159
:1018300081E0D60158968C9358975B969C915B9764
:101840005C968C915C97981307C05096ED91FC9133
:101850005197808185FD2EC0F601038D10E00F5F4A
:101860001F4F0F731127F02EF601848DF81211C04F
:101870000FB607FCF9CFD6015096ED91FC91519728
:10188000808185FFF1CFC60169830E94CA0B6981FF
:10189000EBCF838DE80FF11DE35AFF4F6083D60134
:1018A0005B960C935B975296ED91FC9153978081D8
:1018B00080620CC0D6015696ED91FC9157976083DB
:1018C0005096ED91FC91519780818064808381E0F6
:1018D00090E00F90DF91CF911F910F91FF90DF90DB
:1018E000CF900895BF92CF92DF92EF92FF92CF9365
:1018F000DF93EC016A017B01B22EE889F98982E06D
:101900008083411581EE580761057105A1F060E003
:1019100079E08DE390E0A70196010E94C411215067
:101920003109410951095695479537952795211554
:1019300080E1380798F0E889F989108260E874E856
:101940008EE190E0A70196010E94C4112150310957
:10195000410951095695479537952795EC85FD85A1
:101960003083EE85FF852083188EEC89FD89B08257
:10197000EA89FB89808180618083EA89FB89808193
:1019800088608083EA89FB89808180688083EA8916
:10199000FB8980818F7D8083DF91CF91FF90EF90D5
:1019A000DF90CF90BF9008951F920F920FB60F92C5
:1019B00011242F938F939F93EF93FF93E091B302A2
:1019C000F091B4028081E091B902F091BA0282FDF7
:1019D00012C090818091BC028F5F8F732091BD02F5
:1019E000821751F0E091BC02F0E0ED55FD4F958F6C
:1019F0008093BC0201C08081FF91EF919F918F91F4
:101A00002F910F900FBE0F901F9018951F920F925D
:101A10000FB60F9211242F933F934F935F936F93C1
:101A20007F938F939F93AF93BF93EF93FF9383EA3B
:101A300092E00E94CA0BFF91EF91BF91AF919F91ED
:101A40008F917F916F915F914F913F912F910F9067
:101A50000FBE0F901F90189583EA92E00E948F0BA3
:101A600021E0892B09F420E0822F08951092A6022C
:101A70001092A50288EE93E0A0E0B0E08093A70268
:101A80009093A802A093A902B093AA0280ED91E0DE
:101A90009093A4028093A30285EC90E09093B0020F
:101AA0008093AF0284EC90E09093B2028093B102F5
:101AB00080EC90E09093B4028093B30281EC90E0CC
:101AC0009093B6028093B50282EC90E09093B802B6
:101AD0008093B70286EC90E09093BA028093B902AB
:101AE0001092BC021092BD021092BE021092BF0270
:101AF000089508950E94400A0E94790D0E94C80529
:101B0000CCEBDBE00E9408082097E1F30E94BC0BBD
:101B1000F9CFCF92DF92EF92FF920F931F93CF9363
:101B2000DF936C017A01EB01E60EF71E00E010E096
:101B3000CE15DF0561F06991D601ED91FC91019020
:101B4000F081E02DC6010995080F191FF1CFC801DA
:101B5000DF91CF911F910F91FF90EF90DF90CF9089
:101B600008956115710581F0DB010D900020E9F702
:101B7000AD0141505109461B570BDC01ED91FC9121
:101B80000280F381E02D099480E090E008950C94A8
:101B9000B10DDC01ED91FC910190F081E02D0994F3
:101BA0006CED71E00C94B10D0F931F93CF93DF9305
:101BB000EC010E94B10D8C01CE010E94D00D800F6E
:101BC000911FDF91CF911F910F9108958F929F9256
:101BD000AF92BF92CF92DF92EF92FF920F931F933B
:101BE000CF93DF93CDB7DEB7A1970FB6F894DEBFE2
:101BF0000FBECDBF7C01C42EE52FCB01D22E19A282
:101C000021E02D1510F02AE0D22E8E010F5D1F4F1E
:101C10008D2C912CA12CB12C6C2D7E2FA501940123
:101C20000E94C4118C2DD29E8019112401501109DB
:101C30008A3014F4805D01C0895CF801808321152D
:101C400031054105510521F0C22EE32FCA01E4CF31
:101C5000B801C7010E94B10DA1960FB6F894DEBF7E
:101C60000FBECDBFDF91CF911F910F91FF90EF90ED
:101C7000DF90CF90BF90AF909F908F900895CF92BC
:101C8000DF92EF92FF920F931F93CF93DF93EC01BC
:101C90006A017B012115310579F4E881F981019010
:101CA000F081E02D642FDF91CF911F910F91FF9074
:101CB000EF90DF90CF9009942A303105E9F477FF57
:101CC0001AC06DE20E94C90D8C0144275527BA0144
:101CD0004C195D096E097F092AE0CE010E94E60DCC
:101CE000800F911FDF91CF911F910F91FF90EF9087
:101CF000DF90CF9008952AE0B701A601CE01DF91D1
:101D0000CF911F910F91FF90EF90DF90CF900C94A7
:101D1000E60D9A01AB01662757FD6095762F0C946E
:101D20003F0E4F925F926F927F928F929F92AF92EF
:101D3000BF92CF92DF92EF92FF920F931F93CF93B8
:101D4000DF93EC016A017B01B22E9A01AB01C7015E
:101D5000B6010E94AC11882319F06FED71E027C025
:101D600026013701E89477F82FEF3FEF4FE75FE761
:101D7000C301B2010E94AC1181110DC02FEF3FEFE2
:101D80004FE75FE7C301B2010E94F60F18161CF47B
:101D900063EE71E00CC02FEF3FEF4FE75FE4C70148
:101DA000B6010E9445111816ACF467EE71E0CE0141
:101DB000DF91CF911F910F91FF90EF90DF90CF9027
:101DC000BF90AF909F908F907F906F905F904F905B
:101DD0000C94B10D2FEF3FEF4FE75FECC701B60159
:101DE0000E94F60F87FDE1CF20E030E0A901C70196
:101DF000B6010E94F60F87FF0AC06DE2CE010E9475
:101E0000C90D8C01F7FAF094F7F8F09402C000E0E5
:101E100010E0A12C60E070E080E09FE3AB1441F0A3
:101E200020E030E040E251E40E94FA0FA394F6CFA4
:101E30009B01AC01C701B6010E94920F6B017C01AE
:101E40000E9467102B013C010E9493109B01AC0182
:101E5000C701B6010E94910F6B017C012AE0B3011A
:101E6000A201CE010E94E60D080F191FBB2039F018
:101E700067E471E0CE010E94B10D080F191F7B2CA1
:101E8000772041F120E030E040E251E4C701B601A3
:101E90000E9449116B017C010E9462104B01AA242F
:101EA00097FCA094BA2C2AE030E0B501A401CE0141
:101EB0000E943F0E080F191FC501B4010E94951022
:101EC0009B01AC01C701B6010E94910F6B017C011F
:101ED0007A94D6CFC801DF91CF911F910F91FF90D7
:101EE000EF90DF90CF90BF90AF909F908F907F90BA
:101EF0006F905F904F9008950C94910E0F931F93E5
:101F0000CF93DF93EC010E94910E8C01CE010E94D1
:101F1000D00D800F911FDF91CF911F910F910895E8
:101F200008955058BB27AA270ED075C166D130F04E
:101F30006BD120F031F49F3F11F41EF45BC10EF41D
:101F4000E095E7FB51C1E92F77D180F3BA1762071B
:101F500073078407950718F071F49EF58FC10EF48E
:101F6000E0950B2EBA2FA02D0B01B90190010C01A9
:101F7000CA01A0011124FF27591B99F0593F50F4C1
:101F8000503E68F11A16F040A22F232F342F442719
:101F9000585FF3CF469537952795A795F040539511
:101FA000C9F77EF41F16BA0B620B730B840BBAF0E1
:101FB0009150A1F0FF0FBB1F661F771F881FC2F74C
:101FC0000EC0BA0F621F731F841F48F48795779560
:101FD0006795B795F7959E3F08F0B3CF9395880F17
:101FE00008F09927EE0F979587950895D9D008F4B2
:101FF00081E008950CD00FC107D140F0FED030F041
:1020000021F45F3F19F0F0C0511139C1F3C014D170
:1020100098F39923C9F35523B1F3951B550BBB27AF
:10202000AA2762177307840738F09F5F5F4F220F5C
:10203000331F441FAA1FA9F333D00E2E3AF0E0E855
:1020400030D091505040E695001CCAF729D0FE2FA1
:1020500027D0660F771F881FBB1F26173707480733
:10206000AB07B0E809F0BB0B802DBF01FF279358E9
:102070005F4F2AF09E3F510568F0B6C000C15F3F38
:10208000ECF3983EDCF3869577956795B795F795D1
:102090009F5FC9F7880F911D9695879597F90895C9
:1020A000E1E0660F771F881FBB1F62177307840765
:1020B000BA0720F0621B730B840BBA0BEE1F88F774
:1020C000E095089504D06894B111D9C00895BCD0AA
:1020D00088F09F5790F0B92F9927B751A0F0D1F011
:1020E000660F771F881F991F1AF0BA95C9F712C09B
:1020F000B13081F0C3D0B1E00895C0C0672F782F10
:102100008827B85F39F0B93FCCF386957795679506
:10211000B395D9F73EF490958095709561957F4F72
:102120008F4F9F4F0895E89409C097FB3EF4909518
:102130008095709561957F4F8F4F9F4F9923A9F0A0
:10214000F92F96E9BB279395F6958795779567952F
:10215000B795F111F8CFFAF4BB0F11F460FF1BC073
:102160006F5F7F4F8F4F9F4F16C0882311F096E906
:1021700011C0772321F09EE8872F762F05C06623B4
:1021800071F096E8862F70E060E02AF09A95660F6D
:10219000771F881FDAF7880F9695879597F9089526
:1021A000990F0008550FAA0BE0E8FEEF1616170668
:1021B000E807F907C0F012161306E407F50798F0D0
:1021C000621B730B840B950B39F40A2661F0232BE9
:1021D000242B252B21F408950A2609F4A140A69565
:1021E0008FEF811D811D089597F99F6780E870E04A
:1021F00060E008959FEF80EC089500240A9416167D
:10220000170618060906089500240A9412161306E4
:10221000140605060895092E0394000C11F4882372
:1022200052F0BB0F40F4BF2B11F460FF04C06F5F8E
:102230007F4F8F4F9F4F089557FD9058440F551F64
:1022400059F05F3F71F04795880F97FB991F61F038
:102250009F3F79F087950895121613061406551FAF
:10226000F2CF4695F1DF08C0161617061806991F1B
:10227000F1CF86957105610508940895E894BB2710
:1022800066277727CB0197F908958ADF08F48FEF47
:1022900008950BD0C0CFB1DF28F0B6DF18F095233A
:1022A00009F0A2CFA7CF1124EACFC6DFA0F3959FF4
:1022B000D1F3950F50E0551F629FF001729FBB272D
:1022C000F00DB11D639FAA27F00DB11DAA1F649FD9
:1022D0006627B00DA11D661F829F2227B00DA11D8C
:1022E000621F739FB00DA11D621F839FA00D611D12
:1022F000221F749F3327A00D611D231F849F600D33
:10230000211D822F762F6A2F11249F5750408AF06B
:10231000E1F088234AF0EE0FFF1FBB1F661F771FF7
:10232000881F91505040A9F79E3F510570F05CCF37
:10233000A6CF5F3FECF3983EDCF3869577956795E3
:10234000B795F795E7959F5FC1F7FE2B880F911D15
:102350009695879597F9089523DF880B990B089533
:1023600097FB072E16F4009407D077FD09D00E9442
:10237000EC1107FC05D03EF4909581959F4F089590
:10238000709561957F4F0895A1E21A2EAA1BBB1B81
:10239000FD010DC0AA1FBB1FEE1FFF1FA217B30731
:1023A000E407F50720F0A21BB30BE40BF50B661F47
:1023B000771F881F991F1A9469F76095709580950B
:1023C00090959B01AC01BD01CF010895EE0FFF1F59
:1023D0000590F491E02D0994AA1BBB1B51E107C0A5
:1023E000AA1FBB1FA617B70710F0A61BB70B881FA5
:1023F000991F5A95A9F780959095BC01CD01089534
:04240000F894FFCF7E
:10240400083F0E0AD72340C0000149522053656E8D
:10241400736F722052656164696E67733A20006459
:102424007269766544697374616E63652829200056
:1024340020696E636865732061742000206C656692
:102444007420706F7765722E00207269676874203B
:10245400706F7765722E0009004D6F766520666F88
:10246400727761726420616E20696E636800476FE1
:10247400205374726169676874005475726E2073B6
:102484006C696768746C79206C6566740054757245
:102494006E20736C6967687420726967687400548D
:1024A40075726E20524947485400646563696469D3
:1024B4006E67206C656674006465636964696E6741
:1024C4002072696768740053544F50000000000084
:1024D4000D0C890D8F0BA80B9A0BEB0B0D0A006EDC
:0C24E400616E00696E66006F7666000095
:00000001FF
