:100000000C946F000C9497000C9497000C94B5011D
:100010000C94F0020C944A030C9497000C949700F3
:100020000C9497000C9497000C9497000C949700F4
:100030000C9497000C9497000C9497000C949700E4
:100040000C9466080C9497000C949B0B0C94CD0BAD
:100050000C9497000C9497000C9497000C949700C4
:100060000C9497000C949700DE03210421042104D2
:1000700021042104F00300041004210421047C0362
:100080008C039E03AE03BE03CE03000000080002F3
:10009000010000030407000000000000000001024E
:1000A0000408102040800102040810200102040806
:1000B00010200404040404040404020202020202E4
:1000C00003030303030300000000250028002B00A6
:1000D00000000000240027002A003108FD0B112435
:1000E0001FBECFEFD8E0DEBFCDBF11E0A0E0B1E092
:1000F000E2E9F1E202C005900D92A639B107D9F705
:1001000022E0A6E9B1E001C01D92AA3DB207E1F7E5
:1001100010E0CEEDD0E004C02297FE010E94AF10A7
:10012000CA3DD107C9F70E94410C0C94C7100C942A
:100130000000CF92DF92EF92FF92E82FF0E0DF0114
:10014000A856BE4F8C918230F9F078F4813009F0D6
:1001500052C0EE0FFF1FEF54FE4F0190F081E02DD3
:10016000FF90EF90DF90CF900994833021F184309D
:1001700009F041C08091960190919701FF90EF9016
:10018000DF90CF900C947C05C090A901D090AA017B
:10019000E090AB01F090AC010E94BC0822E3C20EDB
:1001A000D11CE11CF11CC616D706E806F90618F5A5
:1001B00060E070E016C0C090AD01D090AE01E0905C
:1001C000AF01F090B0010E94BC0822E3C20ED11C26
:1001D000E11CF11CC616D706E806F90660F461E0DA
:1001E00070E08091C5019091C601FF90EF90DF9083
:1001F000CF900C945D04FF90EF90DF90CF90089526
:10020000CF93C82F8091020181FF02C0C1FF46C079
:100210008091020181FD2CC0C1FF2AC080919F0105
:10022000823051F40E94BC086093A9017093AA0126
:100230008093AB019093AC0180919F01833051F486
:100240000E94BC086093AD017093AE018093AF0132
:100250009093B00180919F01813051F40E94B008C9
:100260006093A5017093A6018093A7019093A801C4
:100270008091020182FF16C0C2FD14C088E00E9476
:1002800099008091020183FF3EC0C3FD3CC089E01C
:100290000E949900C0930201CF91089587E00E94C7
:1002A0009900E6CF8091020182FDEBCFC2FFE9CF3A
:1002B0008091A001823051F40E94BC086093A90192
:1002C0007093AA018093AB019093AC018091A0013F
:1002D000833051F40E94BC086093AD017093AE016D
:1002E0008093AF019093B0018091A001813049F6D5
:1002F0000E94B0086093A5017093A6018093A701A6
:100300009093A801BECF8091020182FDC3CFC2FFAE
:10031000C1CF8091A101823051F40E94BC0860934A
:10032000A9017093AA018093AB019093AC018091D5
:10033000A101833051F40E94BC086093AD01709319
:10034000AE018093AF019093B0018091A101813003
:1003500009F0A0CF0E94B0086093A5017093A60198
:100360008093A7019093A80195CF1F920F920FB68B
:100370000F9211242F933F934F935F936F937F932B
:100380008F939F93AF93BF93EF93FF9393B180911C
:10039000A40189230E940001FF91EF91BF91AF91C9
:1003A0009F918F917F916F915F914F913F912F918D
:1003B0000F900FBE0F901F901895CF93C82F80916C
:1003C000010180FF02C0C0FF53C08091010180FD88
:1003D0001EC0C0FF1CC080919801823051F40E9461
:1003E000B0086093A9017093AA018093AB01909328
:1003F000AC0180919801833051F40E94B008609361
:10040000AD017093AE018093AF019093B0018091E4
:10041000010181FF31C0C1FD2FC081E00E94990020
:100420008091010182FF4CC0C2FD4AC082E00E945F
:1004300099008091010183FF67C0C3FD65C083E01F
:100440000E9499008091010184FF82C0C4FD80C098
:1004500084E00E9499008091010185FF9DC0C5FD47
:100460009BC085E00E949900C0930101CF9108953F
:1004700080E00E949900CBCF8091010181FDD0CF17
:10048000C1FFCECF80919901823051F40E94B00813
:100490006093A9017093AA018093AB019093AC0182
:1004A00080919901833009F0BBCF0E94B00860931E
:1004B000AD017093AE018093AF019093B001B0CFC6
:1004C0008091010182FDB5CFC2FFB3CF80919A0127
:1004D000823051F40E94B0086093A9017093AA0180
:1004E0008093AB019093AC0180919A01833009F025
:1004F000A0CF0E94B0086093AD017093AE018093CD
:10050000AF019093B00195CF8091010183FD9ACF07
:10051000C3FF98CF80919B01823051F40E94B008B4
:100520006093A9017093AA018093AB019093AC01F1
:1005300080919B01833009F085CF0E94B0086093C1
:10054000AD017093AE018093AF019093B0017ACF6B
:100550008091010184FD7FCFC4FF7DCF80919C01FC
:10056000823051F40E94B0086093A9017093AA01EF
:100570008093AB019093AC0180919C01833009F092
:100580006ACF0E94B0086093AD017093AE01809372
:10059000AF019093B0015FCF8091010185FD64CFE1
:1005A000C5FF62CF80919D01823051F40E94B00856
:1005B0006093A9017093AA018093AB019093AC0161
:1005C00080919D01833009F04FCF0E94B008609365
:1005D000AD017093AE018093AF019093B00144CF11
:1005E0001F920F920FB60F9211242F933F934F93A8
:1005F0005F936F937F938F939F93AF93BF93EF938B
:10060000FF9396B18091A30189230E94DD01FF91A0
:10061000EF91BF91AF919F918F917F916F915F917A
:100620004F913F912F910F900FBE0F901F901895F3
:10063000CF93C82F8091000183FF02C0C3FF26C063
:100640008091000183FD1EC0C3FF1CC080919E01EC
:10065000823051F40E94B0086093A9017093AA01FE
:100660008093AB019093AC0180919E01833051F453
:100670000E94B0086093AD017093AE018093AF010A
:100680009093B001C0930001CF91089586E00E943D
:100690009900F8CF1F920F920FB60F9211242F934B
:1006A0003F934F935F936F937F938F939F93AF93FA
:1006B000BF93EF93FF9399B18091A20189230E9488
:1006C0001803FF91EF91BF91AF919F918F917F910F
:1006D0006F915F914F913F912F910F900FBE0F90AF
:1006E0001F90189503978131910508F0AAC08C5C82
:1006F0009F4FFC010C94AD1080916C008160809341
:100700006C0080916800826080936800609398011B
:100710008091A30181600FC080916C008260809302
:100720006C008091680082608093680060939901FA
:100730008091A30182608093A301089580916C0051
:10074000846080936C008091680082608093680070
:1007500060939A018091A3018460EDCF80916C0039
:10076000886080936C00809168008260809368004C
:1007700060939B018091A3018860DDCF80916C0024
:10078000806180936C008091680082608093680033
:1007900060939C018091A3018061CDCF80916C001A
:1007A000806280936C008091680082608093680012
:1007B00060939D018091A3018062BDCF80916D0007
:1007C000886080936D0080916800846080936800E9
:1007D00060939E018091A20188608093A201089598
:1007E00080916B00826080936B00809168008160D3
:1007F0008093680060939F018091A40182601FC074
:1008000080916B00846080936B00809168008160B0
:10081000809368006093A0018091A40184600FC060
:1008200080916B00886080936B008091680081608C
:10083000809368006093A1018091A40188608093F7
:10084000A4010895EF92FF920F931F93CF93DF932C
:1008500000D0CDB7DEB77C01062F142F62E0802FC9
:100860005A8379830E94E70962E0812F0E94E70999
:1008700062E0802F7981972F0E94720363E0812FBD
:100880005A81952F0E947203F70110821182128201
:1008900013821482158216821782F092C601E092AA
:1008A000C50181E0808781870F900F90DF91CF9104
:1008B0001F910F91FF90EF9008950F931F93FC01EC
:1008C00061157105B1F06130710529F501851127B8
:1008D00007FD1095212F312F448155816681778145
:1008E000400F511F621F731F4483558366837783B4
:1008F00012C00085112707FD1095212F312F40814F
:10090000518162817381400F511F621F731F4083A9
:100910005183628373831F910F910895FC016130AD
:10092000710571F06230710539F0672B69F410823E
:100930001182128213820895108211821282138210
:10094000148215821682178208956115710549F087
:100950006130710561F4FC01648175818681978144
:100960000895FC016081718182819381089560E026
:1009700070E0CB01089561E087E00E94E70961E043
:1009800088E00E94E70961E082E00E94E70961E0F7
:1009900084E00C94E70961E082E00E94200A61E0B3
:1009A00084E00E94200A60E070E085E00C945F091A
:1009B00061E087E00E94200A61E088E00E94200A4E
:1009C00060E070E086E00C945F09CF93DF93EC0168
:1009D0000E94CB04CE01DF91CF910C94D804CF9329
:1009E000C62F61E082E00E94200A60E084E00E945D
:1009F000200A6C2F70E085E00E945F09E091C5013C
:100A0000F091C601309711F081E08087CF91089571
:100A1000CF93C62F60E082E00E94200A61E084E06C
:100A20000E94200A6C2F70E085E00E945F09E0912F
:100A3000C501F091C601309711F08FEF8087CF91FB
:100A400008951616170614F40C940805719561950F
:100A500071090C94EF04CF93C62F61E087E00E94E8
:100A6000200A60E088E00E94200A6C2F70E086E097
:100A70000E945F09E091C501F091C601309711F025
:100A800081E08187CF910895CF93C62F60E087E002
:100A90000E94200A61E088E00E94200A6C2F70E02A
:100AA00086E00E945F09E091C501F091C601309790
:100AB00011F08FEF8187CF9108951616170614F461
:100AC0000C942B057195619571090C944405FC01FA
:100AD000718360838FEF9FEF9383828395838483F9
:100AE0000895FC0180810C94420920E001972FEFCA
:100AF0008F3F9207D9F70895EF92FF920F931F93BC
:100B0000CF93DF93EC018B899C890E94750508E0E7
:100B100010E0EE24E394F12C8D899E890E947505E6
:100B2000EE85FF8580819D85892311F0FE2803C015
:100B30008E2D8095F822EE0C0150110969F78F89EE
:100B4000988D0E9475058091C8012091C70190E0A1
:100B500001968F73992730E08217930779F0E0911F
:100B6000C801F0E0E753FE4FF0828091C80190E0A9
:100B700001968F7399278093C80103C08B8D816084
:100B80008B8FDF91CF911F910F91FF90EF90089580
:100B900026E040E855E260E070E08DE392E00E94DC
:100BA000390B60ED77E080E090E00E94DF086AE0BA
:100BB00071E08DE392E00E949B0C64EF71E080E0B5
:100BC00090E00C94DF080F931F93CF93DF93C5E061
:100BD000D0E088E292E00E947105080F191F21976A
:100BE000C1F7C80165E070E00E947710CB017093F7
:100BF0000A0260930902DF91CF911F910F9108952E
:100C00000F931F93CF93DF93C5E0D0E082E292E091
:100C10000E947105080F191F2197C1F7C80165E0EF
:100C200070E00E947710CB0170930C0260930B026E
:100C3000DF91CF911F910F9108950F931F93CF9341
:100C4000DF93C5E0D0E08EE292E00E947105080FCC
:100C5000191F2197C1F7C80165E070E00E94771065
:100C6000CB0170930E0260930D02DF91CF911F9123
:100C70000F9108956F927F928F929F92AF92BF9241
:100C8000CF92DF92EF92FF920F931F93CF93DF9358
:100C90006B017C01EA0189016FE171E08DE392E073
:100CA0000E948E0C22E030E0B701A6018DE392E0B5
:100CB0000E94430E60E371E08DE392E00E948E0C8F
:100CC0004AE050E0BE018DE392E00E94500D6CE3DB
:100CD00071E08DE392E00E949B0C4AE050E0B80185
:100CE0008DE392E00E94500D69E471E08DE392E0A3
:100CF0000E949B0C20910F02309110024091110232
:100D000050911202C701B6010E94C10E6B017C0115
:100D100023E030E0AB01BC018DE392E00E94450E80
:100D200062E070E088E192E00E948E04BE0187E1FB
:100D300092E00E942105B80187E192E00E945D05E2
:100D4000612C712CD0E0C0E0B3018D2F9C2F97FF58
:100D500007C090958095709561957F4F8F4F9F4FFD
:100D60000E945C0F4B015C016091070170910801CA
:100D7000882777FD8095982F0E945C0F9B01AC011E
:100D8000C701B6010E9410109B01AC01C501B4015E
:100D90000E94BD0E87FF47C060E070E088E192E0EE
:100DA0000E94A5043B01D82FC92F61E070E088E1C3
:100DB00092E00E94A5044B015C012AE030E0A3010F
:100DC0006D2F7C2F8DE392E00E94060D67E571E0A8
:100DD0008DE392E00E948E0C2AE030E0B501A40180
:100DE0008DE392E00E94060D67E571E08DE392E0ED
:100DF0000E948E0C6091070170910801882777FD91
:100E00008095982F0E945C0F9B01AC01C701B60131
:100E10000E941010AB01BC0122E030E08DE392E0B3
:100E20000E94450E91CF87E192E0DF91CF911F9113
:100E30000F91FF90EF90DF90CF90BF90AF909F9079
:100E40008F907F906F900C94E5040F931F93CF9336
:100E5000DF938EE292E00E9471054AE050E0BC010F
:100E60008DE392E00E94500D67E571E08DE392E022
:100E70000E948E0C88E292E00E9471054AE050E0E8
:100E8000BC018DE392E00E94500D67E571E08DE3B7
:100E900092E00E948E0C82E292E00E9471054AE08C
:100EA00050E0BC018DE392E00E94500D8DE392E092
:100EB0000E94970C0E94E3058D3B924064F084EC05
:100EC0009FEF90931602809315028CE390E090932D
:100ED0001402809313020E9400068D3B924064F03E
:100EE00082E99FEF90931602809315028AE090E0CA
:100EF00090931402809313020E941D068D3B924032
:100F000064F086EF9FEF90931602809315028EE6B1
:100F100090E090931402809313020E941D068D3B73
:100F20009240ECF00E94E3058D3B9240C4F00E9499
:100F300000068D3B92409CF000EB1FEFC4ECDFEF0E
:100F40000E941D068D3B924054F00E94E3058D3BAC
:100F500092402CF00E9400068D3B924084F40E9447
:100F60001D068C3B924044F50E94E3058C3B924069
:100F70001CF50E9400068C3B9240BCF11DC069E547
:100F800071E08DE392E00E949B0C10931602009397
:100F90001502D0931402C093130260EB7FEF87E138
:100FA00092E00E942105609113027091140287E182
:100FB00092E00E945D05C4CF609115027091160207
:100FC00087E192E00E942105609113027091140262
:100FD00087E192E00E945D0560E070E0CB01DF9167
:100FE000CF911F910F910C94DF082CE330E044EC7B
:100FF0005FEF60E070E080E89FE30E943A060E94A5
:101000001D068C3B924044F70E94E3058C3B9240C6
:101010001CF70E9400068C3B9240F4F682E99FEF99
:1010200090931602809315029093140280931302FA
:1010300062E97FEF87E192E00E942105609113024F
:101040007091140287E192E00E945D0568EE73E002
:1010500080E090E00E94DF0887E192E00E94E504D2
:10106000BBCF61E170E08EE292E00E94670564E12F
:1010700070E088E292E00E94670565E170E082E23C
:1010800092E00E9467054AE050E060E170E088E18C
:1010900092E00E94220487E192E00E94BB042BEDC3
:1010A0003FE049E450E460910301709104018091B4
:1010B0000501909106010E94101060930F02709339
:1010C0001002809311029093120208951F920F92C2
:1010D0000FB60F9211242F933F938F939F93AF934B
:1010E000BF938091350290913602A0913702B09162
:1010F00038023091340223E0230F2D3720F401967B
:10110000A11DB11D05C026E8230F0296A11DB11D2A
:10111000209334028093350290933602A0933702D5
:10112000B09338028091390290913A02A0913B022B
:10113000B0913C020196A11DB11D8093390290939C
:101140003A02A0933B02B0933C02BF91AF919F91B2
:101150008F913F912F910F900FBE0F901F90189578
:101160002FB7F89460913502709136028091370262
:10117000909138022FBF08953FB7F89480913902BB
:1011800090913A02A0913B02B0913C0226B5A89BF7
:1011900005C02F3F19F00196A11DB11D3FBF662765
:1011A000782F892F9A2F620F711D811D911D42E0AA
:1011B000660F771F881F991F4A95D1F70895CF9220
:1011C000DF92EF92FF92CF93DF936B017C010E943D
:1011D000BC08EB01C114D104E104F10489F00E94C0
:1011E000570E0E94BC086C1B7D0B683E734090F349
:1011F00081E0C81AD108E108F108C851DC4FEACFF4
:10120000DF91CF91FF90EF90DF90CF900895789489
:1012100084B5826084BD84B5816084BD85B58260FB
:1012200085BD85B5816085BDEEE6F0E08081816099
:101230008083E1E8F0E01082808182608083808199
:1012400081608083E0E8F0E0808181608083E1EB71
:10125000F0E0808184608083E0EBF0E08081816059
:101260008083EAE7F0E0808184608083808182600F
:1012700080838081816080838081806880831092F8
:10128000C10008958E3008F08E50877020910901BA
:1012900090E4299F90011124822B80937C008091FF
:1012A0007A00806480937A0080917A0086FDFCCF7A
:1012B000809178002091790090E0922B08951F93FF
:1012C000CF93DF93182FEB0161E00E94E70920978D
:1012D00011F460E004C0CF3FD10539F461E0812F03
:1012E000DF91CF911F910C94200AE12FF0E0E65797
:1012F000FF4FE491E330F9F048F4E130B9F0E23027
:10130000A1F584B5806284BDC8BD34C0E730E9F082
:10131000E83019F1E43049F58091800080628093D3
:101320008000D0938B00C0938A0024C084B580686D
:1013300084BDC7BD1FC080918000806880938000FD
:10134000D0938900C093880015C08091B000806858
:101350008093B000C093B3000DC08091B000806254
:101360008093B000C093B40005C0C038D1050CF024
:10137000B5CFAFCFDF91CF911F910895833081F02A
:1013800028F4813099F08230A1F008958730A9F0D7
:101390008830B9F08430D1F4809180008F7D03C013
:1013A000809180008F7780938000089584B58F7737
:1013B00002C084B58F7D84BD08958091B0008F7781
:1013C00003C08091B0008F7D8093B0000895CF93CB
:1013D000DF9390E0FC01E256FF4F2491FC01EE54B4
:1013E000FF4F8491882349F190E0880F991FFC01F9
:1013F000E053FF4FA591B4918A539F4FFC01C591D3
:10140000D4919FB7611108C0F8948C9120958223E4
:101410008C93888182230AC0623051F4F8948C91B5
:10142000322F309583238C938881822B888304C04C
:10143000F8948C91822B8C939FBFDF91CF9108956C
:101440000F931F93CF93DF931F92CDB7DEB7282F53
:1014500030E0F901E657FF4F8491F901E256FF4F62
:101460001491F901EE54FF4F04910023C9F0882331
:1014700021F069830E94BE096981E02FF0E0EE0F40
:10148000FF1FEA53FF4FA591B4919FB7F8948C9139
:10149000611103C01095812301C0812B8C939FBFE4
:1014A0000F90DF91CF911F910F910895FC01818DD5
:1014B000228D90E0805C9F4F821B91098F7399274A
:1014C0000895FC01918D828D981731F0828DE80F7F
:1014D000F11D858D90E008958FEF9FEF0895FC0139
:1014E000918D828D981761F0828DDF01A80FB11D5B
:1014F0005D968C91928D9F5F9F73928F90E008957F
:101500008FEF9FEF089583EF9BE0892B49F080E0F8
:1015100090E0892B29F00E94F30B81110C940000BC
:101520000895FC01848DDF01A80FB11DA35ABF4FA0
:101530002C91848D90E001968F739927848FA689D2
:10154000B7892C93A089B1898C9180648C93938DF9
:10155000848D981306C00288F389E02D80818F7DE9
:1015600080830895CF93DF93EC01888D8823C9F0A1
:10157000EA89FB89808185FD05C0A889B9898C919C
:1015800086FD0FC00FB607FCF5CF808185FFF2CF37
:10159000A889B9898C9185FFEDCFCE010E94910A6F
:1015A000E7CFDF91CF910895CF92DF92FF920F9313
:1015B0001F93CF93DF931F92CDB7DEB76C0181E00D
:1015C000D60158968C9358975B969C915B975C9646
:1015D0008C915C97981307C05096ED91FC915197B0
:1015E000808185FD2EC0F601038D10E00F5F1F4F37
:1015F0000F731127F02EF601848DF81211C00FB66B
:1016000007FCF9CFD6015096ED91FC91519780815E
:1016100085FFF1CFC60169830E94910A6981EBCFF2
:10162000838DE80FF11DE35AFF4F6083D6015B966F
:101630000C935B975296ED91FC9153978081806259
:101640000CC0D6015696ED91FC9157976083509649
:10165000ED91FC91519780818064808381E090E0DE
:101660000F90DF91CF911F910F91FF90DF90CF905E
:101670000895BF92CF92DF92EF92FF92CF93DF93C4
:10168000EC016A017B01B22EE889F98982E080834E
:10169000411581EE580761057105A1F060E079E020
:1016A0008DE390E0A70196010E948B102150310933
:1016B000410951095695479537952795211580E1A0
:1016C000380798F0E889F989108260E874E88EE1BB
:1016D00090E0A70196010E948B1021503109410929
:1016E00051095695479537952795EC85FD853083AB
:1016F000EE85FF852083188EEC89FD89B082EA890A
:10170000FB89808180618083EA89FB898081886090
:101710008083EA89FB89808180688083EA89FB89EC
:1017200080818F7D8083DF91CF91FF90EF90DF905C
:10173000CF90BF9008951F920F920FB60F92112471
:101740002F938F939F93EF93FF93E0914D02F0912E
:101750004E028081E0915302F091540282FD12C04A
:101760009081809156028F5F8F732091570282176C
:1017700051F0E0915602F0E0E35CFD4F958F8093CD
:10178000560201C08081FF91EF919F918F912F911F
:101790000F900FBE0F901F9018951F920F920FB6CB
:1017A0000F9211242F933F934F935F936F937F93E7
:1017B0008F939F93AF93BF93EF93FF938DE392E04B
:1017C0000E94910AFF91EF91BF91AF919F918F91EC
:1017D0007F916F915F914F913F912F910F900FBE2D
:1017E0000F901F9018958DE392E00E94560A21E019
:1017F000892B09F420E0822F089510924002109264
:101800003F0288EE93E0A0E0B0E080934102909325
:101810004202A0934302B09344028AE791E090937E
:101820003E0280933D0285EC90E090934A028093C3
:10183000490284EC90E090934C0280934B0280EC40
:1018400090E090934E0280934D0281EC90E0909353
:10185000500280934F0282EC90E09093520280936A
:10186000510286EC90E090935402809353021092C0
:10187000560210925702109258021092590208957F
:1018800008950E9407090E94400C0E94C805C3E801
:10189000DAE00E9425072097E1F30E94830AF9CF3E
:1018A000CF92DF92EF92FF920F931F93CF93DF932C
:1018B0006C017A01EB01E60EF71E00E010E0CE1598
:1018C000DF0561F06991D601ED91FC910190F08105
:1018D000E02DC6010995080F191FF1CFC801DF914E
:1018E000CF911F910F91FF90EF90DF90CF900895CF
:1018F0006115710581F0DB010D900020E9F7AD0164
:1019000041505109461B570BDC01ED91FC910280BF
:10191000F381E02D099480E090E008950C94780C18
:10192000DC01ED91FC910190F081E02D099466E8D5
:1019300071E00C94780C0F931F93CF93DF93EC011D
:101940000E94780C8C01CE010E94970C800F911F91
:10195000DF91CF911F910F9108958F929F92AF9237
:10196000BF92CF92DF92EF92FF920F931F93CF938C
:10197000DF93CDB7DEB7A1970FB6F894DEBF0FBEE9
:10198000CDBF7C01C42EE52FCB01D22E19A221E0C0
:101990002D1510F02AE0D22E8E010F5D1F4F8D2CD9
:1019A000912CA12CB12C6C2D7E2FA50194010E94AD
:1019B0008B108C2DD29E80191124015011098A3070
:1019C00014F4805D01C0895CF80180832115310524
:1019D0004105510521F0C22EE32FCA01E4CFB80121
:1019E000C7010E94780CA1960FB6F894DEBF0FBE17
:1019F000CDBFDF91CF911F910F91FF90EF90DF90BE
:101A0000CF90BF90AF909F908F900895CF92DF922C
:101A1000EF92FF920F931F93CF93DF93EC016A0134
:101A20007B012115310579F4E881F9810190F0817C
:101A3000E02D642FDF91CF911F910F91FF90EF90D8
:101A4000DF90CF9009942A303105E9F477FF1AC06E
:101A50006DE20E94900C8C0144275527BA014C1965
:101A60005D096E097F092AE0CE010E94AD0C800F4E
:101A7000911FDF91CF911F910F91FF90EF90DF9019
:101A8000CF9008952AE0B701A601CE01DF91CF9152
:101A90001F910F91FF90EF90DF90CF900C94AD0CC1
:101AA0009A01AB01662757FD6095762F0C94060DC1
:101AB0004F925F926F927F928F929F92AF92BF925E
:101AC000CF92DF92EF92FF920F931F93CF93DF930A
:101AD000EC016A017B01B22E9A01AB01C701B6018C
:101AE0000E947310882319F069E871E027C026016D
:101AF0003701E89477F82FEF3FEF4FE75FE7C30137
:101B0000B2010E94731081110DC02FEF3FEF4FE71C
:101B10005FE7C301B2010E94BD0E18161CF46DE808
:101B200071E00CC02FEF3FEF4FE75FE4C701B60154
:101B30000E940C101816ACF461E971E0CE01DF913F
:101B4000CF911F910F91FF90EF90DF90CF90BF90BA
:101B5000AF909F908F907F906F905F904F900C947C
:101B6000780C2FEF3FEF4FE75FECC701B6010E9403
:101B7000BD0E87FDE1CF20E030E0A901C701B6012D
:101B80000E94BD0E87FF0AC06DE2CE010E94900C3C
:101B90008C01F7FAF094F7F8F09402C000E010E03E
:101BA000A12C60E070E080E09FE3AB1441F020E006
:101BB00030E040E251E40E94C10EA394F6CF9B01B5
:101BC000AC01C701B6010E94590E6B017C010E9455
:101BD0002E0F2B013C010E945A0F9B01AC01C70143
:101BE000B6010E94580E6B017C012AE0B301A201EC
:101BF000CE010E94AD0C080F191FBB2039F067E41D
:101C000071E0CE010E94780C080F191F7B2C772001
:101C100041F120E030E040E251E4C701B6010E940A
:101C200010106B017C010E94290F4B01AA2497FC24
:101C3000A094BA2C2AE030E0B501A401CE010E94A4
:101C4000060D080F191FC501B4010E945C0F9B010E
:101C5000AC01C701B6010E94580E6B017C017A9459
:101C6000D6CFC801DF91CF911F910F91FF90EF90D8
:101C7000DF90CF90BF90AF909F908F907F906F90AC
:101C80005F904F9008950C94580D0F931F93CF932E
:101C9000DF93EC010E94580D8C01CE010E94970C3D
:101CA000800F911FDF91CF911F910F91089508959B
:101CB0005058BB27AA270ED075C166D130F06BD122
:101CC00020F031F49F3F11F41EF45BC10EF4E09557
:101CD000E7FB51C1E92F77D180F3BA176207730789
:101CE0008407950718F071F49EF58FC10EF4E09506
:101CF0000B2EBA2FA02D0B01B90190010C01CA01C6
:101D0000A0011124FF27591B99F0593F50F4503E70
:101D100068F11A16F040A22F232F342F4427585F62
:101D2000F3CF469537952795A795F0405395C9F77A
:101D30007EF41F16BA0B620B730B840BBAF0915032
:101D4000A1F0FF0FBB1F661F771F881FC2F70EC0D1
:101D5000BA0F621F731F841F48F4879577956795A4
:101D6000B795F7959E3F08F0B3CF9395880F08F08D
:101D70009927EE0F979587950895D9D008F481E0BB
:101D800008950CD00FC107D140F0FED030F021F4FF
:101D90005F3F19F0F0C0511139C1F3C014D198F36D
:101DA0009923C9F35523B1F3951B550BBB27AA27DC
:101DB00062177307840738F09F5F5F4F220F331F4E
:101DC000441FAA1FA9F333D00E2E3AF0E0E830D01A
:101DD00091505040E695001CCAF729D0FE2F27D01D
:101DE000660F771F881FBB1F261737074807AB07EB
:101DF000B0E809F0BB0B802DBF01FF2793585F4F60
:101E00002AF09E3F510568F0B6C000C15F3FECF379
:101E1000983EDCF3869577956795B795F7959F5F24
:101E2000C9F7880F911D9695879597F90895E1E078
:101E3000660F771F881FBB1F621773078407BA07D7
:101E400020F0621B730B840BBA0BEE1F88F7E09532
:101E5000089504D06894B111D9C00895BCD088F019
:101E60009F5790F0B92F9927B751A0F0D1F0660F86
:101E7000771F881F991F1AF0BA95C9F712C0B130A1
:101E800081F0C3D0B1E00895C0C0672F782F8827B4
:101E9000B85F39F0B93FCCF3869577956795B395E0
:101EA000D9F73EF490958095709561957F4F8F4F4F
:101EB0009F4F0895E89409C097FB3EF49095809554
:101EC000709561957F4F8F4F9F4F9923A9F0F92F00
:101ED00096E9BB279395F695879577956795B7957E
:101EE000F111F8CFFAF4BB0F11F460FF1BC06F5F64
:101EF0007F4F8F4F9F4F16C0882311F096E911C076
:101F0000772321F09EE8872F762F05C0662371F096
:101F100096E8862F70E060E02AF09A95660F771FAA
:101F2000881FDAF7880F9695879597F90895990F86
:101F30000008550FAA0BE0E8FEEF16161706E80793
:101F4000F907C0F012161306E407F50798F0621BB4
:101F5000730B840B950B39F40A2661F0232B242B89
:101F6000252B21F408950A2609F4A140A6958FEFA8
:101F7000811D811D089597F99F6780E870E060E0FA
:101F800008959FEF80EC089500240A941616170612
:101F900018060906089500240A941216130614065A
:101FA00005060895092E0394000C11F4882352F0BD
:101FB000BB0F40F4BF2B11F460FF04C06F5F7F4F75
:101FC0008F4F9F4F089557FD9058440F551F59F05C
:101FD0005F3F71F04795880F97FB991F61F09F3F16
:101FE00079F087950895121613061406551FF2CF3F
:101FF0004695F1DF08C0161617061806991FF1CF8F
:1020000086957105610508940895E894BB276627B5
:102010007727CB0197F908958ADF08F48FEF0895A9
:102020000BD0C0CFB1DF28F0B6DF18F0952309F050
:10203000A2CFA7CF1124EACFC6DFA0F3959FD1F39B
:10204000950F50E0551F629FF001729FBB27F00D66
:10205000B11D639FAA27F00DB11DAA1F649F6627BB
:10206000B00DA11D661F829F2227B00DA11D621F0A
:10207000739FB00DA11D621F839FA00D611D221FC4
:10208000749F3327A00D611D231F849F600D211DA8
:10209000822F762F6A2F11249F5750408AF0E1F04B
:1020A00088234AF0EE0FFF1FBB1F661F771F881F94
:1020B00091505040A9F79E3F510570F05CCFA6CFDC
:1020C0005F3FECF3983EDCF3869577956795B7957F
:1020D000F795E7959F5FC1F7FE2B880F911D9695A9
:1020E000879597F9089523DF880B990B089597FB3F
:1020F000072E16F4009407D077FD09D00E94B31084
:1021000007FC05D03EF4909581959F4F08957095FA
:1021100061957F4F0895A1E21A2EAA1BBB1BFD01FA
:102120000DC0AA1FBB1FEE1FFF1FA217B307E407B6
:10213000F50720F0A21BB30BE40BF50B661F771F0E
:10214000881F991F1A9469F76095709580959095EE
:102150009B01AC01BD01CF010895EE0FFF1F05905B
:10216000F491E02D0994AA1BBB1B51E107C0AA1FE3
:10217000BB1FA617B70710F0A61BB70B881F991F28
:102180005A95A9F780959095BC01CD010895F894D2
:02219000FFCF7F
:10219200083F0E0AD72340C0000149522053656E02
:1021A200736F722052656164696E67733A200064CE
:1021B2007269766544697374616E636528292000CB
:1021C20020696E636865732061742000206C656607
:1021D2007420706F7765722E0020726967687420B0
:1021E200706F7765722E0009006C6F6F70696E6791
:1021F200004D6F766520666F727761726420616E42
:1022020020696E63680000000000D40A500C560A70
:102212006F0A610AB20A0D0A006E616E00696E668B
:06222200006F766600006B
:00000001FF
