:100000000C946F000C9497000C9497000C94B5011D
:100010000C94F0020C944A030C9497000C949700F3
:100020000C9497000C9497000C9497000C949700F4
:100030000C9497000C9497000C9497000C949700E4
:100040000C94E4080C9497000C94190C0C944B0C31
:100050000C9497000C9497000C9497000C949700C4
:100060000C9497000C949700DE03210421042104D2
:1000700021042104F00300041004210421047C0362
:100080008C039E03AE03BE03CE03000000080002F3
:10009000010000030407000000000000000001024E
:1000A0000408102040800102040810200102040806
:1000B00010200404040404040404020202020202E4
:1000C00003030303030300000000250028002B00A6
:1000D00000000000240027002A00A3087B0C112444
:1000E0001FBECFEFD8E0DEBFCDBF11E0A0E0B1E092
:1000F000EEE8F2E202C005900D92AE3BB107D9F7EF
:1001000023E0AEEBB1E001C01D92A231B207E1F7EE
:1001100010E0CEEDD0E004C02297FE010E942D1128
:10012000CA3DD107C9F70E94BF0C0C9445110C942D
:100130000000CF92DF92EF92FF92E82FF0E0DF0114
:10014000A054BE4F8C918230F9F078F4813009F0E0
:1001500052C0EE0FFF1FE752FE4F0190F081E02DDD
:10016000FF90EF90DF90CF900994833021F184309D
:1001700009F041C08091BE019091BF01FF90EF90C6
:10018000DF90CF900C947C05C090D101D090D2012B
:10019000E090D301F090D4010E943A0922E3C20E0C
:1001A000D11CE11CF11CC616D706E806F90618F5A5
:1001B00060E070E016C0C090D501D090D601E0900C
:1001C000D701F090D8010E943A0922E3C20ED11C57
:1001D000E11CF11CC616D706E806F90660F461E0DA
:1001E00070E08091ED019091EE01FF90EF90DF9033
:1001F000CF900C945D04FF90EF90DF90CF90089526
:10020000CF93C82F8091020181FF02C0C1FF46C079
:100210008091020181FD2CC0C1FF2AC08091C701DD
:10022000823051F40E943A096093D1017093D20157
:100230008093D3019093D4018091C701833051F40E
:100240000E943A096093D5017093D6018093D7013B
:100250009093D8018091C701813051F40E942E09FA
:100260006093CD017093CE018093CF019093D00124
:100270008091020182FF16C0C2FD14C088E00E9476
:1002800099008091020183FF3EC0C3FD3CC089E01C
:100290000E949900C0930201CF91089587E00E94C7
:1002A0009900E6CF8091020182FDEBCFC2FFE9CF3A
:1002B0008091C801823051F40E943A096093D101C3
:1002C0007093D2018093D3019093D4018091C8019F
:1002D000833051F40E943A096093D5017093D6019E
:1002E0008093D7019093D8018091C801813049F65D
:1002F0000E942E096093CD017093CE018093CF01AF
:100300009093D001BECF8091020182FDC3CFC2FF86
:10031000C1CF8091C901823051F40E943A096093A3
:10032000D1017093D2018093D3019093D401809135
:10033000C901833051F40E943A096093D50170934A
:10034000D6018093D7019093D8018091C901813063
:1003500009F0A0CF0E942E096093CD017093CE01C9
:100360008093CF019093D00195CF1F920F920FB63B
:100370000F9211242F933F934F935F936F937F932B
:100380008F939F93AF93BF93EF93FF9393B180911C
:10039000CC0189230E940001FF91EF91BF91AF91A1
:1003A0009F918F917F916F915F914F913F912F918D
:1003B0000F900FBE0F901F901895CF93C82F80916C
:1003C000010180FF02C0C0FF53C08091010180FD88
:1003D0001EC0C0FF1CC08091C001823051F40E9439
:1003E0002E096093D1017093D2018093D301909331
:1003F000D4018091C001833051F40E942E09609392
:10040000D5017093D6018093D7019093D801809144
:10041000010181FF31C0C1FD2FC081E00E94990020
:100420008091010182FF4CC0C2FD4AC082E00E945F
:1004300099008091010183FF67C0C3FD65C083E01F
:100440000E9499008091010184FF82C0C4FD80C098
:1004500084E00E9499008091010185FF9DC0C5FD47
:100460009BC085E00E949900C0930101CF9108953F
:1004700080E00E949900CBCF8091010181FDD0CF17
:10048000C1FFCECF8091C101823051F40E942E096C
:100490006093D1017093D2018093D3019093D401E2
:1004A0008091C101833009F0BBCF0E942E09609377
:1004B000D5017093D6018093D7019093D801B0CF26
:1004C0008091010182FDB5CFC2FFB3CF8091C201FF
:1004D000823051F40E942E096093D1017093D201B1
:1004E0008093D3019093D4018091C201833009F0AD
:1004F000A0CF0E942E096093D5017093D6018093FE
:10050000D7019093D80195CF8091010183FD9ACFB7
:10051000C3FF98CF8091C301823051F40E942E090D
:100520006093D1017093D2018093D3019093D40151
:100530008091C301833009F085CF0E942E0960931A
:10054000D5017093D6018093D7019093D8017ACFCB
:100550008091010184FD7FCFC4FF7DCF8091C401D4
:10056000823051F40E942E096093D1017093D20120
:100570008093D3019093D4018091C401833009F01A
:100580006ACF0E942E096093D5017093D6018093A3
:10059000D7019093D8015FCF8091010185FD64CF91
:1005A000C5FF62CF8091C501823051F40E942E09AF
:1005B0006093D1017093D2018093D3019093D401C1
:1005C0008091C501833009F04FCF0E942E096093BE
:1005D000D5017093D6018093D7019093D80144CF71
:1005E0001F920F920FB60F9211242F933F934F93A8
:1005F0005F936F937F938F939F93AF93BF93EF938B
:10060000FF9396B18091CB0189230E94DD01FF9178
:10061000EF91BF91AF919F918F917F916F915F917A
:100620004F913F912F910F900FBE0F901F901895F3
:10063000CF93C82F8091000183FF02C0C3FF26C063
:100640008091000183FD1EC0C3FF1CC08091C601C4
:10065000823051F40E942E096093D1017093D2012F
:100660008093D3019093D4018091C601833051F4DB
:100670000E942E096093D5017093D6018093D70113
:100680009093D801C0930001CF91089586E00E9415
:100690009900F8CF1F920F920FB60F9211242F934B
:1006A0003F934F935F936F937F938F939F93AF93FA
:1006B000BF93EF93FF9399B18091CA0189230E9460
:1006C0001803FF91EF91BF91AF919F918F917F910F
:1006D0006F915F914F913F912F910F900FBE0F90AF
:1006E0001F90189503978131910508F0AAC08C5C82
:1006F0009F4FFC010C942B1180916C0081608093C2
:100700006C00809168008260809368006093C001F3
:100710008091CB0181600FC080916C0082608093DA
:100720006C00809168008260809368006093C101D2
:100730008091CB0182608093CB01089580916C0001
:10074000846080936C008091680082608093680070
:100750006093C2018091CB018460EDCF80916C00E9
:10076000886080936C00809168008260809368004C
:100770006093C3018091CB018860DDCF80916C00D4
:10078000806180936C008091680082608093680033
:100790006093C4018091CB018061CDCF80916C00CA
:1007A000806280936C008091680082608093680012
:1007B0006093C5018091CB018062BDCF80916D00B7
:1007C000886080936D0080916800846080936800E9
:1007D0006093C6018091CA0188608093CA01089520
:1007E00080916B00826080936B00809168008160D3
:1007F000809368006093C7018091CC0182601FC024
:1008000080916B00846080936B00809168008160B0
:10081000809368006093C8018091CC0184600FC010
:1008200080916B00886080936B008091680081608C
:10083000809368006093C9018091CC0188608093A7
:10084000CC010895EF92FF920F931F93CF93DF9304
:1008500000D0CDB7DEB77C01062F142F62E0802FC9
:100860005A8379830E94650A62E0812F0E94650A9B
:1008700062E0802F7981972F0E94720363E0812FBD
:100880005A81952F0E947203F70110821182128201
:1008900013821482158216821782F092EE01E09282
:1008A000ED0181E0808781870F900F90DF91CF91DC
:1008B0001F910F91FF90EF9008950F931F93FC01EC
:1008C00061157105B1F06130710529F501851127B8
:1008D00007FD1095212F312F448155816681778145
:1008E000400F511F621F731F4483558366837783B4
:1008F00012C00085112707FD1095212F312F40814F
:10090000518162817381400F511F621F731F4083A9
:100910005183628373831F910F910895FC016130AD
:10092000710571F06230710539F0672B69F410823E
:100930001182128213820895108211821282138210
:10094000148215821682178208956115710549F087
:100950006130710561F4FC01648175818681978144
:100960000895FC016081718182819381089560E026
:1009700070E0CB01089561E087E00E94650A61E0C4
:1009800088E00E94650A61E082E00E94650A61E0F9
:1009900084E00C94650A61E082E00E949E0A61E0B6
:1009A00084E00E949E0A60E070E085E00C94DD091E
:1009B00061E087E00E949E0A61E088E00E949E0A52
:1009C00060E070E086E00C94DD09CF93DF93EC01EA
:1009D0000E94CB04CE01DF91CF910C94D804CF9329
:1009E000C62F61E082E00E949E0A60E084E00E94DF
:1009F0009E0A6C2F70E085E00E94DD09E091ED0118
:100A0000F091EE01309711F081E08087CF91089549
:100A1000CF93C62F60E082E00E949E0A61E084E0EE
:100A20000E949E0A6C2F70E085E00E94DD09E09133
:100A3000ED01F091EE01309711F08FEF8087CF91AB
:100A400008951616170614F40C940805719561950F
:100A500071090C94EF04CF93C62F61E087E00E94E8
:100A60009E0A60E088E00E949E0A6C2F70E086E09B
:100A70000E94DD09E091ED01F091EE01309711F057
:100A800081E08187CF910895CF93C62F60E087E002
:100A90000E949E0A61E088E00E949E0A6C2F70E02E
:100AA00086E00E94DD09E091ED01F091EE013097C2
:100AB00011F08FEF8187CF9108951616170614F461
:100AC0000C942B057195619571090C944405FC01FA
:100AD000718360838FEF9FEF9383828395838483F9
:100AE0000895FC0180810C94C00920E001972FEF4C
:100AF0008F3F9207D9F70895EF92FF920F931F93BC
:100B0000CF93DF93EC018B899C890E94750508E0E7
:100B100010E0EE24E394F12C8D899E890E947505E6
:100B2000EE85FF8580819D85892311F0FE2803C015
:100B30008E2D8095F822EE0C0150110969F78F89EE
:100B4000988D0E9475058091F0012091EF0190E051
:100B500001968F73992730E08217930779F0E0911F
:100B6000F001F0E0EF50FE4FF0828091F00190E054
:100B700001968F7399278093F00103C08B8D81605C
:100B80008B8FDF91CF911F910F91FF90EF90089580
:100B900026E040E855E260E070E085E792E00E94E0
:100BA000B70B60ED77E080E090E00E945D096AE0BD
:100BB00071E085E792E00E94190D64EF71E080E03A
:100BC00090E00C945D090F931F93CF93DF93C5E0E2
:100BD000D0E084E592E00E947105080F191F21976B
:100BE000C1F7C80165E070E00E94F510CB01709379
:100BF000340260933302DF91CF911F910F910895DA
:100C00000F931F93CF93DF93C5E0D0E08EE492E083
:100C10000E947105080F191F2197C1F7C80165E0EF
:100C200070E00E94F510CB017093320260933102A4
:100C3000DF91CF911F910F9108950F931F93CF9341
:100C4000DF93C5E0D0E080E692E00E947105080FD6
:100C5000191F2197C1F7C80165E070E00E94F510E7
:100C6000CB017093360260933502DF91CF911F91D3
:100C70000F9108950F931F93CF93DF93C5E0D0E0BA
:100C80008AE592E00E947105080F191F2197C1F7AC
:100C9000C80165E070E00E94F510CB017093380246
:100CA00060933702DF91CF911F910F9108950F93B9
:100CB0001F93CF93DF93C5E0D0E086E692E00E94D9
:100CC0007105080F191F2197C1F7C80165E070E091
:100CD0000E94F510CB0170933A0260933902DF91C4
:100CE000CF911F910F9108956F927F928F929F9253
:100CF000AF92BF92CF92DF92EF92FF920F931F932A
:100D0000CF93DF936B017C01EA0189016FE171E010
:100D100085E792E00E940C0D22E030E0B701A601C9
:100D200085E792E00E94C10E60E371E085E792E002
:100D30000E940C0D4AE050E0BE0185E792E00E945F
:100D4000CE0D6CE371E085E792E00E94190D4AE058
:100D500050E0B80185E792E00E94CE0D69E471E0B1
:100D600085E792E00E94190D20913B0230913C02F0
:100D700040913D0250913E02C701B6010E943F0FD3
:100D80006B017C0123E030E0AB01BC0185E792E020
:100D90000E94C30E62E070E084E492E00E948E0440
:100DA000BE0183E492E00E942105B80183E492E051
:100DB0000E945D05612C712CD0E0C0E0B3018D2F45
:100DC0009C2F97FF07C090958095709561957F4FF8
:100DD0008F4F9F4F0E94DA0F4B015C01609107011A
:100DE00070910801882777FD8095982F0E94DA0F6F
:100DF0009B01AC01C701B6010E948E109B01AC01A2
:100E0000C501B4010E943B0F87FF47C060E070E05E
:100E100084E492E00E94A5043B01D82FC92F61E031
:100E200070E084E492E00E94A5044B015C012AE09A
:100E300030E0A3016D2F7C2F85E792E00E94840DA6
:100E400067E571E085E792E00E940C0D2AE030E052
:100E5000B501A40185E792E00E94840D67E571E089
:100E600085E792E00E940C0D6091070170910801E6
:100E7000882777FD8095982F0E94DA0F9B01AC019F
:100E8000C701B6010E948E10AB01BC0122E030E028
:100E900085E792E00E94C30E91CF83E492E0DF9158
:100EA000CF911F910F91FF90EF90DF90CF90BF9067
:100EB000AF909F908F907F906F900C94E50469E5C0
:100EC00071E085E792E00E94190D24E630E04CE9DC
:100ED0005FEF60E070E080E89FE30E94740668ECDA
:100EE00070E080E090E00E945D090E94E305823599
:100EF00093405CF48CE99FEF90934202809341020F
:100F00009093400280933F0219C00E945706833598
:100F10009340A4F00E941D06833593407CF00E940C
:100F20003A068335934054F00E94E305833593409D
:100F30002CF00E94000683359340D4F46091410266
:100F40007091420283E492E00E94210560913F0289
:100F50007091400283E492E00E945D0564E873E0D2
:100F600080E090E00E945D0983E492E00C94E50447
:100F700083E492E00E94E504109242021092410242
:100F80001092400210923F02D9CF8EE492E00E946C
:100F900071054AE050E0BC0185E792E00E94CE0D69
:100FA00067E571E085E792E00E940C0D86E692E02D
:100FB0000E9471054AE050E0BC0185E792E00E9482
:100FC000CE0D67E571E085E792E00E940C0D80E6AA
:100FD00092E00E9471054AE050E0BC0185E792E092
:100FE0000E94CE0D67E571E085E792E00E940C0D4E
:100FF0008AE592E00E9471054AE050E0BC0185E775
:1010000092E00E94CE0D67E571E085E792E00E94D4
:101010000C0D84E592E00E9471054AE050E0BC01AD
:1010200085E792E00E94CE0D85E792E00E94150DC3
:101030000E941D06833593407CF06EE671E085E7E3
:1010400092E00E94190D8CE99FEF909342028093E9
:10105000410284E690E027C00E943A06833593401F
:101060007CF06AE771E085E792E00E94190D8AE65C
:101070009FEF909342028093410282E390E013C07D
:101080000E9457068335934094F06DE871E085E740
:1010900092E00E94190D8EEC9FEF90934202809394
:1010A000410286E990E09093400280933F020E94C3
:1010B000E3058335934054F08CE99FEF909342020F
:1010C000809341029093400280933F020E94570612
:1010D000833593403CF10E941D068335934014F103
:1010E0000E943A0683359340ECF00E94E305833575
:1010F0009340C4F00E940006833593409CF00E9408
:101100005F0783E492E00E94E5041092420210928D
:1011100041021092400210923F0260E070E0CB0169
:101120000C945D09609141027091420283E492E067
:101130000E94210560913F027091400283E492E099
:101140000E945D05EACF61E170E086E692E00E94D0
:10115000670564E170E080E692E00E94670565E162
:1011600070E08AE592E00E9467056FE070E084E538
:1011700092E00E9467056EE070E08EE492E00E94CB
:1011800067054AE050E060E170E084E492E00E948C
:10119000220483E492E00E94BB042BED3FE049E48B
:1011A00050E46091030170910401809105019091D8
:1011B00006010E948E1060933B0270933C02809364
:1011C0003D0290933E0208951F920F920FB60F9228
:1011D00011242F933F938F939F93AF93BF9380914D
:1011E0006D0290916E02A0916F02B09170023091E9
:1011F0006C0223E0230F2D3720F40196A11DB11DB1
:1012000005C026E8230F0296A11DB11D20936C0294
:1012100080936D0290936E02A0936F02B093700260
:101220008091710290917202A0917302B091740248
:101230000196A11DB11D8093710290937202A0933B
:101240007302B0937402BF91AF919F918F913F91C0
:101250002F910F900FBE0F901F9018952FB7F894F5
:1012600060916D0270916E0280916F029091700298
:101270002FBF08953FB7F894809171029091720248
:10128000A0917302B091740226B5A89B05C02F3FB0
:1012900019F00196A11DB11D3FBF6627782F892F38
:1012A0009A2F620F711D811D911D42E0660F771FFD
:1012B000881F991F4A95D1F70895CF92DF92EF9238
:1012C000FF92CF93DF936B017C010E943A09EB01FF
:1012D000C114D104E104F10489F00E94D50E0E94EA
:1012E0003A096C1B7D0B683E734090F381E0C81A8D
:1012F000D108E108F108C851DC4FEACFDF91CF9166
:10130000FF90EF90DF90CF900895789484B582603D
:1013100084BD84B5816084BD85B5826085BD85B599
:10132000816085BDEEE6F0E0808181608083E1E848
:10133000F0E0108280818260808380818160808380
:10134000E0E8F0E0808181608083E1EBF0E0808183
:1013500084608083E0EBF0E0808181608083EAE755
:10136000F0E08081846080838081826080838081DE
:10137000816080838081806880831092C10008959D
:101380008E3008F08E5087702091090190E4299FDB
:1013900090011124822B80937C0080917A008064DC
:1013A00080937A0080917A0086FDFCCF809178004E
:1013B0002091790090E0922B08951F93CF93DF93B3
:1013C000182FEB0161E00E94650A209711F460E09C
:1013D00004C0CF3FD10539F461E0812FDF91CF9177
:1013E0001F910C949E0AE12FF0E0E657FF4FE49125
:1013F000E330F9F048F4E130B9F0E230A1F584B51A
:10140000806284BDC8BD34C0E730E9F0E83019F12E
:10141000E43049F580918000806280938000D09311
:101420008B00C0938A0024C084B5806884BDC7BD8A
:101430001FC080918000806880938000D0938900D5
:10144000C093880015C08091B00080688093B00080
:10145000C093B3000DC08091B00080628093B00053
:10146000C093B40005C0C038D1050CF0B5CFAFCFE4
:10147000DF91CF911F910895833081F028F481305E
:1014800099F08230A1F008958730A9F08830B9F042
:101490008430D1F4809180008F7D03C080918000E2
:1014A0008F7780938000089584B58F7702C084B5CC
:1014B0008F7D84BD08958091B0008F7703C08091A7
:1014C000B0008F7D8093B0000895CF93DF9390E0BC
:1014D000FC01E256FF4F2491FC01EE54FF4F849132
:1014E000882349F190E0880F991FFC01E053FF4FDA
:1014F000A591B4918A539F4FFC01C591D4919FB798
:10150000611108C0F8948C91209582238C93888176
:1015100082230AC0623051F4F8948C91322F3095B6
:1015200083238C938881822B888304C0F8948C91C8
:10153000822B8C939FBFDF91CF9108950F931F93C0
:10154000CF93DF931F92CDB7DEB7282F30E0F9019C
:10155000E657FF4F8491F901E256FF4F1491F901CC
:10156000EE54FF4F04910023C9F0882321F06983D2
:101570000E943C0A6981E02FF0E0EE0FFF1FEA5362
:10158000FF4FA591B4919FB7F8948C91611103C05E
:101590001095812301C0812B8C939FBF0F90DF9109
:1015A000CF911F910F910895FC01818D228D90E0C4
:1015B000805C9F4F821B91098F7399270895FC01CE
:1015C000918D828D981731F0828DE80FF11D858DF8
:1015D00090E008958FEF9FEF0895FC01918D828D2B
:1015E000981761F0828DDF01A80FB11D5D968C9177
:1015F000928D9F5F9F73928F90E008958FEF9FEF82
:10160000089581E79CE0892B49F080E090E0892BE8
:1016100029F00E94710C81110C9400000895FC01C6
:10162000848DDF01A80FB11DA35ABF4F2C91848D6B
:1016300090E001968F739927848FA689B7892C93A0
:10164000A089B1898C9180648C93938D848D98133B
:1016500006C00288F389E02D80818F7D8083089504
:10166000CF93DF93EC01888D8823C9F0EA89FB8949
:10167000808185FD05C0A889B9898C9186FD0FC040
:101680000FB607FCF5CF808185FFF2CFA889B98915
:101690008C9185FFEDCFCE010E940F0BE7CFDF913C
:1016A000CF910895CF92DF92FF920F931F93CF9324
:1016B000DF931F92CDB7DEB76C0181E0D60158965B
:1016C0008C9358975B969C915B975C968C915C97FA
:1016D000981307C05096ED91FC915197808185FD3C
:1016E0002EC0F601038D10E00F5F1F4F0F731127FF
:1016F000F02EF601848DF81211C00FB607FCF9CF59
:10170000D6015096ED91FC915197808185FFF1CFE4
:10171000C60169830E940F0B6981EBCF838DE80FAF
:10172000F11DE35AFF4F6083D6015B960C935B97E4
:101730005296ED91FC915397808180620CC0D60146
:101740005696ED91FC91579760835096ED91FC91E0
:10175000519780818064808381E090E00F90DF91D9
:10176000CF911F910F91FF90DF90CF900895BF927E
:10177000CF92DF92EF92FF92CF93DF93EC016A0159
:101780007B01B22EE889F98982E08083411581EEE0
:10179000580761057105A1F060E079E08DE390E004
:1017A000A70196010E9409112150310941095109EF
:1017B0005695479537952795211580E1380798F07C
:1017C000E889F989108260E874E88EE190E0A70169
:1017D00096010E940911215031094109510956957C
:1017E000479537952795EC85FD853083EE85FF85F8
:1017F0002083188EEC89FD89B082EA89FB8980817B
:1018000080618083EA89FB89808188608083EA899E
:10181000FB89808180688083EA89FB8980818F7D54
:101820008083DF91CF91FF90EF90DF90CF90BF90BA
:1018300008951F920F920FB60F9211242F938F933A
:101840009F93EF93FF93E0918502F0918602808150
:10185000E0918B02F0918C0282FD12C09081809108
:101860008E028F5F8F7320918F02821751F0E0916B
:101870008E02F0E0EB58FD4F958F80938E0201C0F1
:101880008081FF91EF919F918F912F910F900FBECB
:101890000F901F9018951F920F920FB60F92112460
:1018A0002F933F934F935F936F937F938F939F9368
:1018B000AF93BF93EF93FF9385E792E00E940F0BE6
:1018C000FF91EF91BF91AF919F918F917F916F9118
:1018D0005F914F913F912F910F900FBE0F901F90EE
:1018E000189585E792E00E94D40A21E0892B09F43B
:1018F00020E0822F0895109278021092770288EEED
:1019000093E0A0E0B0E08093790290937A02A093F4
:101910007B02B0937C0283EA91E0909376028093FD
:10192000750285EC90E0909382028093810284ECB2
:1019300090E0909384028093830280EC90E09093F7
:1019400086028093850281EC90E0909388028093D8
:10195000870282EC90E090938A028093890286EC61
:1019600090E090938C0280938B0210928E021092E2
:101970008F021092900210929102089508950E9491
:1019800085090E94BE0C0E94C805C1E0DBE00E94F0
:10199000C5072097E1F30E94010BF9CFCF92DF92A8
:1019A000EF92FF920F931F93CF93DF936C017A0115
:1019B000EB01E60EF71E00E010E0CE15DF0561F04A
:1019C0006991D601ED91FC910190F081E02DC60165
:1019D0000995080F191FF1CFC801DF91CF911F9111
:1019E0000F91FF90EF90DF90CF90089561157105F2
:1019F00081F0DB010D900020E9F7AD014150510964
:101A0000461B570BDC01ED91FC910280F381E02D28
:101A1000099480E090E008950C94F60CDC01ED91BF
:101A2000FC910190F081E02D09946FEA71E00C9433
:101A3000F60C0F931F93CF93DF93EC010E94F60CEB
:101A40008C01CE010E94150D800F911FDF91CF9167
:101A50001F910F9108958F929F92AF92BF92CF9254
:101A6000DF92EF92FF920F931F93CF93DF93CDB747
:101A7000DEB7A1970FB6F894DEBF0FBECDBF7C01D5
:101A8000C42EE52FCB01D22E19A221E02D1510F086
:101A90002AE0D22E8E010F5D1F4F8D2C912CA12C90
:101AA000B12C6C2D7E2FA50194010E9409118C2D63
:101AB000D29E80191124015011098A3014F4805DDE
:101AC00001C0895CF801808321153105410551056C
:101AD00021F0C22EE32FCA01E4CFB801C7010E9452
:101AE000F60CA1960FB6F894DEBF0FBECDBFDF9106
:101AF000CF911F910F91FF90EF90DF90CF90BF900B
:101B0000AF909F908F900895CF92DF92EF92FF92C7
:101B10000F931F93CF93DF93EC016A017B01211593
:101B2000310579F4E881F9810190F081E02D642F8D
:101B3000DF91CF911F910F91FF90EF90DF90CF90A9
:101B400009942A303105E9F477FF1AC06DE20E944A
:101B50000E0D8C0144275527BA014C195D096E09F9
:101B60007F092AE0CE010E942B0D800F911FDF918B
:101B7000CF911F910F91FF90EF90DF90CF9008953C
:101B80002AE0B701A601CE01DF91CF911F910F91FD
:101B9000FF90EF90DF90CF900C942B0D9A01AB014A
:101BA000662757FD6095762F0C94840D4F925F92B7
:101BB0006F927F928F929F92AF92BF92CF92DF925D
:101BC000EF92FF920F931F93CF93DF93EC016A0183
:101BD0007B01B22E9A01AB01C701B6010E94F11040
:101BE000882319F062EB71E027C026013701E894E1
:101BF00077F82FEF3FEF4FE75FE7C301B2010E9495
:101C0000F11081110DC02FEF3FEF4FE75FE7C301E8
:101C1000B2010E943B0F18161CF466EB71E00CC079
:101C20002FEF3FEF4FE75FE4C701B6010E948A1034
:101C30001816ACF46AEB71E0CE01DF91CF911F91E1
:101C40000F91FF90EF90DF90CF90BF90AF909F905B
:101C50008F907F906F905F904F900C94F60C2FEFC9
:101C60003FEF4FE75FECC701B6010E943B0F87FDD6
:101C7000E1CF20E030E0A901C701B6010E943B0F8F
:101C800087FF0AC06DE2CE010E940E0D8C01F7FAAB
:101C9000F094F7F8F09402C000E010E0A12C60E0AE
:101CA00070E080E09FE3AB1441F020E030E040E2E0
:101CB00051E40E943F0FA394F6CF9B01AC01C701F2
:101CC000B6010E94D70E6B017C010E94AC0F2B0164
:101CD0003C010E94D80F9B01AC01C701B6010E94D4
:101CE000D60E6B017C012AE0B301A201CE010E9455
:101CF0002B0D080F191FBB2039F067E471E0CE01EE
:101D00000E94F60C080F191F7B2C772041F120E070
:101D100030E040E251E4C701B6010E948E106B0131
:101D20007C010E94A70F4B01AA2497FCA094BA2C17
:101D30002AE030E0B501A401CE010E94840D080F15
:101D4000191FC501B4010E94DA0F9B01AC01C70144
:101D5000B6010E94D60E6B017C017A94D6CFC801E1
:101D6000DF91CF911F910F91FF90EF90DF90CF9077
:101D7000BF90AF909F908F907F906F905F904F90AB
:101D800008950C94D60D0F931F93CF93DF93EC011E
:101D90000E94D60D8C01CE010E94150D800F911F5F
:101DA000DF91CF911F910F91089508955058BB274F
:101DB000AA270ED075C166D130F06BD120F031F476
:101DC0009F3F11F41EF45BC10EF4E095E7FB51C197
:101DD000E92F77D180F3BA17620773078407950755
:101DE00018F071F49EF58FC10EF4E0950B2EBA2F0A
:101DF000A02D0B01B90190010C01CA01A001112411
:101E0000FF27591B99F0593F50F4503E68F11A16BC
:101E1000F040A22F232F342F4427585FF3CF46954D
:101E200037952795A795F0405395C9F77EF41F166F
:101E3000BA0B620B730B840BBAF09150A1F0FF0F39
:101E4000BB1F661F771F881FC2F70EC0BA0F621F25
:101E5000731F841F48F4879577956795B795F79515
:101E60009E3F08F0B3CF9395880F08F09927EE0FA7
:101E7000979587950895D9D008F481E008950CD0FE
:101E80000FC107D140F0FED030F021F45F3F19F0D0
:101E9000F0C0511139C1F3C014D198F39923C9F39B
:101EA0005523B1F3951B550BBB27AA276217730760
:101EB000840738F09F5F5F4F220F331F441FAA1F14
:101EC000A9F333D00E2E3AF0E0E830D091505040D4
:101ED000E695001CCAF729D0FE2F27D0660F771F82
:101EE000881FBB1F261737074807AB07B0E809F064
:101EF000BB0B802DBF01FF2793585F4F2AF09E3FF9
:101F0000510568F0B6C000C15F3FECF3983EDCF3CA
:101F1000869577956795B795F7959F5FC9F7880F71
:101F2000911D9695879597F90895E1E0660F771FC3
:101F3000881FBB1F621773078407BA0720F0621B54
:101F4000730B840BBA0BEE1F88F7E095089504D04D
:101F50006894B111D9C00895BCD088F09F5790F013
:101F6000B92F9927B751A0F0D1F0660F771F881FBE
:101F7000991F1AF0BA95C9F712C0B13081F0C3D0D9
:101F8000B1E00895C0C0672F782F8827B85F39F077
:101F9000B93FCCF3869577956795B395D9F73EF41D
:101FA00090958095709561957F4F8F4F9F4F0895C5
:101FB000E89409C097FB3EF49095809570956195E3
:101FC0007F4F8F4F9F4F9923A9F0F92F96E9BB2799
:101FD0009395F695879577956795B795F111F8CF15
:101FE000FAF4BB0F11F460FF1BC06F5F7F4F8F4F80
:101FF0009F4F16C0882311F096E911C0772321F076
:102000009EE8872F762F05C0662371F096E8862F0D
:1020100070E060E02AF09A95660F771F881FDAF764
:10202000880F9695879597F90895990F0008550F91
:10203000AA0BE0E8FEEF16161706E807F907C0F04E
:1020400012161306E407F50798F0621B730B840B56
:10205000950B39F40A2661F0232B242B252B21F430
:1020600008950A2609F4A140A6958FEF811D811DD0
:10207000089597F99F6780E870E060E008959FEF0A
:1020800080EC089500240A9416161706180609060F
:10209000089500240A9412161306140605060895DE
:1020A000092E0394000C11F4882352F0BB0F40F466
:1020B000BF2B11F460FF04C06F5F7F4F8F4F9F4FA6
:1020C000089557FD9058440F551F59F05F3F71F028
:1020D0004795880F97FB991F61F09F3F79F087958F
:1020E0000895121613061406551FF2CF4695F1DF18
:1020F00008C0161617061806991FF1CF86957105A8
:10210000610508940895E894BB2766277727CB01DB
:1021100097F908958ADF08F48FEF08950BD0C0CFA8
:10212000B1DF28F0B6DF18F0952309F0A2CFA7CFD2
:102130001124EACFC6DFA0F3959FD1F3950F50E0AD
:10214000551F629FF001729FBB27F00DB11D639F69
:10215000AA27F00DB11DAA1F649F6627B00DA11D0F
:10216000661F829F2227B00DA11D621F739FB00DB5
:10217000A11D621F839FA00D611D221F749F332725
:10218000A00D611D231F849F600D211D822F762FBE
:102190006A2F11249F5750408AF0E1F088234AF0BB
:1021A000EE0FFF1FBB1F661F771F881F9150504007
:1021B000A9F79E3F510570F05CCFA6CF5F3FECF3CF
:1021C000983EDCF3869577956795B795F795E795F3
:1021D0009F5FC1F7FE2B880F911D9695879597F904
:1021E000089523DF880B990B089597FB072E16F4AB
:1021F000009407D077FD09D00E94311107FC05D06B
:102200003EF4909581959F4F0895709561957F4F0D
:102210000895A1E21A2EAA1BBB1BFD010DC0AA1F27
:10222000BB1FEE1FFF1FA217B307E407F50720F03F
:10223000A21BB30BE40BF50B661F771F881F991FBA
:102240001A9469F760957095809590959B01AC0103
:10225000BD01CF010895EE0FFF1F0590F491E02D11
:102260000994AA1BBB1B51E107C0AA1FBB1FA617DD
:10227000B70710F0A61BB70B881F991F5A95A9F72F
:0E22800080959095BC01CD010895F894FFCF94
:10228E00083F0E0AD72340C0000149522053656E05
:10229E00736F722052656164696E67733A200064D1
:1022AE007269766544697374616E636528292000CE
:1022BE0020696E636865732061742000206C65660A
:1022CE007420706F7765722E0020726967687420B3
:1022DE00706F7765722E0009004D6F766520666F00
:1022EE00727761726420616E20696E636800476F59
:1022FE00205374726169676874005475726E20732E
:10230E006C696768746C79206C65667400547572BC
:10231E006E20736C69676874207269676874000058
:10232E00000000520BCE0CD40AED0ADF0A300B0D62
:0E233E000A006E616E00696E66006F766600C2
:00000001FF
