:100000000C946F000C9497000C9497000C94B5011D
:100010000C94F0020C944A030C9497000C949700F3
:100020000C9497000C9497000C9497000C949700F4
:100030000C9497000C9497000C9497000C949700E4
:100040000C9464070C9497000C94990A0C94CB0AB6
:100050000C9497000C9497000C9497000C949700C4
:100060000C9497000C949700DE03210421042104D2
:1000700021042104F00300041004210421047C0362
:100080008C039E03AE03BE03CE03000000080002F3
:10009000010000030407000000000000000001024E
:1000A0000408102040800102040810200102040806
:1000B00010200404040404040404020202020202E4
:1000C00003030303030300000000250028002B00A6
:1000D00000000000240027002A002307FB0A112447
:1000E0001FBECFEFD8E0DEBFCDBF11E0A0E0B1E092
:1000F000EAEBFAE102C005900D92AC3BB107D9F7EB
:1001000023E0ACEBB1E001C01D92A031B207E1F7F2
:1001100010E0CEEDD0E004C02297FE010E94430D16
:10012000CA3DD107C9F70E943F0B0C945B0D0C949C
:100130000000CF92DF92EF92FF92E82FF0E0DF0114
:10014000A254BE4F8C918230F9F078F4813009F0DE
:1001500052C0EE0FFF1FE952FE4F0190F081E02DDB
:10016000FF90EF90DF90CF900994833021F184309D
:1001700009F041C08091BC019091BD01FF90EF90CA
:10018000DF90CF900C944F05C090CF01D090D0015C
:10019000E090D101F090D2010E94BA0722E3C20E92
:1001A000D11CE11CF11CC616D706E806F90618F5A5
:1001B00060E070E016C0C090D301D090D401E09010
:1001C000D501F090D6010E94BA0722E3C20ED11CDD
:1001D000E11CF11CC616D706E806F90660F461E0DA
:1001E00070E08091EB019091EC01FF90EF90DF9037
:1001F000CF900C945D04FF90EF90DF90CF90089526
:10020000CF93C82F8091020181FF02C0C1FF46C079
:100210008091020181FD2CC0C1FF2AC08091C501DF
:10022000823051F40E94BA076093CF017093D001DD
:100230008093D1019093D2018091C501833051F414
:100240000E94BA076093D3017093D4018093D501C3
:100250009093D6018091C501813051F40E94AE0780
:100260006093CB017093CC018093CD019093CE012C
:100270008091020182FF16C0C2FD14C088E00E9476
:1002800099008091020183FF3EC0C3FD3CC089E01C
:100290000E949900C0930201CF91089587E00E94C7
:1002A0009900E6CF8091020182FDEBCFC2FFE9CF3A
:1002B0008091C601823051F40E94BA076093CF0149
:1002C0007093D0018093D1019093D2018091C601A7
:1002D000833051F40E94BA076093D3017093D40124
:1002E0008093D5019093D6018091C601813049F663
:1002F0000E94AE076093CB017093CC018093CD0137
:100300009093CE01BECF8091020182FDC3CFC2FF88
:10031000C1CF8091C701823051F40E94BA07609327
:10032000CF017093D0018093D1019093D20180913D
:10033000C701833051F40E94BA076093D3017093D0
:10034000D4018093D5019093D6018091C70181306B
:1003500009F0A0CF0E94AE076093CB017093CC014F
:100360008093CD019093CE0195CF1F920F920FB63F
:100370000F9211242F933F934F935F936F937F932B
:100380008F939F93AF93BF93EF93FF9393B180911C
:10039000CA0189230E940001FF91EF91BF91AF91A3
:1003A0009F918F917F916F915F914F913F912F918D
:1003B0000F900FBE0F901F901895CF93C82F80916C
:1003C000010180FF02C0C0FF53C08091010180FD88
:1003D0001EC0C0FF1CC08091BE01823051F40E943B
:1003E000AE076093CF017093D0018093D1019093B9
:1003F000D2018091BE01833051F40E94AE07609318
:10040000D3017093D4018093D5019093D60180914C
:10041000010181FF31C0C1FD2FC081E00E94990020
:100420008091010182FF4CC0C2FD4AC082E00E945F
:1004300099008091010183FF67C0C3FD65C083E01F
:100440000E9499008091010184FF82C0C4FD80C098
:1004500084E00E9499008091010185FF9DC0C5FD47
:100460009BC085E00E949900C0930101CF9108953F
:1004700080E00E949900CBCF8091010181FDD0CF17
:10048000C1FFCECF8091BF01823051F40E94AE07F0
:100490006093CF017093D0018093D1019093D201EA
:1004A0008091BF01833009F0BBCF0E94AE076093FB
:1004B000D3017093D4018093D5019093D601B0CF2E
:1004C0008091010182FDB5CFC2FFB3CF8091C00101
:1004D000823051F40E94AE076093CF017093D00137
:1004E0008093D1019093D2018091C001833009F0B3
:1004F000A0CF0E94AE076093D3017093D401809384
:10050000D5019093D60195CF8091010183FD9ACFBB
:10051000C3FF98CF8091C101823051F40E94AE0791
:100520006093CF017093D0018093D1019093D20159
:100530008091C101833009F085CF0E94AE0760939E
:10054000D3017093D4018093D5019093D6017ACFD3
:100550008091010184FD7FCFC4FF7DCF8091C201D6
:10056000823051F40E94AE076093CF017093D001A6
:100570008093D1019093D2018091C201833009F020
:100580006ACF0E94AE076093D3017093D401809329
:10059000D5019093D6015FCF8091010185FD64CF95
:1005A000C5FF62CF8091C301823051F40E94AE0733
:1005B0006093CF017093D0018093D1019093D201C9
:1005C0008091C301833009F04FCF0E94AE07609342
:1005D000D3017093D4018093D5019093D60144CF79
:1005E0001F920F920FB60F9211242F933F934F93A8
:1005F0005F936F937F938F939F93AF93BF93EF938B
:10060000FF9396B18091C90189230E94DD01FF917A
:10061000EF91BF91AF919F918F917F916F915F917A
:100620004F913F912F910F900FBE0F901F901895F3
:10063000CF93C82F8091000183FF02C0C3FF26C063
:100640008091000183FD1EC0C3FF1CC08091C401C6
:10065000823051F40E94AE076093CF017093D001B5
:100660008093D1019093D2018091C401833051F4E1
:100670000E94AE076093D3017093D4018093D5019B
:100680009093D601C0930001CF91089586E00E9417
:100690009900F8CF1F920F920FB60F9211242F934B
:1006A0003F934F935F936F937F938F939F93AF93FA
:1006B000BF93EF93FF9399B18091C80189230E9462
:1006C0001803FF91EF91BF91AF919F918F917F910F
:1006D0006F915F914F913F912F910F900FBE0F90AF
:1006E0001F90189503978131910508F0AAC08C5C82
:1006F0009F4FFC010C94410D80916C0081608093B0
:100700006C00809168008260809368006093BE01F5
:100710008091C90181600FC080916C0082608093DC
:100720006C00809168008260809368006093BF01D4
:100730008091C90182608093C901089580916C0005
:10074000846080936C008091680082608093680070
:100750006093C0018091C9018460EDCF80916C00ED
:10076000886080936C00809168008260809368004C
:100770006093C1018091C9018860DDCF80916C00D8
:10078000806180936C008091680082608093680033
:100790006093C2018091C9018061CDCF80916C00CE
:1007A000806280936C008091680082608093680012
:1007B0006093C3018091C9018062BDCF80916D00BB
:1007C000886080936D0080916800846080936800E9
:1007D0006093C4018091C80188608093C801089526
:1007E00080916B00826080936B00809168008160D3
:1007F000809368006093C5018091CA0182601FC028
:1008000080916B00846080936B00809168008160B0
:10081000809368006093C6018091CA0184600FC014
:1008200080916B00886080936B008091680081608C
:10083000809368006093C7018091CA0188608093AB
:10084000CA010895EF92FF920F931F93CF93DF9306
:1008500000D0CDB7DEB77C01062F142F62E0802FC9
:100860005A8379830E94E50862E0812F0E94E5089F
:1008700062E0802F7981972F0E94720363E0812FBD
:100880005A81952F0E947203F70110821182128201
:1008900013821482158216821782F092EC01E09284
:1008A000EB0181E0808781870F900F90DF91CF91DE
:1008B0001F910F91FF90EF9008950F931F93FC01EC
:1008C00061157105B1F06130710529F501851127B8
:1008D00007FD1095212F312F448155816681778145
:1008E000400F511F621F731F4483558366837783B4
:1008F00012C00085112707FD1095212F312F40814F
:10090000518162817381400F511F621F731F4083A9
:100910005183628373831F910F91089561E087E093
:100920000E94E50861E088E00E94E50861E082E05D
:100930000E94E50861E084E00C94E50861E082E053
:100940000E941E0961E084E00E941E0960E070E0E0
:1009500085E00C945D0861E087E00E941E0961E07B
:1009600088E00E941E0960E070E086E00C945D085B
:10097000CF93DF93EC010E949E04CE01DF91CF91D3
:100980000C94AB04CF93C62F61E082E00E941E0955
:1009900060E084E00E941E096C2F70E085E00E94F8
:1009A0005D08E091EB01F091EC01309711F081E0EE
:1009B0008087CF910895CF93C62F60E082E00E9498
:1009C0001E0961E084E00E941E096C2F70E085E042
:1009D0000E945D08E091EB01F091EC01309711F07D
:1009E0008FEF8087CF9108951616170614F40C9494
:1009F000DB047195619571090C94C204CF93C62FE5
:100A000061E087E00E941E0960E088E00E941E0904
:100A10006C2F70E086E00E945D08E091EB01F091A0
:100A2000EC01309711F081E08187CF910895CF9349
:100A3000C62F60E087E00E941E0961E088E00E9406
:100A40001E096C2F70E086E00E945D08E091EB01CA
:100A5000F091EC01309711F08FEF8187CF910895DD
:100A60001616170614F40C94FE047195619571091D
:100A70000C941705FC01718360838FEF9FEF9383C4
:100A80008283958384830895FC0180810C944008BF
:100A900020E001972FEF8F3F9207D9F70895EF924B
:100AA000FF920F931F93CF93DF93EC018B899C8967
:100AB0000E94480508E010E0EE24E394F12C8D89B3
:100AC0009E890E944805EE85FF8580819D8589234A
:100AD00011F0FE2803C08E2D8095F822EE0C0150F7
:100AE000110969F78F89988D0E9448058091EE0160
:100AF0002091ED0190E001968F73992730E08217E5
:100B0000930779F0E091EE01F0E0E151FE4FF082C1
:100B10008091EE0190E001968F7399278093EE010A
:100B200003C08B8D81608B8FDF91CF911F910F91CF
:100B3000FF90EF90089526E040E855E260E070E015
:100B400083E792E00E94370A60ED77E080E090E072
:100B50000E94DD0768E071E083E792E00E94990B54
:100B600064EF71E080E090E00C94DD070F931F9339
:100B7000CF93DF93C5E0D0E082E592E00E94440588
:100B8000080F191F2197C1F7C80165E070E00E94A6
:100B90000B0DCB017093320260933102DF91CF9144
:100BA0001F910F9108950F931F93CF93DF93C5E08B
:100BB000D0E08CE492E00E944405080F191F2197B1
:100BC000C1F7C80165E070E00E940B0DCB01709386
:100BD000300260932F02DF91CF911F910F91089502
:100BE0000F931F93CF93DF93C5E0D0E08EE592E0A3
:100BF0000E944405080F191F2197C1F7C80165E03D
:100C000070E00E940B0DCB017093340260933302AD
:100C1000DF91CF911F910F9108950F931F93CF9361
:100C2000DF93C5E0D0E088E592E00E944405080F1C
:100C3000191F2197C1F7C80165E070E00E940B0DF4
:100C4000CB017093360260933502DF91CF911F91F3
:100C50000F9108950F931F93CF93DF93C5E0D0E0DA
:100C600084E692E00E944405080F191F2197C1F7FE
:100C7000C80165E070E00E940B0DCB017093380253
:100C800060933702DF91CF911F910F9108958CE40B
:100C900092E00E9444054AE050E0BC0183E792E004
:100CA0000E944E0C6DE171E083E792E00E948C0B94
:100CB00084E692E00E9444054AE050E0BC0183E7EC
:100CC00092E00E944E0C6DE171E083E792E00E9499
:100CD0008C0B8EE592E00E9444054AE050E0BC0196
:100CE00083E792E00E944E0C6DE171E083E792E0B1
:100CF0000E948C0B88E592E00E9444054AE050E097
:100D0000BC0183E792E00E944E0C6DE171E083E745
:100D100092E00E948C0B82E592E00E9444054AE03A
:100D200050E0BC0183E792E00E944E0C83E792E022
:100D30000E94950B0E94F005833593407CF06FE193
:100D400071E083E792E00E94990B8CE99FEF90930A
:100D5000400280933F0284E690E027C00E940D0687
:100D6000833593407CF06BE271E083E792E00E9470
:100D7000990B8AE69FEF9093400280933F0282E3B3
:100D800090E013C00E942A068335934094F06EE3EE
:100D900071E083E792E00E94990B8EEC9FEF9093B5
:100DA000400280933F0286E990E090933E02809358
:100DB0003D020E94B6058335934054F08CE99FEFC5
:100DC0009093400280933F0290933E0280933D02B5
:100DD0000E942A06833593402CF10E94F00583354A
:100DE000934004F10E940D0683359340DCF00E948D
:100DF000B60583359340B4F00E94D3058335934004
:100E00008CF081E492E00E94B804109240021092AB
:100E10003F0210923E0210923D0260E070E0CB0172
:100E20000C94DD0760913F027091400281E492E0F2
:100E30000E94F40460913D0270913E0281E492E0D0
:100E40000E943005EACF61E170E084E692E00E9402
:100E50003A0564E170E08EE592E00E943A0565E1B2
:100E600070E088E592E00E943A056FE070E082E56C
:100E700092E00E943A056EE070E08CE492E00E94FD
:100E80003A054AE050E060E170E082E492E00E94BE
:100E9000220481E492E00E948E042BED3FE049E4BD
:100EA00050E46091030170910401809105019091DB
:100EB00006010E94A80C6093390270933A02809355
:100EC0003B0290933C0208951F920F920FB60F922F
:100ED00011242F933F938F939F93AF93BF93809150
:100EE0006B0290916C02A0916D02B0916E023091F4
:100EF0006A0223E0230F2D3720F40196A11DB11DB6
:100F000005C026E8230F0296A11DB11D20936A0299
:100F100080936B0290936C02A0936D02B0936E026B
:100F200080916F0290917002A0917102B091720253
:100F30000196A11DB11D80936F0290937002A09342
:100F40007102B0937202BF91AF919F918F913F91C7
:100F50002F910F900FBE0F901F9018952FB7F894F8
:100F600060916B0270916C0280916D0290916E02A3
:100F70002FBF08953FB7F89480916F02909170024F
:100F8000A0917102B091720226B5A89B05C02F3FB7
:100F900019F00196A11DB11D3FBF6627782F892F3B
:100FA0009A2F620F711D811D911D42E0660F771F00
:100FB000881F991F4A95D1F70895CF92DF92EF923B
:100FC000FF92CF93DF936B017C010E94BA07EB0184
:100FD000C114D104E104F10489F00E94560C0E946E
:100FE000BA076C1B7D0B683E734090F381E0C81A12
:100FF000D108E108F108C851DC4FEACFDF91CF9169
:10100000FF90EF90DF90CF900895789484B5826040
:1010100084BD84B5816084BD85B5826085BD85B59C
:10102000816085BDEEE6F0E0808181608083E1E84B
:10103000F0E0108280818260808380818160808383
:10104000E0E8F0E0808181608083E1EBF0E0808186
:1010500084608083E0EBF0E0808181608083EAE758
:10106000F0E08081846080838081826080838081E1
:10107000816080838081806880831092C1000895A0
:101080008E3008F08E5087702091070190E4299FE0
:1010900090011124822B80937C0080917A008064DF
:1010A00080937A0080917A0086FDFCCF8091780051
:1010B0002091790090E0922B08951F93CF93DF93B6
:1010C000182FEB0161E00E94E508209711F460E021
:1010D00004C0CF3FD10539F461E0812FDF91CF917A
:1010E0001F910C941E09E12FF0E0E657FF4FE491A9
:1010F000E330F9F048F4E130B9F0E230A1F584B51D
:10110000806284BDC8BD34C0E730E9F0E83019F131
:10111000E43049F580918000806280938000D09314
:101120008B00C0938A0024C084B5806884BDC7BD8D
:101130001FC080918000806880938000D0938900D8
:10114000C093880015C08091B00080688093B00083
:10115000C093B3000DC08091B00080628093B00056
:10116000C093B40005C0C038D1050CF0B5CFAFCFE7
:10117000DF91CF911F910895833081F028F4813061
:1011800099F08230A1F008958730A9F08830B9F045
:101190008430D1F4809180008F7D03C080918000E5
:1011A0008F7780938000089584B58F7702C084B5CF
:1011B0008F7D84BD08958091B0008F7703C08091AA
:1011C000B0008F7D8093B0000895CF93DF9390E0BF
:1011D000FC01E256FF4F2491FC01EE54FF4F849135
:1011E000882349F190E0880F991FFC01E053FF4FDD
:1011F000A591B4918A539F4FFC01C591D4919FB79B
:10120000611108C0F8948C91209582238C93888179
:1012100082230AC0623051F4F8948C91322F3095B9
:1012200083238C938881822B888304C0F8948C91CB
:10123000822B8C939FBFDF91CF9108950F931F93C3
:10124000CF93DF931F92CDB7DEB7282F30E0F9019F
:10125000E657FF4F8491F901E256FF4F1491F901CF
:10126000EE54FF4F04910023C9F0882321F06983D5
:101270000E94BC086981E02FF0E0EE0FFF1FEA53E7
:10128000FF4FA591B4919FB7F8948C91611103C061
:101290001095812301C0812B8C939FBF0F90DF910C
:1012A000CF911F910F910895FC01818D228D90E0C7
:1012B000805C9F4F821B91098F7399270895FC01D1
:1012C000918D828D981731F0828DE80FF11D858DFB
:1012D00090E008958FEF9FEF0895FC01918D828D2E
:1012E000981761F0828DDF01A80FB11D5D968C917A
:1012F000928D9F5F9F73928F90E008958FEF9FEF85
:10130000089581EF9AE0892B49F080E090E0892BE5
:1013100029F00E94F10A81110C9400000895FC014B
:10132000848DDF01A80FB11DA35ABF4F2C91848D6E
:1013300090E001968F739927848FA689B7892C93A3
:10134000A089B1898C9180648C93938D848D98133E
:1013500006C00288F389E02D80818F7D8083089507
:10136000CF93DF93EC01888D8823C9F0EA89FB894C
:10137000808185FD05C0A889B9898C9186FD0FC043
:101380000FB607FCF5CF808185FFF2CFA889B98918
:101390008C9185FFEDCFCE010E948F09E7CFDF91C1
:1013A000CF910895CF92DF92FF920F931F93CF9327
:1013B000DF931F92CDB7DEB76C0181E0D60158965E
:1013C0008C9358975B969C915B975C968C915C97FD
:1013D000981307C05096ED91FC915197808185FD3F
:1013E0002EC0F601038D10E00F5F1F4F0F73112702
:1013F000F02EF601848DF81211C00FB607FCF9CF5C
:10140000D6015096ED91FC915197808185FFF1CFE7
:10141000C60169830E948F096981EBCF838DE80F34
:10142000F11DE35AFF4F6083D6015B960C935B97E7
:101430005296ED91FC915397808180620CC0D60149
:101440005696ED91FC91579760835096ED91FC91E3
:10145000519780818064808381E090E00F90DF91DC
:10146000CF911F910F91FF90DF90CF900895BF9281
:10147000CF92DF92EF92FF92CF93DF93EC016A015C
:101480007B01B22EE889F98982E08083411581EEE3
:10149000580761057105A1F060E079E08DE390E007
:1014A000A70196010E941F0D2150310941095109E0
:1014B0005695479537952795211580E1380798F07F
:1014C000E889F989108260E874E88EE190E0A7016C
:1014D00096010E941F0D215031094109510956956D
:1014E000479537952795EC85FD853083EE85FF85FB
:1014F0002083188EEC89FD89B082EA89FB8980817E
:1015000080618083EA89FB89808188608083EA89A1
:10151000FB89808180688083EA89FB8980818F7D57
:101520008083DF91CF91FF90EF90DF90CF90BF90BD
:1015300008951F920F920FB60F9211242F938F933D
:101540009F93EF93FF93E0918302F0918402808157
:10155000E0918902F0918A0282FD12C0908180910F
:101560008C028F5F8F7320918D02821751F0E09172
:101570008C02F0E0ED58FD4F958F80938C0201C0F6
:101580008081FF91EF919F918F912F910F900FBECE
:101590000F901F9018951F920F920FB60F92112463
:1015A0002F933F934F935F936F937F938F939F936B
:1015B000AF93BF93EF93FF9383E792E00E948F096D
:1015C000FF91EF91BF91AF919F918F917F916F911B
:1015D0005F914F913F912F910F900FBE0F901F90F1
:1015E000189583E792E00E94540921E0892B09F4C1
:1015F00020E0822F0895109276021092750288EEF4
:1016000093E0A0E0B0E08093770290937802A093FB
:101610007902B0937A0281EA91E090937402809308
:10162000730285EC90E09093800280937F0284ECBB
:1016300090E0909382028093810280EC90E09093FE
:1016400084028093830281EC90E0909386028093E1
:10165000850282EC90E0909388028093870286EC6A
:1016600090E090938A028093890210928C021092EB
:101670008D0210928E0210928F02089508950E949A
:1016800005080E943E0B0E949B05C1E8D9E00E941C
:1016900047062097E1F30E948109F9CFCF92DF92AC
:1016A000EF92FF920F931F93CF93DF936C017A0118
:1016B000EB01E60EF71E00E010E0CE15DF0561F04D
:1016C0006991D601ED91FC910190F081E02DC60168
:1016D0000995080F191FF1CFC801DF91CF911F9114
:1016E0000F91FF90EF90DF90CF90089561157105F5
:1016F00081F0DB010D900020E9F7AD014150510967
:10170000461B570BDC01ED91FC910280F381E02D2B
:10171000099480E090E008950C94760BDC01ED9143
:10172000FC910190F081E02D09946DEA71E00C9438
:10173000760B0F931F93CF93DF93EC010E94760BF0
:101740008C01CE010E94950B800F911FDF91CF91EC
:101750001F910F9108958F929F92AF92BF92CF9257
:10176000DF92EF92FF920F931F93CF93DF93CDB74A
:10177000DEB7A1970FB6F894DEBF0FBECDBF7C01D8
:10178000C42EE52FCB01D22E19A221E02D1510F089
:101790002AE0D22E8E010F5D1F4F8D2C912CA12C93
:1017A000B12C6C2D7E2FA50194010E941F0D8C2D54
:1017B000D29E80191124015011098A3014F4805DE1
:1017C00001C0895CF801808321153105410551056F
:1017D00021F0C22EE32FCA01E4CFB801C7010E9455
:1017E000760BA1960FB6F894DEBF0FBECDBFDF918A
:1017F000CF911F910F91FF90EF90DF90CF90BF900E
:10180000AF909F908F900895CF92DF92EF92FF92CA
:101810000F931F93CF93DF93EC016A017B01211596
:10182000310579F4E881F9810190F081E02D642F90
:10183000DF91CF911F910F91FF90EF90DF90CF90AC
:1018400009942A303105E9F477FF1AC06DE20E944D
:101850008E0B8C0144275527BA014C195D096E097E
:101860007F092AE0CE010E94AB0B800F911FDF9110
:10187000CF911F910F91FF90EF90DF90CF9008953F
:101880002AE0B701A601CE01DF91CF911F910F9100
:10189000FF90EF90DF90CF900C94AB0B9A01AB01CF
:1018A000662757FD6095762F0C94040C089597F9E0
:1018B0009F6780E870E060E008959FEF80EC0895F6
:1018C00000240A941616170618060906089500241F
:1018D0000A9412161306140605060895092E039499
:1018E000000C11F4882352F0BB0F40F4BF2B11F40D
:1018F00060FF04C06F5F7F4F8F4F9F4F089557FD6C
:101900009058440F551F59F05F3F71F04795880F6D
:1019100097FB991F61F09F3F79F087950895121604
:1019200013061406551FF2CF4695F1DF08C01616B0
:1019300017061806991FF1CF869571056105089461
:101940000895E894BB2766277727CB0197F9089578
:101950000BD0C4CFB5DF28F0BADF18F0952309F01B
:10196000A6CFABCF1124EECFCADFA0F3959FD1F362
:10197000950F50E0551F629FF001729FBB27F00D3D
:10198000B11D639FAA27F00DB11DAA1F649F662792
:10199000B00DA11D661F829F2227B00DA11D621FE1
:1019A000739FB00DA11D621F839FA00D611D221F9B
:1019B000749F3327A00D611D231F849F600D211D7F
:1019C000822F762F6A2F11249F5750408AF0E1F022
:1019D00088234AF0EE0FFF1FBB1F661F771F881F6B
:1019E00091505040A9F79E3F510570F060CFAACFAB
:1019F0005F3FECF3983EDCF3869577956795B79556
:101A0000F795E7959F5FC1F7FE2B880F911D96957F
:101A1000879597F9089597FB072E16F4009407D041
:101A200077FD09D00E94470D07FC05D03EF4909544
:101A300081959F4F0895709561957F4F0895A1E21C
:101A40001A2EAA1BBB1BFD010DC0AA1FBB1FEE1F38
:101A5000FF1FA217B307E407F50720F0A21BB30B83
:101A6000E40BF50B661F771F881F991F1A9469F7FF
:101A700060957095809590959B01AC01BD01CF015B
:101A80000895EE0FFF1F0590F491E02D0994AA1B15
:101A9000BB1B51E107C0AA1FBB1FA617B70710F059
:101AA000A61BB70B881F991F5A95A9F7809590958B
:0A1AB000BC01CD010895F894FFCFAA
:101ABA00083F0E0AD723400149522053656E736FBF
:101ACA00722052656164696E67733A2000090047A3
:101ADA006F205374726169676874005475726E205E
:101AEA00736C696768746C79206C656674005475E8
:101AFA00726E20736C696768742072696768740013
:101B0A00647269766544697374616E636528292015
:101B1A000020696E636865732061742000206C651B
:101B2A00667420706F7765722E0020726967687418
:101B3A0020706F7765722E004D6F766520666F7222
:101B4A007761726420616E20696E6368000000002C
:101B5A0000D2094E0B54096D095F09B0090D0A003C
:0C1B6A006E616E00696E66006F766600AA
:00000001FF
