:100000000C946F000C9497000C9497000C94B5011D
:100010000C94F0020C944A030C9497000C949700F3
:100020000C9497000C9497000C9497000C949700F4
:100030000C9497000C9497000C9497000C949700E4
:100040000C945A090C9497000C948F0C0C94C10CCE
:100050000C9497000C9497000C9497000C949700C4
:100060000C9497000C949700DE03210421042104D2
:1000700021042104F00300041004210421047C0362
:100080008C039E03AE03BE03CE03000000080002F3
:10009000010000030407000000000000000001024E
:1000A0000408102040800102040810200102040806
:1000B00010200404040404040404020202020202E4
:1000C00003030303030300000000250028002B00A6
:1000D00000000000240027002A001909F10C112457
:1000E0001FBECFEFD8E0DEBFCDBF11E0A0E0B1E092
:1000F000EAE7F3E202C005900D92A63EB107D9F7F8
:1001000023E0A6EEB1E001C01D92AA33B207E1F7E9
:1001100010E0CEEDD0E004C02297FE010E94A311B2
:10012000CA3DD107C9F70E94350D0C94BB110C9440
:100130000000CF92DF92EF92FF92E82FF0E0DF0114
:10014000A851BE4F8C918230F9F078F4813009F0DB
:1001500052C0EE0FFF1FEF5FFD4F0190F081E02DC9
:10016000FF90EF90DF90CF900994833021F184309D
:1001700009F041C08091E6019091E701FF90EF9076
:10018000DF90CF900C947C05C090F901D090FA01DB
:10019000E090FB01F090FC010E94B00922E3C20E46
:1001A000D11CE11CF11CC616D706E806F90618F5A5
:1001B00060E070E016C0C090FD01D090FE01E090BC
:1001C000FF01F09000020E94B00922E3C20ED11C90
:1001D000E11CF11CC616D706E806F90660F461E0DA
:1001E00070E08091150290911602FF90EF90DF90E1
:1001F000CF900C945D04FF90EF90DF90CF90089526
:10020000CF93C82F8091020181FF02C0C1FF46C079
:100210008091020181FD2CC0C1FF2AC08091EF01B5
:10022000823051F40E94B0096093F9017093FA0191
:100230008093FB019093FC018091EF01833051F496
:100240000E94B0096093FD017093FE018093FF014D
:10025000909300028091EF01813051F40E94A40933
:100260006093F5017093F6018093F7019093F80184
:100270008091020182FF16C0C2FD14C088E00E9476
:1002800099008091020183FF3EC0C3FD3CC089E01C
:100290000E949900C0930201CF91089587E00E94C7
:1002A0009900E6CF8091020182FDEBCFC2FFE9CF3A
:1002B0008091F001823051F40E94B0096093F901FD
:1002C0007093FA018093FB019093FC018091F001FF
:1002D000833051F40E94B0096093FD017093FE01D8
:1002E0008093FF01909300028091F001813049F6E4
:1002F0000E94A4096093F5017093F6018093F701C1
:100300009093F801BECF8091020182FDC3CFC2FF5E
:10031000C1CF8091F101823051F40E94B009609305
:10032000F9017093FA018093FB019093FC01809195
:10033000F101833051F40E94B0096093FD01709384
:10034000FE018093FF01909300028091F1018130C2
:1003500009F0A0CF0E94A4096093F5017093F60103
:100360008093F7019093F80195CF1F920F920FB6EB
:100370000F9211242F933F934F935F936F937F932B
:100380008F939F93AF93BF93EF93FF9393B180911C
:10039000F40189230E940001FF91EF91BF91AF9179
:1003A0009F918F917F916F915F914F913F912F918D
:1003B0000F900FBE0F901F901895CF93C82F80916C
:1003C000010180FF02C0C0FF53C08091010180FD88
:1003D0001EC0C0FF1CC08091E801823051F40E9411
:1003E000A4096093F9017093FA018093FB01909343
:1003F000FC018091E801833051F40E94A4096093CC
:10040000FD017093FE018093FF01909300028091A3
:10041000010181FF31C0C1FD2FC081E00E94990020
:100420008091010182FF4CC0C2FD4AC082E00E945F
:1004300099008091010183FF67C0C3FD65C083E01F
:100440000E9499008091010184FF82C0C4FD80C098
:1004500084E00E9499008091010185FF9DC0C5FD47
:100460009BC085E00E949900C0930101CF9108953F
:1004700080E00E949900CBCF8091010181FDD0CF17
:10048000C1FFCECF8091E901823051F40E94A409CE
:100490006093F9017093FA018093FB019093FC0142
:1004A0008091E901833009F0BBCF0E94A4096093D9
:1004B000FD017093FE018093FF0190930002B0CF85
:1004C0008091010182FDB5CFC2FFB3CF8091EA01D7
:1004D000823051F40E94A4096093F9017093FA01EB
:1004E0008093FB019093FC018091EA01833009F035
:1004F000A0CF0E94A4096093FD017093FE01809338
:10050000FF019093000295CF8091010183FD9ACF66
:10051000C3FF98CF8091EB01823051F40E94A4096F
:100520006093F9017093FA018093FB019093FC01B1
:100530008091EB01833009F085CF0E94A40960937C
:10054000FD017093FE018093FF01909300027ACF2A
:100550008091010184FD7FCFC4FF7DCF8091EC01AC
:10056000823051F40E94A4096093F9017093FA015A
:100570008093FB019093FC018091EC01833009F0A2
:100580006ACF0E94A4096093FD017093FE018093DD
:10059000FF01909300025FCF8091010185FD64CF40
:1005A000C5FF62CF8091ED01823051F40E94A40911
:1005B0006093F9017093FA018093FB019093FC0121
:1005C0008091ED01833009F04FCF0E94A409609320
:1005D000FD017093FE018093FF019093000244CFD0
:1005E0001F920F920FB60F9211242F933F934F93A8
:1005F0005F936F937F938F939F93AF93BF93EF938B
:10060000FF9396B18091F30189230E94DD01FF9150
:10061000EF91BF91AF919F918F917F916F915F917A
:100620004F913F912F910F900FBE0F901F901895F3
:10063000CF93C82F8091000183FF02C0C3FF26C063
:100640008091000183FD1EC0C3FF1CC08091EE019C
:10065000823051F40E94A4096093F9017093FA0169
:100660008093FB019093FC018091EE01833051F463
:100670000E94A4096093FD017093FE018093FF0125
:1006800090930002C0930001CF91089586E00E94EC
:100690009900F8CF1F920F920FB60F9211242F934B
:1006A0003F934F935F936F937F938F939F93AF93FA
:1006B000BF93EF93FF9399B18091F20189230E9438
:1006C0001803FF91EF91BF91AF919F918F917F910F
:1006D0006F915F914F913F912F910F900FBE0F90AF
:1006E0001F90189503978131910508F0AAC08C5C82
:1006F0009F4FFC010C94A11180916C00816080934C
:100700006C00809168008260809368006093E801CB
:100710008091F30181600FC080916C0082608093B2
:100720006C00809168008260809368006093E901AA
:100730008091F30182608093F301089580916C00B1
:10074000846080936C008091680082608093680070
:100750006093EA018091F3018460EDCF80916C0099
:10076000886080936C00809168008260809368004C
:100770006093EB018091F3018860DDCF80916C0084
:10078000806180936C008091680082608093680033
:100790006093EC018091F3018061CDCF80916C007A
:1007A000806280936C008091680082608093680012
:1007B0006093ED018091F3018062BDCF80916D0067
:1007C000886080936D0080916800846080936800E9
:1007D0006093EE018091F20188608093F2010895A8
:1007E00080916B00826080936B00809168008160D3
:1007F000809368006093EF018091F40182601FC0D4
:1008000080916B00846080936B00809168008160B0
:10081000809368006093F0018091F40184600FC0C0
:1008200080916B00886080936B008091680081608C
:10083000809368006093F1018091F4018860809357
:10084000F4010895EF92FF920F931F93CF93DF93DC
:1008500000D0CDB7DEB77C01062F142F62E0802FC9
:100860005A8379830E94DB0A62E0812F0E94DB0AAF
:1008700062E0802F7981972F0E94720363E0812FBD
:100880005A81952F0E947203F70110821182128201
:1008900013821482158216821782F0921602E09259
:1008A000150281E0808781870F900F90DF91CF91B3
:1008B0001F910F91FF90EF9008950F931F93FC01EC
:1008C00061157105B1F06130710529F501851127B8
:1008D00007FD1095212F312F448155816681778145
:1008E000400F511F621F731F4483558366837783B4
:1008F00012C00085112707FD1095212F312F40814F
:10090000518162817381400F511F621F731F4083A9
:100910005183628373831F910F910895FC016130AD
:10092000710571F06230710539F0672B69F410823E
:100930001182128213820895108211821282138210
:10094000148215821682178208956115710549F087
:100950006130710561F4FC01648175818681978144
:100960000895FC016081718182819381089560E026
:1009700070E0CB01089561E087E00E94DB0A61E04E
:1009800088E00E94DB0A61E082E00E94DB0A61E00D
:1009900084E00C94DB0A61E082E00E94140B61E0C9
:1009A00084E00E94140B60E070E085E00C94530A30
:1009B00061E087E00E94140B61E088E00E94140B64
:1009C00060E070E086E00C94530ACF93DF93EC0173
:1009D0000E94CB04CE01DF91CF910C94D804CF9329
:1009E000C62F61E082E00E94140B60E084E00E9468
:1009F000140B6C2F70E085E00E94530AE091150201
:100A0000F0911602309711F081E08087CF91089520
:100A1000CF93C62F60E082E00E94140B61E084E077
:100A20000E94140B6C2F70E085E00E94530AE09145
:100A30001502F0911602309711F08FEF8087CF9159
:100A400008951616170614F40C940805719561950F
:100A500071090C94EF04CF93C62F61E087E00E94E8
:100A6000140B60E088E00E94140B6C2F70E086E0AD
:100A70000E94530AE0911502F0911602309711F08E
:100A800081E08187CF910895CF93C62F60E087E002
:100A90000E94140B61E088E00E94140B6C2F70E040
:100AA00086E00E94530AE0911502F09116023097F9
:100AB00011F08FEF8187CF9108951616170614F461
:100AC0000C942B057195619571090C944405FC01FA
:100AD000718360838FEF9FEF9383828395838483F9
:100AE0000895FC0180810C94360A20E001972FEFD5
:100AF0008F3F9207D9F70895EF92FF920F931F93BC
:100B0000CF93DF93EC018B899C890E94750508E0E7
:100B100010E0EE24E394F12C8D899E890E947505E6
:100B2000EE85FF8580819D85892311F0FE2803C015
:100B30008E2D8095F822EE0C0150110969F78F89EE
:100B4000988D0E947505809118022091170290E0FF
:100B500001968F73992730E08217930779F0E0911F
:100B60001802F0E0E75EFD4FF0828091180290E0FD
:100B700001968F7399278093180203C08B8D816033
:100B80008B8FDF91CF911F910F91FF90EF90089580
:100B900026E040E855E260E070E08DE992E00E94D6
:100BA0002D0C60ED77E080E090E00E94D3096AE0D0
:100BB00071E08DE992E00E948F0D64EF71E080E0BA
:100BC00090E00C94D3090F931F93CF93DF93C5E06C
:100BD000D0E08CE792E00E947105080F191F219761
:100BE000C1F7C80165E070E00E946B11CB01709302
:100BF0005C0260935B02DF91CF911F910F9108958A
:100C00000F931F93CF93DF93C5E0D0E086E792E088
:100C10000E947105080F191F2197C1F7C80165E0EF
:100C200070E00E946B11CB0170935A0260935902DD
:100C3000DF91CF911F910F9108950F931F93CF9341
:100C4000DF93C5E0D0E088E892E00E947105080FCC
:100C5000191F2197C1F7C80165E070E00E946B1170
:100C6000CB0170935E0260935D02DF91CF911F9183
:100C70000F9108950F931F93CF93DF93C5E0D0E0BA
:100C800082E892E00E947105080F191F2197C1F7B1
:100C9000C80165E070E00E946B11CB0170936002A7
:100CA00060935F02DF91CF911F910F9108950F9391
:100CB0001F93CF93DF93C5E0D0E08EE892E00E94CF
:100CC0007105080F191F2197C1F7C80165E070E091
:100CD0000E946B11CB017093620260936102DF91FD
:100CE000CF911F910F9108956F927F928F929F9253
:100CF000AF92BF92CF92DF92EF92FF920F931F932A
:100D0000CF93DF936B017C01EA0189016FE171E010
:100D10008DE992E00E94820D22E030E0B701A60149
:100D20008DE992E00E94370F60E371E08DE992E077
:100D30000E94820D4AE050E0BE018DE992E00E94DF
:100D4000440E6CE371E08DE992E00E948F0D4AE061
:100D500050E0B8018DE992E00E94440E69E471E030
:100D60008DE992E00E948F0D209163023091640220
:100D70004091650250916602C701B6010E94B50F0D
:100D80006B017C0123E030E0AB01BC018DE992E016
:100D90000E94390F62E070E08CE692E00E948E04BF
:100DA000BE018BE692E00E942105B8018BE692E03D
:100DB0000E945D05612C712CD0E0C0E0B3018D2F45
:100DC0009C2F97FF07C090958095709561957F4FF8
:100DD0008F4F9F4F0E9450104B015C0160910701A3
:100DE00070910801882777FD8095982F0E945010F8
:100DF0009B01AC01C701B6010E9404119B01AC012B
:100E0000C501B4010E94B10F87FF47C060E070E0E8
:100E10008CE692E00E94A5043B01D82FC92F61E027
:100E200070E08CE692E00E94A5044B015C012AE090
:100E300030E0A3016D2F7C2F8DE992E00E94FA0D26
:100E400067E571E08DE992E00E94820D2AE030E0D2
:100E5000B501A4018DE992E00E94FA0D67E571E009
:100E60008DE992E00E94820D609107017091080166
:100E7000882777FD8095982F0E9450109B01AC0128
:100E8000C701B6010E940411AB01BC0122E030E0B1
:100E90008DE992E00E94390F91CF8BE692E0DF91CD
:100EA000CF911F910F91FF90EF90DF90CF90BF9067
:100EB000AF909F908F907F906F900C94E50469E5C0
:100EC00071E08DE992E00E948F0D24E630E04CE95C
:100ED0005FEF60E070E080E89FE30E94740668ECDA
:100EE00070E080E090E00E94D3090E9457068335AD
:100EF0009340D4F10E941D0683359340ACF10E94CB
:100F00003A068335934084F10E94E305833593408C
:100F10005CF10E9400068335934034F18BE692E049
:100F20000E94E50410926A0210926902109268020F
:100F3000109267026091690270916A028BE692E0FA
:100F40000E94210560916702709168028BE692E031
:100F50000E945D0562E573E080E090E00E94D309A5
:100F60008BE692E00C94E5040E94E3058235934001
:100F70000CF78CE99FEF90936A028093690290933B
:100F8000680280936702D6CF69E571E08DE992E04F
:100F90000E948F0D24E630E04CE95FEF60E070E0E6
:100FA00080E89FE30E94740668EC70E080E090E0C7
:100FB0000E94D3090E941D06823593403CF484E6CA
:100FC00090E090936A028093690208C08CE99FEFD9
:100FD00090936A028093690284E690E0909368029D
:100FE000809367026091690270916A028BE692E0D9
:100FF0000E94210560916702709168028BE692E081
:101000000E945D0562E573E080E090E00E94D309F4
:101010008BE692E00C94E50486E792E00E9471056D
:101020004AE050E0BC018DE992E00E94440E67E581
:1010300071E08DE992E00E94820D8EE892E00E94BC
:1010400071054AE050E0BC018DE992E00E94440E37
:1010500067E571E08DE992E00E94820D88E892E0F8
:101060000E9471054AE050E0BC018DE992E00E94C7
:10107000440E67E571E08DE992E00E94820D82E8FE
:1010800092E00E9471054AE050E0BC018DE992E0D7
:101090000E94440E67E571E08DE992E00E94820DA6
:1010A0008CE792E00E9471054AE050E0BC018DE9B6
:1010B00092E00E94440E8DE992E00E948B0D0E9406
:1010C0001D06833593407CF06EE671E08DE992E079
:1010D0000E948F0D8CE99FEF90936A0280936902C2
:1010E00084E690E027C00E943A06833593407CF066
:1010F0006AE771E08DE992E00E948F0D84E79FEF2F
:1011000090936A02809369028CE390E013C00E947E
:1011100057068335934094F06DE871E08DE992E0D5
:101120000E948F0D84EC9FEF90936A028093690276
:101130008CE890E090936802809367020E94E30538
:101140008335934054F00E943A06833593402CF047
:101150000E94000682359340DCF10E940006833530
:1011600093407CF00E9457068335934054F00E94D0
:101170001D06833593402CF00E94E3058235934091
:10118000F4F10E945706833593400CF441C00E944D
:101190001D0683359340E4F10E943A06833593405F
:1011A000BCF10E94E3058335934094F10E94000650
:1011B000833593406CF168EB71E08DE992E00E9419
:1011C0008F0D0E945F0760E070E0CB010C94D309A3
:1011D0006FE971E08DE992E00E948F0D8CE99FEF3D
:1011E00090936A02809369029093680280936702E9
:1011F00064EF71E080E090E00E94D309C2CF6AEA18
:1012000071E08DE992E00E948F0D0E94C407B9CF72
:101210006091690270916A028BE692E00E9421055A
:1012200060916702709168028BE692E00E945D0512
:10123000CACF61E170E08EE892E00E94670564E148
:1012400070E088E892E00E94670565E170E082E85E
:1012500092E00E9467056FE070E08CE792E00E94E8
:1012600067056EE070E086E792E00E9467054AE05D
:1012700050E060E170E08CE692E00E9422048BE690
:1012800092E00E94BB042BED3FE049E450E4609102
:1012900003017091040180910501909106010E9463
:1012A00004116093630270936402809365029093CB
:1012B000660208951F920F920FB60F9211242F937A
:1012C0003F938F939F93AF93BF938091950290919B
:1012D0009602A0919702B09198023091940223E077
:1012E000230F2D3720F40196A11DB11D05C026E85E
:1012F000230F0296A11DB11D2093940280939502A5
:1013000090939602A0939702B093980280919902CD
:1013100090919A02A0919B02B0919C020196A11D0E
:10132000B11D8093990290939A02A0939B02B0936F
:101330009C02BF91AF919F918F913F912F910F9000
:101340000FBE0F901F9018952FB7F89460919502DB
:101350007091960280919702909198022FBF089504
:101360003FB7F8948091990290919A02A0919B02C4
:10137000B0919C0226B5A89B05C02F3F19F001969D
:10138000A11DB11D3FBF6627782F892F9A2F620FAD
:10139000711D811D911D42E0660F771F881F991FE7
:1013A0004A95D1F70895CF92DF92EF92FF92CF93B3
:1013B000DF936B017C010E94B009EB01C114D104E1
:1013C000E104F10489F00E944B0F0E94B0096C1BEC
:1013D0007D0B683E734090F381E0C81AD108E108A4
:1013E000F108C851DC4FEACFDF91CF91FF90EF9029
:1013F000DF90CF900895789484B5826084BD84B5E1
:10140000816084BD85B5826085BD85B5816085BDFF
:10141000EEE6F0E0808181608083E1E8F0E0108218
:10142000808182608083808181608083E0E8F0E059
:10143000808181608083E1EBF0E080818460808343
:10144000E0EBF0E0808181608083EAE7F0E080817A
:1014500084608083808182608083808181608083DA
:101460008081806880831092C10008958E3008F0DA
:101470008E5087702091090190E4299F90011124DA
:10148000822B80937C0080917A00806480937A0024
:1014900080917A0086FDFCCF8091780020917900C0
:1014A00090E0922B08951F93CF93DF93182FEB01B9
:1014B00061E00E94DB0A209711F460E004C0CF3F96
:1014C000D10539F461E0812FDF91CF911F910C9408
:1014D000140BE12FF0E0E657FF4FE491E330F9F011
:1014E00048F4E130B9F0E230A1F584B5806284BD02
:1014F000C8BD34C0E730E9F0E83019F1E43049F50F
:1015000080918000806280938000D0938B00C09394
:101510008A0024C084B5806884BDC7BD1FC0809187
:101520008000806880938000D0938900C0938800F9
:1015300015C08091B00080688093B000C093B30064
:101540000DC08091B00080628093B000C093B40061
:1015500005C0C038D1050CF0B5CFAFCFDF91CF912A
:101560001F910895833081F028F4813099F0823002
:10157000A1F008958730A9F08830B9F08430D1F413
:10158000809180008F7D03C0809180008F77809351
:101590008000089584B58F7702C084B58F7D84BDA7
:1015A00008958091B0008F7703C08091B0008F7D47
:1015B0008093B0000895CF93DF9390E0FC01E25652
:1015C000FF4F2491FC01EE54FF4F8491882349F191
:1015D00090E0880F991FFC01E053FF4FA591B49153
:1015E0008A539F4FFC01C591D4919FB7611108C0E8
:1015F000F8948C91209582238C93888182230AC051
:10160000623051F4F8948C91322F309583238C936F
:101610008881822B888304C0F8948C91822B8C93D0
:101620009FBFDF91CF9108950F931F93CF93DF93C7
:101630001F92CDB7DEB7282F30E0F901E657FF4FF4
:101640008491F901E256FF4F1491F901EE54FF4FD6
:1016500004910023C9F0882321F069830E94B20A13
:101660006981E02FF0E0EE0FFF1FEA53FF4FA591D5
:10167000B4919FB7F8948C91611103C010958123A8
:1016800001C0812B8C939FBF0F90DF91CF911F9151
:101690000F910895FC01818D228D90E0805C9F4F19
:1016A000821B91098F7399270895FC01918D828D7A
:1016B000981731F0828DE80FF11D858D90E0089527
:1016C0008FEF9FEF0895FC01918D828D981761F047
:1016D000828DDF01A80FB11D5D968C91928D9F5F69
:1016E0009F73928F90E008958FEF9FEF089587EE9C
:1016F0009CE0892B49F080E090E0892B29F00E9442
:10170000E70C81110C9400000895FC01848DDF0129
:10171000A80FB11DA35ABF4F2C91848D90E0019664
:101720008F739927848FA689B7892C93A089B18953
:101730008C9180648C93938D848D981306C002885D
:10174000F389E02D80818F7D80830895CF93DF938F
:10175000EC01888D8823C9F0EA89FB89808185FDA9
:1017600005C0A889B9898C9186FD0FC00FB607FC0A
:10177000F5CF808185FFF2CFA889B9898C9185FF4B
:10178000EDCFCE010E94850BE7CFDF91CF91089579
:10179000CF92DF92FF920F931F93CF93DF931F920D
:1017A000CDB7DEB76C0181E0D60158968C9358977F
:1017B0005B969C915B975C968C915C97981307C0A5
:1017C0005096ED91FC915197808185FD2EC0F601D8
:1017D000038D10E00F5F1F4F0F731127F02EF601DE
:1017E000848DF81211C00FB607FCF9CFD6015096C0
:1017F000ED91FC915197808185FFF1CFC6016983FE
:101800000E94850B6981EBCF838DE80FF11DE35AB0
:10181000FF4F6083D6015B960C935B975296ED91D8
:10182000FC915397808180620CC0D6015696ED9151
:10183000FC91579760835096ED91FC915197808170
:101840008064808381E090E00F90DF91CF911F91C1
:101850000F91FF90DF90CF900895BF92CF92DF92CB
:10186000EF92FF92CF93DF93EC016A017B01B22EDE
:10187000E889F98982E08083411581EE5807610586
:101880007105A1F060E079E08DE390E0A701960199
:101890000E947F1121503109410951095695479500
:1018A00037952795211580E1380798F0E889F9895F
:1018B000108260E874E88EE190E0A70196010E9432
:1018C0007F112150310941095109569547953795A6
:1018D0002795EC85FD853083EE85FF852083188E66
:1018E000EC89FD89B082EA89FB89808180618083EF
:1018F000EA89FB89808188608083EA89FB8980810D
:1019000080688083EA89FB8980818F7D8083DF9175
:10191000CF91FF90EF90DF90CF90BF9008951F92EE
:101920000F920FB60F9211242F938F939F93EF93E3
:10193000FF93E091AD02F091AE028081E091B3029D
:10194000F091B40282FD12C090818091B6028F5F47
:101950008F732091B702821751F0E091B602F0E048
:10196000E356FD4F958F8093B60201C08081FF91B1
:10197000EF919F918F912F910F900FBE0F901F901D
:1019800018951F920F920FB60F9211242F933F9329
:101990004F935F936F937F938F939F93AF93BF9377
:1019A000EF93FF938DE992E00E94850BFF91EF91F9
:1019B000BF91AF919F918F917F916F915F914F9167
:1019C0003F912F910F900FBE0F901F9018958DE9AA
:1019D00092E00E944A0B21E0892B09F420E0822F3B
:1019E00008951092A00210929F0288EE93E0A0E06A
:1019F000B0E08093A1029093A202A093A302B093BF
:101A0000A4028BEC91E090939E0280939D0285EC62
:101A100090E09093AA028093A90284EC90E09093C6
:101A2000AC028093AB0280EC90E09093AE02809386
:101A3000AD0281EC90E09093B0028093AF0282EC13
:101A400090E09093B2028093B10286EC90E0909384
:101A5000B4028093B3021092B6021092B7021092B1
:101A6000B8021092B902089508950E94FB090E94DD
:101A7000340D0E94C805C7E7DBE00E940C082097E0
:101A8000E1F30E94770BF9CFCF92DF92EF92FF92B2
:101A90000F931F93CF93DF936C017A01EB01E60E56
:101AA000F71E00E010E0CE15DF0561F06991D60168
:101AB000ED91FC910190F081E02DC6010995080F90
:101AC000191FF1CFC801DF91CF911F910F91FF90A6
:101AD000EF90DF90CF9008956115710581F0DB01E3
:101AE0000D900020E9F7AD0141505109461B570BFD
:101AF000DC01ED91FC910280F381E02D099480E0FE
:101B000090E008950C946C0DDC01ED91FC91019036
:101B1000F081E02D099467ED71E00C946C0D0F934A
:101B20001F93CF93DF93EC010E946C0D8C01CE01CB
:101B30000E948B0D800F911FDF91CF911F910F910C
:101B400008958F929F92AF92BF92CF92DF92EF92C1
:101B5000FF920F931F93CF93DF93CDB7DEB7A1977B
:101B60000FB6F894DEBF0FBECDBF7C01C42EE52FAB
:101B7000CB01D22E19A221E02D1510F02AE0D22E91
:101B80008E010F5D1F4F8D2C912CA12CB12C6C2D33
:101B90007E2FA50194010E947F118C2DD29E801969
:101BA0001124015011098A3014F4805D01C0895C50
:101BB000F8018083211531054105510521F0C22E20
:101BC000E32FCA01E4CFB801C7010E946C0DA196B2
:101BD0000FB6F894DEBF0FBECDBFDF91CF911F913E
:101BE0000F91FF90EF90DF90CF90BF90AF909F90BC
:101BF0008F900895CF92DF92EF92FF920F931F93F1
:101C0000CF93DF93EC016A017B012115310579F453
:101C1000E881F9810190F081E02D642FDF91CF916F
:101C20001F910F91FF90EF90DF90CF9009942A3091
:101C30003105E9F477FF1AC06DE20E94840D8C0132
:101C400044275527BA014C195D096E097F092AE01E
:101C5000CE010E94A10D800F911FDF91CF911F91A6
:101C60000F91FF90EF90DF90CF9008952AE0B70199
:101C7000A601CE01DF91CF911F910F91FF90EF90C0
:101C8000DF90CF900C94A10D9A01AB01662757FD10
:101C90006095762F0C94FA0D4F925F926F927F921F
:101CA0008F929F92AF92BF92CF92DF92EF92FF926C
:101CB0000F931F93CF93DF93EC016A017B01B22E48
:101CC0009A01AB01C701B6010E946711882319F080
:101CD0006AED71E027C026013701E89477F82FEF0D
:101CE0003FEF4FE75FE7C301B2010E946711811127
:101CF0000DC02FEF3FEF4FE75FE7C301B2010E9436
:101D0000B10F18161CF46EED71E00CC02FEF3FEF11
:101D10004FE75FE4C701B6010E9400111816ACF44A
:101D200062EE71E0CE01DF91CF911F910F91FF9094
:101D3000EF90DF90CF90BF90AF909F908F907F906B
:101D40006F905F904F900C946C0D2FEF3FEF4FE72B
:101D50005FECC701B6010E94B10F87FDE1CF20E023
:101D600030E0A901C701B6010E94B10F87FF0AC088
:101D70006DE2CE010E94840D8C01F7FAF094F7F821
:101D8000F09402C000E010E0A12C60E070E080E080
:101D90009FE3AB1441F020E030E040E251E40E94C8
:101DA000B50FA394F6CF9B01AC01C701B6010E9409
:101DB0004D0F6B017C010E9422102B013C010E94FF
:101DC0004E109B01AC01C701B6010E944C0F6B0184
:101DD0007C012AE0B301A201CE010E94A10D080FEF
:101DE000191FBB2039F067E471E0CE010E946C0D31
:101DF000080F191F7B2C772041F120E030E040E2F2
:101E000051E4C701B6010E9404116B017C010E94DC
:101E10001D104B01AA2497FCA094BA2C2AE030E0B4
:101E2000B501A401CE010E94FA0D080F191FC501CA
:101E3000B4010E9450109B01AC01C701B6010E9481
:101E40004C0F6B017C017A94D6CFC801DF91CF9102
:101E50001F910F91FF90EF90DF90CF90BF90AF90C8
:101E60009F908F907F906F905F904F9008950C940B
:101E70004C0E0F931F93CF93DF93EC010E944C0EF7
:101E80008C01CE010E948B0D800F911FDF91CF91AD
:101E90001F910F91089508955058BB27AA270ED07F
:101EA00075C166D130F06BD120F031F49F3F11F451
:101EB0001EF45BC10EF4E095E7FB51C1E92F77D129
:101EC00080F3BA17620773078407950718F071F457
:101ED0009EF58FC10EF4E0950B2EBA2FA02D0B01AD
:101EE000B90190010C01CA01A0011124FF27591B5F
:101EF00099F0593F50F4503E68F11A16F040A22F65
:101F0000232F342F4427585FF3CF469537952795D5
:101F1000A795F0405395C9F77EF41F16BA0B620BD4
:101F2000730B840BBAF09150A1F0FF0FBB1F661F1B
:101F3000771F881FC2F70EC0BA0F621F731F841F5E
:101F400048F4879577956795B795F7959E3F08F084
:101F5000B3CF9395880F08F09927EE0F9795879543
:101F60000895D9D008F481E008950CD00FC107D1AD
:101F700040F0FED030F021F45F3F19F0F0C0511175
:101F800039C1F3C014D198F39923C9F35523B1F3A0
:101F9000951B550BBB27AA2762177307840738F0D8
:101FA0009F5F5F4F220F331F441FAA1FA9F333D037
:101FB0000E2E3AF0E0E830D091505040E695001CEB
:101FC000CAF729D0FE2F27D0660F771F881FBB1FA7
:101FD000261737074807AB07B0E809F0BB0B802D81
:101FE000BF01FF2793585F4F2AF09E3F510568F0CD
:101FF000B6C000C15F3FECF3983EDCF38695779561
:102000006795B795F7959F5FC9F7880F911D9695CE
:10201000879597F90895E1E0660F771F881FBB1F2A
:10202000621773078407BA0720F0621B730B840BD7
:10203000BA0BEE1F88F7E095089504D06894B111AB
:10204000D9C00895BCD088F09F5790F0B92F992738
:10205000B751A0F0D1F0660F771F881F991F1AF0B3
:10206000BA95C9F712C0B13081F0C3D0B1E008957C
:10207000C0C0672F782F8827B85F39F0B93FCCF3FD
:10208000869577956795B395D9F73EF490958095A9
:10209000709561957F4F8F4F9F4F0895E89409C0C9
:1020A00097FB3EF490958095709561957F4F8F4F8B
:1020B0009F4F9923A9F0F92F96E9BB279395F695A1
:1020C000879577956795B795F111F8CFFAF4BB0F1F
:1020D00011F460FF1BC06F5F7F4F8F4F9F4F16C083
:1020E000882311F096E911C0772321F09EE8872F0D
:1020F000762F05C0662371F096E8862F70E060E0C9
:102100002AF09A95660F771F881FDAF7880F969541
:10211000879597F90895990F0008550FAA0BE0E8E5
:10212000FEEF16161706E807F907C0F01216130699
:10213000E407F50798F0621B730B840B950B39F4D9
:102140000A2661F0232B242B252B21F408950A263F
:1021500009F4A140A6958FEF811D811D089597F97F
:102160009F6780E870E060E008959FEF80EC08953D
:1021700000240A9416161706180609060895002466
:102180000A9412161306140605060895092E0394E0
:10219000000C11F4882352F0BB0F40F4BF2B11F454
:1021A00060FF04C06F5F7F4F8F4F9F4F089557FDB3
:1021B0009058440F551F59F05F3F71F04795880FB5
:1021C00097FB991F61F09F3F79F08795089512164C
:1021D00013061406551FF2CF4695F1DF08C01616F8
:1021E00017061806991FF1CF8695710561050894A9
:1021F0000895E894BB2766277727CB0197F90895C0
:102200008ADF08F48FEF08950BD0C0CFB1DF28F03C
:10221000B6DF18F0952309F0A2CFA7CF1124EACF9B
:10222000C6DFA0F3959FD1F3950F50E0551F629F35
:10223000F001729FBB27F00DB11D639FAA27F00D1F
:10224000B11DAA1F649F6627B00DA11D661F829F46
:102250002227B00DA11D621F739FB00DA11D621F2B
:10226000839FA00D611D221F749F3327A00D611D48
:10227000231F849F600D211D822F762F6A2F11242A
:102280009F5750408AF0E1F088234AF0EE0FFF1F7D
:10229000BB1F661F771F881F91505040A9F79E3FB4
:1022A000510570F05CCFA6CF5F3FECF3983EDCF3B6
:1022B000869577956795B795F795E7959F5FC1F7F1
:1022C000FE2B880F911D9695879597F9089523DF2A
:1022D000880B990B089597FB072E16F4009407D0EE
:1022E00077FD09D00E94A71107FC05D03EF4909518
:1022F00081959F4F0895709561957F4F0895A1E254
:102300001A2EAA1BBB1BFD010DC0AA1FBB1FEE1F6F
:10231000FF1FA217B307E407F50720F0A21BB30BBA
:10232000E40BF50B661F771F881F991F1A9469F736
:1023300060957095809590959B01AC01BD01CF0192
:102340000895EE0FFF1F0590F491E02D0994AA1B4C
:10235000BB1B51E107C0AA1FBB1FA617B70710F090
:10236000A61BB70B881F991F5A95A9F780959095C2
:0A237000BC01CD010895F894FFCFE1
:10237A00083F0E0AD72340C0000149522053656E18
:10238A00736F722052656164696E67733A200064E4
:10239A007269766544697374616E636528292000E1
:1023AA0020696E636865732061742000206C65661D
:1023BA007420706F7765722E0020726967687420C6
:1023CA00706F7765722E0009004D6F766520666F13
:1023DA00727761726420616E20696E636800476F6C
:1023EA00205374726169676874005475726E207341
:1023FA006C696768746C79206C65667400547572D0
:10240A006E20736C69676874207269676874005417
:10241A0075726E205249474854006465636964695D
:10242A006E67206C656674006465636964696E67CB
:10243A002072696768740000000000C80B440D4AE6
:10244A000B630B550BA60B0D0A006E616E00696ECD
:06245A0066006F766600CB
:00000001FF
