:100000000C946F000C9497000C9497000C94B5011D
:100010000C94F0020C944A030C9497000C949700F3
:100020000C9497000C9497000C9497000C949700F4
:100030000C9497000C9497000C9497000C949700E4
:100040000C944B070C9497000C94800A0C94B20A01
:100050000C9497000C9497000C9497000C949700C4
:100060000C9497000C949700DE03210421042104D2
:1000700021042104F00300041004210421047C0362
:100080008C039E03AE03BE03CE03000000080002F3
:10009000010000030407000000000000000001024E
:1000A0000408102040800102040810200102040806
:1000B00010200404040404040404020202020202E4
:1000C00003030303030300000000250028002B00A6
:1000D00000000000240027002A000A07E20A112479
:1000E0001FBECFEFD8E0DEBFCDBF11E0A0E0B1E092
:1000F000E8E8FAE102C005900D92AC38B107D9F7F3
:1001000022E0ACE8B1E001C01D92AC3DB207E1F7DE
:1001100010E0CEEDD0E004C02297FE010E942A0D2F
:10012000CA3DD107C9F70E94260B0C94420D0C94CE
:100130000000CF92DF92EF92FF92E82FF0E0DF0114
:10014000A257BE4F8C918230F9F078F4813009F0DB
:1001500052C0EE0FFF1FE955FE4F0190F081E02DD8
:10016000FF90EF90DF90CF900994833021F184309D
:1001700009F041C080918C0190918D01FF90EF902A
:10018000DF90CF900C944F05C0909F01D090A001BC
:10019000E090A101F090A2010E94A10722E3C20E0B
:1001A000D11CE11CF11CC616D706E806F90618F5A5
:1001B00060E070E016C0C090A301D090A401E09070
:1001C000A501F090A6010E94A10722E3C20ED11C56
:1001D000E11CF11CC616D706E806F90660F461E0DA
:1001E00070E08091BB019091BC01FF90EF90DF9097
:1001F000CF900C945D04FF90EF90DF90CF90089526
:10020000CF93C82F8091020181FF02C0C1FF46C079
:100210008091020181FD2CC0C1FF2AC0809195010F
:10022000823051F40E94A10760939F017093A00156
:100230008093A1019093A20180919501833051F4A4
:100240000E94A1076093A3017093A4018093A5016C
:100250009093A60180919501813051F40E949507F9
:1002600060939B0170939C0180939D0190939E01EC
:100270008091020182FF16C0C2FD14C088E00E9476
:1002800099008091020183FF3EC0C3FD3CC089E01C
:100290000E949900C0930201CF91089587E00E94C7
:1002A0009900E6CF8091020182FDEBCFC2FFE9CF3A
:1002B00080919601823051F40E94A10760939F01C2
:1002C0007093A0018093A1019093A2018091960167
:1002D000833051F40E94A1076093A3017093A4019D
:1002E0008093A5019093A60180919601813049F6F3
:1002F0000E94950760939B0170939C0180939D01E0
:1003000090939E01BECF8091020182FDC3CFC2FFB8
:10031000C1CF80919701823051F40E94A107609370
:100320009F017093A0018093A1019093A2018091FD
:100330009701833051F40E94A1076093A301709349
:10034000A4018093A5019093A6018091970181302B
:1003500009F0A0CF0E94950760939B0170939C01C8
:1003600080939D0190939E0195CF1F920F920FB69F
:100370000F9211242F933F934F935F936F937F932B
:100380008F939F93AF93BF93EF93FF9393B180911C
:100390009A0189230E940001FF91EF91BF91AF91D3
:1003A0009F918F917F916F915F914F913F912F918D
:1003B0000F900FBE0F901F901895CF93C82F80916C
:1003C000010180FF02C0C0FF53C08091010180FD88
:1003D0001EC0C0FF1CC080918E01823051F40E946B
:1003E000950760939F017093A0018093A101909362
:1003F000A20180918E01833051F40E949507609391
:10040000A3017093A4018093A5019093A60180910C
:10041000010181FF31C0C1FD2FC081E00E94990020
:100420008091010182FF4CC0C2FD4AC082E00E945F
:1004300099008091010183FF67C0C3FD65C083E01F
:100440000E9499008091010184FF82C0C4FD80C098
:1004500084E00E9499008091010185FF9DC0C5FD47
:100460009BC085E00E949900C0930101CF9108953F
:1004700080E00E949900CBCF8091010181FDD0CF17
:10048000C1FFCECF80918F01823051F40E94950739
:1004900060939F017093A0018093A1019093A201AA
:1004A00080918F01833009F0BBCF0E949507609344
:1004B000A3017093A4018093A5019093A601B0CFEE
:1004C0008091010182FDB5CFC2FFB3CF8091900131
:1004D000823051F40E94950760939F017093A001B0
:1004E0008093A1019093A20180919001833009F043
:1004F000A0CF0E9495076093A3017093A4018093FD
:10050000A5019093A60195CF8091010183FD9ACF1B
:10051000C3FF98CF80919101823051F40E949507DA
:1005200060939F017093A0018093A1019093A20119
:1005300080919101833009F085CF0E9495076093E7
:10054000A3017093A4018093A5019093A6017ACF93
:100550008091010184FD7FCFC4FF7DCF8091920106
:10056000823051F40E94950760939F017093A0011F
:100570008093A1019093A20180919201833009F0B0
:100580006ACF0E9495076093A3017093A4018093A2
:10059000A5019093A6015FCF8091010185FD64CFF5
:1005A000C5FF62CF80919301823051F40E9495077C
:1005B00060939F017093A0018093A1019093A20189
:1005C00080919301833009F04FCF0E94950760938B
:1005D000A3017093A4018093A5019093A60144CF39
:1005E0001F920F920FB60F9211242F933F934F93A8
:1005F0005F936F937F938F939F93AF93BF93EF938B
:10060000FF9396B18091990189230E94DD01FF91AA
:10061000EF91BF91AF919F918F917F916F915F917A
:100620004F913F912F910F900FBE0F901F901895F3
:10063000CF93C82F8091000183FF02C0C3FF26C063
:100640008091000183FD1EC0C3FF1CC080919401F6
:10065000823051F40E94950760939F017093A0012E
:100660008093A1019093A20180919401833051F471
:100670000E9495076093A3017093A4018093A50144
:100680009093A601C0930001CF91089586E00E9447
:100690009900F8CF1F920F920FB60F9211242F934B
:1006A0003F934F935F936F937F938F939F93AF93FA
:1006B000BF93EF93FF9399B18091980189230E9492
:1006C0001803FF91EF91BF91AF919F918F917F910F
:1006D0006F915F914F913F912F910F900FBE0F90AF
:1006E0001F90189503978131910508F0AAC08C5C82
:1006F0009F4FFC010C94280D80916C0081608093C9
:100700006C008091680082608093680060938E0125
:100710008091990181600FC080916C00826080930C
:100720006C008091680082608093680060938F0104
:1007300080919901826080939901089580916C0065
:10074000846080936C008091680082608093680070
:1007500060939001809199018460EDCF80916C004D
:10076000886080936C00809168008260809368004C
:1007700060939101809199018860DDCF80916C0038
:10078000806180936C008091680082608093680033
:1007900060939201809199018061CDCF80916C002E
:1007A000806280936C008091680082608093680012
:1007B00060939301809199018062BDCF80916D001B
:1007C000886080936D0080916800846080936800E9
:1007D00060939401809198018860809398010895B6
:1007E00080916B00826080936B00809168008160D3
:1007F000809368006093950180919A0182601FC088
:1008000080916B00846080936B00809168008160B0
:10081000809368006093960180919A0184600FC074
:1008200080916B00886080936B008091680081608C
:10083000809368006093970180919A01886080930B
:100840009A010895EF92FF920F931F93CF93DF9336
:1008500000D0CDB7DEB77C01062F142F62E0802FC9
:100860005A8379830E94CC0862E0812F0E94CC08D1
:1008700062E0802F7981972F0E94720363E0812FBD
:100880005A81952F0E947203F70110821182128201
:1008900013821482158216821782F092BC01E092B4
:1008A000BB0181E0808781870F900F90DF91CF910E
:1008B0001F910F91FF90EF9008950F931F93FC01EC
:1008C00061157105B1F06130710529F501851127B8
:1008D00007FD1095212F312F448155816681778145
:1008E000400F511F621F731F4483558366837783B4
:1008F00012C00085112707FD1095212F312F40814F
:10090000518162817381400F511F621F731F4083A9
:100910005183628373831F910F91089561E087E093
:100920000E94CC0861E088E00E94CC0861E082E08F
:100930000E94CC0861E084E00C94CC0861E082E085
:100940000E94050961E084E00E94050960E070E012
:1009500085E00C94440861E087E00E94050961E0AD
:1009600088E00E94050960E070E086E00C9444088D
:10097000CF93DF93EC010E949E04CE01DF91CF91D3
:100980000C94AB04CF93C62F61E082E00E9405096E
:1009900060E084E00E9405096C2F70E085E00E9411
:1009A0004408E091BB01F091BC01309711F081E067
:1009B0008087CF910895CF93C62F60E082E00E9498
:1009C000050961E084E00E9405096C2F70E085E074
:1009D0000E944408E091BB01F091BC01309711F0F6
:1009E0008FEF8087CF9108951616170614F40C9494
:1009F000DB047195619571090C94C204CF93C62FE5
:100A000061E087E00E94050960E088E00E94050936
:100A10006C2F70E086E00E944408E091BB01F091E9
:100A2000BC01309711F081E08187CF910895CF9379
:100A3000C62F60E087E00E94050961E088E00E941F
:100A400005096C2F70E086E00E944408E091BB012C
:100A5000F091BC01309711F08FEF8187CF9108950D
:100A60001616170614F40C94FE047195619571091D
:100A70000C941705FC01718360838FEF9FEF9383C4
:100A80008283958384830895FC0180810C942708D8
:100A900020E001972FEF8F3F9207D9F70895EF924B
:100AA000FF920F931F93CF93DF93EC018B899C8967
:100AB0000E94480508E010E0EE24E394F12C8D89B3
:100AC0009E890E944805EE85FF8580819D8589234A
:100AD00011F0FE2803C08E2D8095F822EE0C0150F7
:100AE000110969F78F89988D0E9448058091BE0190
:100AF0002091BD0190E001968F73992730E0821715
:100B0000930779F0E091BE01F0E0E154FE4FF082EE
:100B10008091BE0190E001968F7399278093BE016A
:100B200003C08B8D81608B8FDF91CF911F910F91CF
:100B3000FF90EF90089526E040E855E260E070E015
:100B40008FE392E00E941E0A60ED77E080E090E083
:100B50000E94C40768E071E08FE392E00E94800B7E
:100B600064EF71E080E090E00C94C4070F931F9352
:100B7000CF93DF93C5E0D0E08AE292E00E94440583
:100B8000080F191F2197C1F7C80165E070E00E94A6
:100B9000F20CCB01709300026093FF01DF91CF91C3
:100BA0001F910F9108950F931F93CF93DF93C5E08B
:100BB000D0E084E292E00E944405080F191F2197BB
:100BC000C1F7C80165E070E00E94F20CCB017093A0
:100BD000020260930102DF91CF911F910F9108955E
:100BE0000F931F93CF93DF93C5E0D0E080E392E0B3
:100BF0000E944405080F191F2197C1F7C80165E03D
:100C000070E00E94F20CCB01709304026093030227
:100C1000DF91CF911F910F91089588E192E00E949A
:100C200044054AE050E0BC018FE392E00E94350C9D
:100C30006DE171E08FE392E00E94730B80E392E03C
:100C40000E9444054AE050E0BC018FE392E00E941C
:100C5000350C6DE171E08FE392E00E94730B8AE244
:100C600092E00E9444054AE050E0BC018FE392E02C
:100C70000E94350C6DE171E08FE392E00E94730BEE
:100C800084E292E00E9444054AE050E0BC018FE318
:100C900092E00E94350C6DE171E08FE392E00E94DA
:100CA000730B8EE192E00E9444054AE050E0BC01E3
:100CB0008FE392E00E94350C8FE392E00E947C0B60
:100CC0008AE292E00E9444058D3B924064F080EB02
:100CD0009FEF90930C0280930B0280E590E090933D
:100CE0000A028093090284E292E00E9444058D3B4F
:100CF000924064F08EE79FEF90930C0280930B027A
:100D00008EE190E090930A028093090280E392E0E2
:100D10000E9444058D3B924064F082EE9FEF9093D9
:100D20000C0280930B0282E890E090930A02809379
:100D300009020E94F0058D3B92404CF10E94B605DD
:100D40008D3B924024F10E94D3058D3B9240FCF0F4
:100D50008EE192E00E9444058D3B9240C4F088E110
:100D600092E00E9444058D3B92408CF08DE092E031
:100D70000E94B80410920C0210920B0210920A0208
:100D80001092090260E070E0CB010C94C4070E944D
:100D9000F0058C3B92401CF50E94B6058C3B9240BE
:100DA000F4F40E94D3058C3B9240CCF48EE192E0A7
:100DB0000E9444058C3B924094F488E192E00E94AA
:100DC00044058C3B92405CF482E99FEF90930C02C7
:100DD00080930B0290930A0280930902D3CF609113
:100DE0000B0270910C028DE092E00E94F40460917D
:100DF000090270910A028DE092E00E94300568EECF
:100E000073E080E090E00E94C4078DE092E00E94D1
:100E1000B804B8CF61E170E080E392E00E943A0547
:100E200064E170E08AE292E00E943A0565E170E0D8
:100E300084E292E00E943A056FE070E08EE192E079
:100E40000E943A056EE070E088E192E00E943A0567
:100E50004AE050E060E170E08EE092E00E942204FF
:100E60008DE092E00E948E042BED3FE049E450E4D7
:100E70006091030170910401809105019091060138
:100E80000E948F0C60930502709306028093070204
:100E90009093080208951F920F920FB60F9211249B
:100EA0002F933F938F939F93AF93BF93809137027C
:100EB00090913802A0913902B0913A0230913602F5
:100EC00023E0230F2D3720F40196A11DB11D05C08D
:100ED00026E8230F0296A11DB11D209336028093B0
:100EE000370290933802A0933902B0933A0280916E
:100EF0003B0290913C02A0913D02B0913E020196CE
:100F0000A11DB11D80933B0290933C02A0933D0232
:100F1000B0933E02BF91AF919F918F913F912F91DE
:100F20000F900FBE0F901F9018952FB7F8946091F7
:100F30003702709138028091390290913A022FBFA6
:100F400008953FB7F89480913B0290913C02A091A4
:100F50003D02B0913E0226B5A89B05C02F3F19F077
:100F60000196A11DB11D3FBF6627782F892F9A2FAB
:100F7000620F711D811D911D42E0660F771F881F52
:100F8000991F4A95D1F70895CF92DF92EF92FF9281
:100F9000CF93DF936B017C010E94A107EB01C11489
:100FA000D104E104F10489F00E943D0C0E94A107E4
:100FB0006C1B7D0B683E734090F381E0C81AD1082A
:100FC000E108F108C851DC4FEACFDF91CF91FF90E3
:100FD000EF90DF90CF900895789484B5826084BDBF
:100FE00084B5816084BD85B5826085BD85B581602D
:100FF00085BDEEE6F0E0808181608083E1E8F0E08D
:101000001082808182608083808181608083E0E8BB
:10101000F0E0808181608083E1EBF0E0808184609A
:101020008083E0EBF0E0808181608083EAE7F0E09C
:101030008081846080838081826080838081816000
:1010400080838081806880831092C10008958E30F3
:1010500008F08E5087702091070190E4299F90013D
:101060001124822B80937C0080917A00806480938D
:101070007A0080917A0086FDFCCF809178002091E3
:10108000790090E0922B08951F93CF93DF93182F50
:10109000EB0161E00E94CC08209711F460E004C0ED
:1010A000CF3FD10539F461E0812FDF91CF911F91BE
:1010B0000C940509E12FF0E0E657FF4FE491E3308F
:1010C000F9F048F4E130B9F0E230A1F584B580627E
:1010D00084BDC8BD34C0E730E9F0E83019F1E43030
:1010E00049F580918000806280938000D0938B00CE
:1010F000C0938A0024C084B5806884BDC7BD1FC06A
:1011000080918000806880938000D0938900C09394
:10111000880015C08091B00080688093B000C093B3
:10112000B3000DC08091B00080628093B000C09386
:10113000B40005C0C038D1050CF0B5CFAFCFDF91FA
:10114000CF911F910895833081F028F4813099F078
:101150008230A1F008958730A9F08830B9F084304A
:10116000D1F4809180008F7D03C0809180008F77C3
:1011700080938000089584B58F7702C084B58F7DF9
:1011800084BD08958091B0008F7703C08091B00036
:101190008F7D8093B0000895CF93DF9390E0FC01A2
:1011A000E256FF4F2491FC01EE54FF4F84918823B7
:1011B00049F190E0880F991FFC01E053FF4FA59182
:1011C000B4918A539F4FFC01C591D4919FB761118F
:1011D00008C0F8948C91209582238C938881822377
:1011E0000AC0623051F4F8948C91322F30958323E9
:1011F0008C938881822B888304C0F8948C91822BF5
:101200008C939FBFDF91CF9108950F931F93CF933E
:10121000DF931F92CDB7DEB7282F30E0F901E657F4
:10122000FF4F8491F901E256FF4F1491F901EE54FA
:10123000FF4F04910023C9F0882321F069830E94A5
:10124000A3086981E02FF0E0EE0FFF1FEA53FF4F84
:10125000A591B4919FB7F8948C91611103C010953A
:10126000812301C0812B8C939FBF0F90DF91CF9181
:101270001F910F910895FC01818D228D90E0805C7B
:101280009F4F821B91098F7399270895FC01918DBF
:10129000828D981731F0828DE80FF11D858D90E0D9
:1012A00008958FEF9FEF0895FC01918D828D98171F
:1012B00061F0828DDF01A80FB11D5D968C91928D3A
:1012C0009F5F9F73928F90E008958FEF9FEF089537
:1012D00088ED9AE0892B49F080E090E0892B29F095
:1012E0000E94D80A81110C9400000895FC01848D9D
:1012F000DF01A80FB11DA35ABF4F2C91848D90E040
:1013000001968F739927848FA689B7892C93A0891A
:10131000B1898C9180648C93938D848D981306C0D1
:101320000288F389E02D80818F7D80830895CF939B
:10133000DF93EC01888D8823C9F0EA89FB898081DD
:1013400085FD05C0A889B9898C9186FD0FC00FB6AF
:1013500007FCF5CF808185FFF2CFA889B9898C91F0
:1013600085FFEDCFCE010E947609E7CFDF91CF91C7
:101370000895CF92DF92FF920F931F93CF93DF9345
:101380001F92CDB7DEB76C0181E0D60158968C93E1
:1013900058975B969C915B975C968C915C979813A1
:1013A00007C05096ED91FC915197808185FD2EC02C
:1013B000F601038D10E00F5F1F4F0F731127F02E02
:1013C000F601848DF81211C00FB607FCF9CFD601D3
:1013D0005096ED91FC915197808185FFF1CFC60128
:1013E00069830E9476096981EBCF838DE80FF11D37
:1013F000E35AFF4F6083D6015B960C935B9752963E
:10140000ED91FC915397808180620CC0D601569675
:10141000ED91FC91579760835096ED91FC91519717
:1014200080818064808381E090E00F90DF91CF9194
:101430001F910F91FF90DF90CF900895BF92CF92B0
:10144000DF92EF92FF92CF93DF93EC016A017B0171
:10145000B22EE889F98982E08083411581EE580730
:1014600061057105A1F060E079E08DE390E0A701EE
:1014700096010E94060D21503109410951095695E6
:10148000479537952795211580E1380798F0E88929
:10149000F989108260E874E88EE190E0A701960176
:1014A0000E94060D21503109410951095695479571
:1014B00037952795EC85FD853083EE85FF85208364
:1014C000188EEC89FD89B082EA89FB898081806170
:1014D0008083EA89FB89808188608083EA89FB892F
:1014E000808180688083EA89FB8980818F7D808309
:1014F000DF91CF91FF90EF90DF90CF90BF90089554
:101500001F920F920FB60F9211242F938F939F93D8
:10151000EF93FF93E0914F02F09150028081E091B0
:101520005502F091560282FD12C0908180915802BE
:101530008F5F8F7320915902821751F0E09158020A
:10154000F0E0E15CFD4F958F8093580201C08081EF
:10155000FF91EF919F918F912F910F900FBE0F9060
:101560001F9018951F920F920FB60F9211242F9370
:101570003F934F935F936F937F938F939F93AF931B
:10158000BF93EF93FF938FE392E00E947609FF9160
:10159000EF91BF91AF919F918F917F916F915F91EB
:1015A0004F913F912F910F900FBE0F901F90189564
:1015B0008FE392E00E943B0921E0892B09F420E0AF
:1015C000822F0895109242021092410288EE93E019
:1015D000A0E0B0E08093430290934402A0934502C0
:1015E000B093460280E791E09093400280933F02DF
:1015F00085EC90E090934C0280934B0284EC90E059
:1016000090934E0280934D0280EC90E090935002B4
:1016100080934F0281EC90E09093520280935102AC
:1016200082EC90E0909354028093530286EC90E019
:1016300090935602809355021092580210925902CC
:1016400010925A0210925B02089508950E94EC07CE
:101650000E94250B0E949B05C8E6D9E00E940D065A
:101660002097E1F30E946809F9CFCF92DF92EF92C1
:10167000FF920F931F93CF93DF936C017A01EB01DD
:10168000E60EF71E00E010E0CE15DF0561F069916F
:10169000D601ED91FC910190F081E02DC6010995F4
:1016A000080F191FF1CFC801DF91CF911F910F9142
:1016B000FF90EF90DF90CF9008956115710581F054
:1016C000DB010D900020E9F7AD0141505109461BA7
:1016D000570BDC01ED91FC910280F381E02D099420
:1016E00080E090E008950C945D0BDC01ED91FC919D
:1016F0000190F081E02D09946CE771E00C945D0B92
:101700000F931F93CF93DF93EC010E945D0B8C012D
:10171000CE010E947C0B800F911FDF91CF911F9112
:101720000F9108958F929F92AF92BF92CF92DF92C6
:10173000EF92FF920F931F93CF93DF93CDB7DEB756
:10174000A1970FB6F894DEBF0FBECDBF7C01C42EAB
:10175000E52FCB01D22E19A221E02D1510F02AE0A1
:10176000D22E8E010F5D1F4F8D2C912CA12CB12CF0
:101770006C2D7E2FA50194010E94060D8C2DD29E0A
:1017800080191124015011098A3014F4805D01C0C0
:10179000895CF8018083211531054105510521F04F
:1017A000C22EE32FCA01E4CFB801C7010E945D0B2E
:1017B000A1960FB6F894DEBF0FBECDBFDF91CF91DB
:1017C0001F910F91FF90EF90DF90CF90BF90AF905F
:1017D0009F908F900895CF92DF92EF92FF920F9398
:1017E0001F93CF93DF93EC016A017B012115310533
:1017F00079F4E881F9810190F081E02D642FDF9187
:10180000CF911F910F91FF90EF90DF90CF900994AF
:101810002A303105E9F477FF1AC06DE20E94750B9A
:101820008C0144275527BA014C195D096E097F09BF
:101830002AE0CE010E94920B800F911FDF91CF9181
:101840001F910F91FF90EF90DF90CF9008952AE0C5
:10185000B701A601CE01DF91CF911F910F91FF90AB
:10186000EF90DF90CF900C94920B9A01AB0166271A
:1018700057FD6095762F0C94EB0B089597F99F67B1
:1018800080E870E060E008959FEF80EC0895002408
:101890000A941616170618060906089500240A94D5
:1018A00012161306140605060895092E0394000C5B
:1018B00011F4882352F0BB0F40F4BF2B11F460FFEA
:1018C00004C06F5F7F4F8F4F9F4F089557FD905813
:1018D000440F551F59F05F3F71F04795880F97FBF4
:1018E000991F61F09F3F79F08795089512161306AE
:1018F0001406551FF2CF4695F1DF08C016161706DD
:101900001806991FF1CF8695710561050894089511
:10191000E894BB2766277727CB0197F908950BD06A
:10192000C4CFB5DF28F0BADF18F0952309F0A6CFB1
:10193000ABCF1124EECFCADFA0F3959FD1F3950F63
:1019400050E0551F629FF001729FBB27F00DB11D43
:10195000639FAA27F00DB11DAA1F649F6627B00DD3
:10196000A11D661F829F2227B00DA11D621F739FBC
:10197000B00DA11D621F839FA00D611D221F749FCA
:101980003327A00D611D231F849F600D211D822F11
:10199000762F6A2F11249F5750408AF0E1F0882358
:1019A0004AF0EE0FFF1FBB1F661F771F881F915065
:1019B0005040A9F79E3F510570F060CFAACF5F3F1E
:1019C000ECF3983EDCF3869577956795B795F79598
:1019D000E7959F5FC1F7FE2B880F911D9695879520
:1019E00097F9089597FB072E16F4009407D077FD1A
:1019F00009D00E942E0D07FC05D03EF490958195EC
:101A00009F4F0895709561957F4F0895A1E21A2E1A
:101A1000AA1BBB1BFD010DC0AA1FBB1FEE1FFF1F92
:101A2000A217B307E407F50720F0A21BB30BE40BE2
:101A3000F50B661F771F881F991F1A9469F7609529
:101A40007095809590959B01AC01BD01CF010895E3
:101A5000EE0FFF1F0590F491E02D0994AA1BBB1B0C
:101A600051E107C0AA1FBB1FA617B70710F0A61B9E
:101A7000B70B881F991F5A95A9F780959095BC01BF
:081A8000CD010895F894FFCF99
:101A8800083F0E0AD723400149522053656E736FF1
:101A9800722052656164696E67733A2000090064B8
:101AA8007269766544697374616E636528292000DC
:101AB80020696E636865732061742000206C656618
:101AC8007420706F7765722E0020726967687420C1
:101AD800706F7765722E004D6F766520666F72772E
:101AE80061726420616E20696E6368000000000006
:101AF800B909350B3B095409460997090D0A006EC7
:0C1B0800616E00696E66006F766600007A
:00000001FF
