:100000000C946F000C9497000C9497000C94B5011D
:100010000C94F0020C944A030C9497000C949700F3
:100020000C9497000C9497000C9497000C949700F4
:100030000C9497000C9497000C9497000C949700E4
:100040000C941D090C9497000C94520C0C94840C85
:100050000C9497000C9497000C9497000C949700C4
:100060000C9497000C949700DE03210421042104D2
:1000700021042104F00300041004210421047C0362
:100080008C039E03AE03BE03CE03000000080002F3
:10009000010000030407000000000000000001024E
:1000A0000408102040800102040810200102040806
:1000B00010200404040404040404020202020202E4
:1000C00003030303030300000000250028002B00A6
:1000D00000000000240027002A00E808B40C1124C6
:1000E0001FBECFEFD8E0DEBFCDBF12E0A0E0B1E091
:1000F000E0E3F3E202C005900D92A632B107D9F712
:1001000023E0A6E2B2E001C01D92AC36B207E1F7EF
:1001100010E0CEEDD0E004C02297FE010E947E11D7
:10012000CA3DD107C9F70E94F80C0C9496110C94A3
:100130000000CF92DF92EF92FF92E82FF0E0DF0114
:10014000A85DBD4F8C918230F9F078F4813009F0D0
:1001500052C0EE0FFF1FEF5BFD4F0190F081E02DCD
:10016000FF90EF90DF90CF900994833021F184309D
:1001700009F041C08091260290912702FF90EF90F4
:10018000DF90CF900C946605C0903902D0903A026F
:10019000E0903B02F0903C020E94730922E3C20E01
:1001A000D11CE11CF11CC616D706E806F90618F5A5
:1001B00060E070E016C0C0903D02D0903E02E0903A
:1001C0003F02F09040020E94730922E3C20ED11C4C
:1001D000E11CF11CC616D706E806F90660F461E0DA
:1001E00070E08091550290915602FF90EF90DF9061
:1001F000CF900C945D04FF90EF90DF90CF90089526
:10020000CF93C82F8091020181FF02C0C1FF46C079
:100210008091020181FD2CC0C1FF2AC080912F0274
:10022000823051F40E9473096093390270933A024C
:1002300080933B0290933C0280912F02833051F4D3
:100240000E94730960933D0270933E0280933F02C7
:100250009093400280912F02813051F40E946709EF
:100260006093350270933602809337029093380280
:100270008091020182FF16C0C2FD14C088E00E9476
:1002800099008091020183FF3EC0C3FD3CC089E01C
:100290000E949900C0930201CF91089587E00E94C7
:1002A0009900E6CF8091020182FDEBCFC2FFE9CF3A
:1002B00080913002823051F40E94730960933902B8
:1002C00070933A0280933B0290933C0280913002FB
:1002D000833051F40E94730960933D0270933E0293
:1002E00080933F029093400280913002813049F622
:1002F0000E9467096093350270933602809337023B
:1003000090933802BECF8091020182FDC3CFC2FF1D
:10031000C1CF80913102823051F40E947309609301
:10032000390270933A0280933B0290933C02809191
:100330003102833051F40E94730960933D0270933F
:100340003E0280933F0290934002809131028130BF
:1003500009F0A0CF0E9467096093350270933602BE
:10036000809337029093380295CF1F920F920FB669
:100370000F9211242F933F934F935F936F937F932B
:100380008F939F93AF93BF93EF93FF9393B180911C
:10039000340289230E940001FF91EF91BF91AF9138
:1003A0009F918F917F916F915F914F913F912F918D
:1003B0000F900FBE0F901F901895CF93C82F80916C
:1003C000010180FF02C0C0FF53C08091010180FD88
:1003D0001EC0C0FF1CC080912802823051F40E94D0
:1003E00067096093390270933A0280933B029093BD
:1003F0003C0280912802833051F40E946709609387
:100400003D0270933E0280933F02909340028091A0
:10041000010181FF31C0C1FD2FC081E00E94990020
:100420008091010182FF4CC0C2FD4AC082E00E945F
:1004300099008091010183FF67C0C3FD65C083E01F
:100440000E9499008091010184FF82C0C4FD80C098
:1004500084E00E9499008091010185FF9DC0C5FD47
:100460009BC085E00E949900C0930101CF9108953F
:1004700080E00E949900CBCF8091010181FDD0CF17
:10048000C1FFCECF80912902823051F40E946709CA
:100490006093390270933A0280933B0290933C023E
:1004A00080912902833009F0BBCF0E9467096093D5
:1004B0003D0270933E0280933F0290934002B0CF82
:1004C0008091010182FDB5CFC2FFB3CF80912A0296
:1004D000823051F40E9467096093390270933A02A6
:1004E00080933B0290933C0280912A02833009F072
:1004F000A0CF0E94670960933D0270933E028093F3
:100500003F029093400295CF8091010183FD9ACFE5
:10051000C3FF98CF80912B02823051F40E9467096B
:100520006093390270933A0280933B0290933C02AD
:1005300080912B02833009F085CF0E946709609378
:100540003D0270933E0280933F02909340027ACF27
:100550008091010184FD7FCFC4FF7DCF80912C026B
:10056000823051F40E9467096093390270933A0215
:1005700080933B0290933C0280912C02833009F0DF
:100580006ACF0E94670960933D0270933E02809398
:100590003F02909340025FCF8091010185FD64CFBF
:1005A000C5FF62CF80912D02823051F40E9467090D
:1005B0006093390270933A0280933B0290933C021D
:1005C00080912D02833009F04FCF0E94670960931C
:1005D0003D0270933E0280933F029093400244CFCD
:1005E0001F920F920FB60F9211242F933F934F93A8
:1005F0005F936F937F938F939F93AF93BF93EF938B
:10060000FF9396B18091330289230E94DD01FF910F
:10061000EF91BF91AF919F918F917F916F915F917A
:100620004F913F912F910F900FBE0F901F901895F3
:10063000CF93C82F8091000183FF02C0C3FF26C063
:100640008091000183FD1EC0C3FF1CC080912E025B
:10065000823051F40E9467096093390270933A0224
:1006600080933B0290933C0280912E02833051F4A0
:100670000E94670960933D0270933E0280933F029F
:1006800090934002C0930001CF91089586E00E94AC
:100690009900F8CF1F920F920FB60F9211242F934B
:1006A0003F934F935F936F937F938F939F93AF93FA
:1006B000BF93EF93FF9399B18091320289230E94F7
:1006C0001803FF91EF91BF91AF919F918F917F910F
:1006D0006F915F914F913F912F910F900FBE0F90AF
:1006E0001F90189503978131910508F0AAC08C5C82
:1006F0009F4FFC010C947C1180916C008160809371
:100700006C0080916800826080936800609328028A
:100710008091330281600FC080916C008260809371
:100720006C00809168008260809368006093290269
:1007300080913302826080933302089580916C002F
:10074000846080936C008091680082608093680070
:1007500060932A02809133028460EDCF80916C0017
:10076000886080936C00809168008260809368004C
:1007700060932B02809133028860DDCF80916C0002
:10078000806180936C008091680082608093680033
:1007900060932C02809133028061CDCF80916C00F8
:1007A000806280936C008091680082608093680012
:1007B00060932D02809133028062BDCF80916D00E5
:1007C000886080936D0080916800846080936800E9
:1007D00060932E02809132028860809332020895E5
:1007E00080916B00826080936B00809168008160D3
:1007F0008093680060932F028091340282601FC052
:1008000080916B00846080936B00809168008160B0
:1008100080936800609330028091340284600FC03E
:1008200080916B00886080936B008091680081608C
:1008300080936800609331028091340288608093D5
:1008400034020895EF92FF920F931F93CF93DF939B
:1008500000D0CDB7DEB77C01062F142F62E0802FC9
:100860005A8379830E949E0A62E0812F0E949E0A29
:1008700062E0802F7981972F0E94720363E0812FBD
:100880005A81952F0E947203F70110821182128201
:1008900013821482158216821782F0925602E09219
:1008A000550281E0808781870F900F90DF91CF9173
:1008B0001F910F91FF90EF9008950F931F93FC01EC
:1008C00061157105B1F06130710529F501851127B8
:1008D00007FD1095212F312F448155816681778145
:1008E000400F511F621F731F4483558366837783B4
:1008F00012C00085112707FD1095212F312F40814F
:10090000518162817381400F511F621F731F4083A9
:100910005183628373831F910F910895FC016130AD
:10092000710571F06230710539F0672B69F410823E
:100930001182128213820895108211821282138210
:100940001482158216821782089561E087E00E9462
:100950009E0A61E088E00E949E0A61E082E00E94B7
:100960009E0A61E084E00C949E0A61E082E00E94AD
:10097000D70A61E084E00E94D70A60E070E085E079
:100980000C94160A61E087E00E94D70A61E088E0D3
:100990000E94D70A60E070E086E00C94160ACF93BC
:1009A000DF93EC010E94B504CE01DF91CF910C944E
:1009B000C204CF93C62F61E082E00E94D70A60E0B4
:1009C00084E00E94D70A6C2F70E085E00E94160A2E
:1009D000E0915502F0915602309711F081E0808746
:1009E000CF910895CF93C62F60E082E00E94D70A8E
:1009F00061E084E00E94D70A6C2F70E085E00E94DD
:100A0000160AE0915502F0915602309711F08FEFDF
:100A10008087CF9108951616170614F40C94F204EB
:100A20007195619571090C94D904CF93C62F61E03B
:100A300087E00E94D70A60E088E00E94D70A6C2F06
:100A400070E086E00E94160AE0915502F09156028D
:100A5000309711F081E08187CF910895CF93C62F11
:100A600060E087E00E94D70A61E088E00E94D70A30
:100A70006C2F70E086E00E94160AE0915502F0911A
:100A80005602309711F08FEF8187CF910895161697
:100A9000170614F40C9415057195619571090C9461
:100AA0002E05FC01718360838FEF9FEF9383828318
:100AB000958384830895FC0180810C94F90920E0DA
:100AC00001972FEF8F3F9207D9F70895EF92FF928A
:100AD0000F931F93CF93DF93EC018B899C890E9426
:100AE0005F0508E010E0EE24E394F12C8D899E89E7
:100AF0000E945F05EE85FF8580819D85892311F029
:100B0000FE2803C08E2D8095F822EE0C01501109AD
:100B100069F78F89988D0E945F0580915802209116
:100B2000570290E001968F73992730E08217930760
:100B300079F0E0915802F0E0E75AFD4FF0828091A1
:100B4000580290E001968F7399278093580203C052
:100B50008B8D81608B8FDF91CF911F910F91FF90D3
:100B6000EF90089526E040E855E260E070E08FECF9
:100B700092E00C94F00B2091A1023091A20280919E
:100B8000030190910401281739070CF067C02091E8
:100B90009F023091A0022817390764F52091A30223
:100BA0003091A402281739070CF090C080919B0265
:100BB00090919C0290939A0280939902009729F455
:100BC00010929C0210929B0281C08130910519F411
:100BD00084E090E077C084309105D1F385309105B1
:100BE00019F482E090E06EC0069709F06FC083E0D0
:100BF00090E068C0821793070CF068C02091A302B0
:100C00003091A40228173907D4F480919B02909167
:100C10009C0290939A0280939902009719F481E0C4
:100C200090E050C09C012250310924303105B8F3C6
:100C300086309105E1F2079709F048C0F0CF82179E
:100C400093070CF043C080919B0290919C0290937B
:100C50009A02809399020197C9F5C9CF8217930729
:100C6000ACF520919F023091A0028217930774F592
:100C70002091A3023091A402281739076CF48091C7
:100C80009B0290919C0290939A0280939902019703
:100C9000E9F485E090E016C082179307BCF48091D8
:100CA0009B0290919C0290939A02809399028130CA
:100CB000910519F486E090E005C00697029730F49C
:100CC00087E090E090939C0280939B0264E670E042
:100CD00080E090E00E9496096CE071E08FEC92E079
:100CE0000E94450D6091990270919A024AE050E08D
:100CF0008FEC92E00E940F0E6DE171E08FEC92E0BC
:100D00000E94450D60919B0270919C024AE050E068
:100D10008FEC92E00C940F0ECF92DF92EF92FF9245
:100D20000F931F93CF93DF93CAE0D0E080EC92E063
:100D30000E945B05E80EF91E84EB92E00E945B05C1
:100D4000080F191F8AEB92E00E945B05C80ED91E9E
:100D5000219761F72AE030E0C701B9010E944611EE
:100D60007093A2026093A102C801B9010E944611CA
:100D70007093A4026093A302C601B9010E944611B8
:100D80007093A00260939F02DF91CF911F910F910A
:100D9000FF90EF90DF90CF900895CF92DF92EF9287
:100DA000FF920F931F93CF93DF936B017C018A0116
:100DB000E9016DE271E08FEC92E00E94450D22E0C6
:100DC00030E0B701A6018FEC92E00E94120F6EE3B3
:100DD00071E08FEC92E00E94450D4AE050E0B801CE
:100DE0008FEC92E00E94070E6AE471E08FEC92E0D3
:100DF0000E94520D4AE050E0BE018FEC92E00E944A
:100E0000070E67E571E08FEC92E00E94520D209191
:100E1000A5023091A6024091A7025091A802C701F5
:100E2000B6010E94900F6B017C0123E030E0AB0122
:100E3000BC018FEC92E00E94140F62E070E089EA3E
:100E400092E00E948E04B80183EB92E00E940B05B1
:100E5000BE0183EB92E00E94470560910901709109
:100E60000A01882777FD8095982F0E942B109B01FF
:100E7000AC01C701B6010E94DF1020E030E0A901FB
:100E80000E94DB1018160CF4FFCF83EB92E0DF9189
:100E9000CF911F910F91FF90EF90DF90CF900C9426
:100EA000CF0465E671E08FEC92E00E94520D24E6DB
:100EB00030E040E95FEF60E070E080E89FE30E948F
:100EC000CD0668EC70E080E090E00E949609809189
:100ED0000301909104012091A3023091A4022817EC
:100EE00039079CF420919F023091A00228173907FE
:100EF00064F42091A1023091A202281739072CF442
:100F000010929E0281E080939D0268EC70E080E088
:100F100090E00E9496092CE93FEF40E750E060E046
:100F200070E080E090E40E94CD0668EC70E080E024
:100F300090E00E94960983EB92E00C94CF0464EF5A
:100F400071E080E090E00E9496096AE771E08FEC22
:100F500092E00E94450D6091A1027091A2024AE0C8
:100F600050E08FEC92E00E94070E6FE871E08FEC8A
:100F700092E00E94450D60919F027091A0024AE0AC
:100F800050E08FEC92E00E94070E6FE871E08FEC6A
:100F900092E00E94450D6091A3027091A4024AE084
:100FA00050E08FEC92E00E94070E6FE871E08FEC4A
:100FB00092E00E94450D8FEC92E00E944E0D0E943F
:100FC0008C060E94BB0580919B0290919C0281300F
:100FD0009105C9F567E971E08FEC92E00E94520D2E
:100FE00061E971E08FEC92E00E94520D8AEB92E091
:100FF0000E945B05209103013091040128173907F5
:101000000CF07EC080EC92E00E945B052091030111
:1010100030910401821793070CF072C084EB92E0C8
:101020000E945B0520910301309104018217930710
:101030000CF066C064E670E080E090E00E949609E3
:101040006EEC7FEF86C0059741F460EA71E08FECAB
:1010500092E00E94520D0E94510780919B02909154
:101060009C02069741F46CEA71E08FEC92E00E94DA
:10107000520D0E94510780919B0290919C02039710
:10108000E1F469EB71E08FEC92E00E94520D64ECA8
:1010900071E08FEC92E00E94520D6CE97FEF83EBE0
:1010A00092E00E940B056CE97FEF83EB92E00E94D7
:1010B00047050E948C060E94BB0580919B0290917F
:1010C0009C02029709F083C064ED71E08FEC92E01E
:1010D0000E94520D6EED71E08FEC92E00E94520D75
:1010E00064E670E083EB92E00E940B0564E670E03A
:1010F00083EB92E00E9447050E948C060C94BB058E
:101100008AEB92E00E945B0520910301309104017B
:10111000821793074CF580EC92E00E945B052091CA
:1011200003013091040128173907F4F484EB92E0AD
:101130000E945B05209103013091040182179307FF
:101140009CF464E670E080E090E00E94960962E31F
:1011500070E083EB92E00E940B0562E370E083EBAA
:1011600092E00E9447052BCF8AEB92E00E945B053C
:101170002091030130910401821793070CF01FCFD7
:1011800080EC92E00E945B05209103013091040104
:10119000821793070CF013CF84EB92E00E945B055B
:1011A0002091030130910401281739070CF007CF73
:1011B00064E670E080E090E00E9496096EEC7FEFBC
:1011C00083EB92E00E940B056EEC7FEFC8CF089591
:1011D00061E170E080EC92E00E94510564E170E012
:1011E0008AEB92E00E94510565E170E084EB92E0A9
:1011F0000E94510583EB92E00E94A5044AE050E072
:1012000060E170E089EA92E00E9422042BED3FE069
:1012100049E450E460910501709106018091070155
:10122000909108010E94DF106093A5027093A602BE
:101230008093A7029093A80208951F920F920FB671
:101240000F9211242F933F938F939F93AF93BF934C
:101250008091C7029091C802A091C902B091CA02C0
:101260003091C60223E0230F2D3720F40196A11DF3
:10127000B11D05C026E8230F0296A11DB11D2093C4
:10128000C6028093C7029093C802A093C902B0938C
:10129000CA028091CB029091CC02A091CD02B09174
:1012A000CE020196A11DB11D8093CB029093CC027A
:1012B000A093CD02B093CE02BF91AF919F918F9139
:1012C0003F912F910F900FBE0F901F9018952FB741
:1012D000F8946091C7027091C8028091C902909100
:1012E000CA022FBF08953FB7F8948091CB02909126
:1012F000CC02A091CD02B091CE0226B5A89B05C02C
:101300002F3F19F00196A11DB11D3FBF6627782F11
:10131000892F9A2F620F711D811D911D42E0660F6A
:10132000771F881F991F4A95D1F70895CF92DF92B2
:10133000EF92FF92CF93DF936B017C010E947309C0
:10134000EB01C114D104E104F10489F00E94260FDD
:101350000E9473096C1B7D0B683E734090F381E023
:10136000C81AD108E108F108C851DC4FEACFDF9173
:10137000CF91FF90EF90DF90CF900895789484B54F
:10138000826084BD84B5816084BD85B5826085BD81
:1013900085B5816085BDEEE6F0E080818160808367
:1013A000E1E8F0E01082808182608083808181604A
:1013B0008083E0E8F0E0808181608083E1EBF0E011
:1013C000808184608083E0EBF0E0808181608083B5
:1013D000EAE7F0E08081846080838081826080839E
:1013E0008081816080838081806880831092C100C9
:1013F00008958E3008F08E50877020910B0190E494
:10140000299F90011124822B80937C0080917A0087
:10141000806480937A0080917A0086FDFCCF809171
:1014200078002091790090E0922B08951F93CF933C
:10143000DF93182FEB0161E00E949E0A209711F4C0
:1014400060E004C0CF3FD10539F461E0812FDF9126
:10145000CF911F910C94D70AE12FF0E0E657FF4F90
:10146000E491E330F9F048F4E130B9F0E230A1F56D
:1014700084B5806284BDC8BD34C0E730E9F0E8308F
:1014800019F1E43049F580918000806280938000FA
:10149000D0938B00C0938A0024C084B5806884BD3B
:1014A000C7BD1FC080918000806880938000D0936A
:1014B0008900C093880015C08091B0008068809337
:1014C000B000C093B3000DC08091B00080628093E3
:1014D000B000C093B40005C0C038D1050CF0B5CF42
:1014E000AFCFDF91CF911F910895833081F028F421
:1014F000813099F08230A1F008958730A9F08830CA
:10150000B9F08430D1F4809180008F7D03C0809148
:1015100080008F7780938000089584B58F7702C014
:1015200084B58F7D84BD08958091B0008F7703C00E
:101530008091B0008F7D8093B0000895CF93DF93AA
:1015400090E0FC01E256FF4F2491FC01EE54FF4F66
:101550008491882349F190E0880F991FFC01E053A2
:10156000FF4FA591B4918A539F4FFC01C591D4912F
:101570009FB7611108C0F8948C91209582238C93B9
:10158000888182230AC0623051F4F8948C91322F02
:10159000309583238C938881822B888304C0F894B0
:1015A0008C91822B8C939FBFDF91CF9108950F93E5
:1015B0001F93CF93DF931F92CDB7DEB7282F30E074
:1015C000F901E657FF4F8491F901E256FF4F14915C
:1015D000F901EE54FF4F04910023C9F0882321F054
:1015E00069830E94750A6981E02FF0E0EE0FFF1F0A
:1015F000EA53FF4FA591B4919FB7F8948C91611174
:1016000003C01095812301C0812B8C939FBF0F9045
:10161000DF91CF911F910F910895FC01818D228D53
:1016200090E0805C9F4F821B91098F7399270895EA
:10163000FC01918D828D981731F0828DE80FF11D9C
:10164000858D90E008958FEF9FEF0895FC01918DB7
:10165000828D981761F0828DDF01A80FB11D5D9614
:101660008C91928D9F5F9F73928F90E008958FEF82
:101670009FEF08958AEA9CE0892B49F080E090E092
:10168000892B29F00E94AA0C81110C940000089566
:10169000FC01848DDF01A80FB11DA35ABF4F2C910F
:1016A000848D90E001968F739927848FA689B789DE
:1016B0002C93A089B1898C9180648C93938D848DB7
:1016C000981306C00288F389E02D80818F7D808386
:1016D0000895CF93DF93EC01888D8823C9F0EA89C0
:1016E000FB89808185FD05C0A889B9898C9186FD1B
:1016F0000FC00FB607FCF5CF808185FFF2CFA88918
:10170000B9898C9185FFEDCFCE010E94480BE7CFC0
:10171000DF91CF910895CF92DF92FF920F931F93A5
:10172000CF93DF931F92CDB7DEB76C0181E0D60176
:1017300058968C9358975B969C915B975C968C918E
:101740005C97981307C05096ED91FC91519780815A
:1017500085FD2EC0F601038D10E00F5F1F4F0F7344
:101760001127F02EF601848DF81211C00FB607FC78
:10177000F9CFD6015096ED91FC915197808185FF6C
:10178000F1CFC60169830E94480B6981EBCF838D3D
:10179000E80FF11DE35AFF4F6083D6015B960C936F
:1017A0005B975296ED91FC915397808180620CC0BB
:1017B000D6015696ED91FC91579760835096ED9126
:1017C000FC91519780818064808381E090E00F904C
:1017D000DF91CF911F910F91FF90DF90CF900895EF
:1017E000BF92CF92DF92EF92FF92CF93DF93EC0103
:1017F0006A017B01B22EE889F98982E08083411574
:1018000081EE580761057105A1F060E079E08DE394
:1018100090E0A70196010E945A1121503109410917
:1018200051095695479537952795211580E1380739
:1018300098F0E889F989108260E874E88EE190E018
:10184000A70196010E945A112150310941095109FD
:101850005695479537952795EC85FD853083EE8520
:10186000FF852083188EEC89FD89B082EA89FB8987
:10187000808180618083EA89FB89808188608083A0
:10188000EA89FB89808180688083EA89FB8980817D
:101890008F7D8083DF91CF91FF90EF90DF90CF908D
:1018A000BF9008951F920F920FB60F9211242F939D
:1018B0008F939F93EF93FF93E091DF02F091E0020B
:1018C0008081E091E502F091E60282FD12C09081F4
:1018D0008091E8028F5F8F732091E902821751F0A7
:1018E000E091E802F0E0E153FD4F958F8093E8022C
:1018F00001C08081FF91EF919F918F912F910F9067
:101900000FBE0F901F9018951F920F920FB60F9257
:1019100011242F933F934F935F936F937F938F93F4
:101920009F93AF93BF93EF93FF938FEC92E00E944E
:10193000480BFF91EF91BF91AF919F918F917F9154
:101940006F915F914F913F912F910F900FBE0F902C
:101950001F9018958FEC92E00E940D0B21E0892BCF
:1019600009F420E0822F08951092D2021092D10241
:1019700088EE93E0A0E0B0E08093D3029093D4028D
:10198000A093D502B093D6028BE092E09093D00260
:101990008093CF0285EC90E09093DC028093DB0291
:1019A00084EC90E09093DE028093DD0280EC90E086
:1019B0009093E0028093DF0281EC90E09093E2024A
:1019C0008093E10282EC90E09093E4028093E30242
:1019D00086EC90E09093E6028093E5021092E80294
:1019E0001092E9021092EA021092EB020895089513
:1019F0000E94BE090E94F70C0E94B205CAE3DBE018
:101A00000E949F072097E1F30E943A0BF9CFCF92F3
:101A1000DF92EF92FF920F931F93CF93DF936C01AE
:101A20007A01EB01E60EF71E00E010E0CE15DF05AF
:101A300061F06991D601ED91FC910190F081E02D6A
:101A4000C6010995080F191FF1CFC801DF91CF9189
:101A50001F910F91FF90EF90DF90CF900895611547
:101A6000710581F0DB010D900020E9F7AD014150D7
:101A70005109461B570BDC01ED91FC910280F3816B
:101A8000E02D099480E090E008950C942F0DDC0186
:101A9000ED91FC910190F081E02D099467E172E0F5
:101AA0000C942F0D0F931F93CF93DF93EC010E94A3
:101AB0002F0D8C01CE010E944E0D800F911FDF91E2
:101AC000CF911F910F9108958F929F92AF92BF92E5
:101AD000CF92DF92EF92FF920F931F93CF93DF93FA
:101AE000CDB7DEB7A1970FB6F894DEBF0FBECDBF5E
:101AF0007C01C42EE52FCB01D22E19A221E02D1599
:101B000010F02AE0D22E8E010F5D1F4F8D2C912CEC
:101B1000A12CB12C6C2D7E2FA50194010E945A118D
:101B20008C2DD29E80191124015011098A3014F491
:101B3000805D01C0895CF801808321153105410574
:101B4000510521F0C22EE32FCA01E4CFB801C7012D
:101B50000E942F0DA1960FB6F894DEBF0FBECDBF29
:101B6000DF91CF911F910F91FF90EF90DF90CF9079
:101B7000BF90AF909F908F900895CF92DF92EF9299
:101B8000FF920F931F93CF93DF93EC016A017B01C8
:101B90002115310579F4E881F9810190F081E02D7A
:101BA000642FDF91CF911F910F91FF90EF90DF9005
:101BB000CF9009942A303105E9F477FF1AC06DE21D
:101BC0000E94470D8C0144275527BA014C195D0925
:101BD0006E097F092AE0CE010E94640D800F911FDB
:101BE000DF91CF911F910F91FF90EF90DF90CF90F9
:101BF00008952AE0B701A601CE01DF91CF911F9190
:101C00000F91FF90EF90DF90CF900C94640D9A01AC
:101C1000AB01662757FD6095762F0C94BD0D0F9391
:101C20001F93CF93DF93EC019A01AB01662757FD19
:101C30006095762F0E94BD0D8C01CE010E944E0D45
:101C4000800F911FDF91CF911F910F9108954F92B7
:101C50005F926F927F928F929F92AF92BF92CF923C
:101C6000DF92EF92FF920F931F93CF93DF93EC01DC
:101C70006A017B01B22E9A01AB01C701B6010E9435
:101C80004211882319F06AE172E027C0260137016A
:101C9000E89477F82FEF3FEF4FE75FE7C301B2011A
:101CA0000E94421181110DC02FEF3FEF4FE75FE718
:101CB000C301B2010E948C0F18161CF46EE172E091
:101CC0000CC02FEF3FEF4FE75FE4C701B6010E9462
:101CD000DB101816ACF462E272E0CE01DF91CF9116
:101CE0001F910F91FF90EF90DF90CF90BF90AF903A
:101CF0009F908F907F906F905F904F900C942F0DDE
:101D00002FEF3FEF4FE75FECC701B6010E948C0F4A
:101D100087FDE1CF20E030E0A901C701B6010E94B4
:101D20008C0F87FF0AC06DE2CE010E94470D8C0127
:101D3000F7FAF094F7F8F09402C000E010E0A12C5C
:101D400060E070E080E09FE3AB1441F020E030E021
:101D500040E251E40E94900FA394F6CF9B01AC01A6
:101D6000C701B6010E94280F6B017C010E94FD0F84
:101D70002B013C010E9429109B01AC01C701B60157
:101D80000E94270F6B017C012AE0B301A201CE0162
:101D90000E94640D080F191FBB2039F065E571E042
:101DA000CE010E942F0D080F191F7B2C772041F1C7
:101DB00020E030E040E251E4C701B6010E94DF10AC
:101DC0006B017C010E94F80F4B01AA2497FCA094A0
:101DD000BA2C2AE030E0B501A401CE010E94BD0D6D
:101DE000080F191FC501B4010E942B109B01AC0103
:101DF000C701B6010E94270F6B017C017A94D6CFF0
:101E0000C801DF91CF911F910F91FF90EF90DF906C
:101E1000CF90BF90AF909F908F907F906F905F908A
:101E20004F9008950C94270E0F931F93CF93DF9339
:101E3000EC010E94270E8C01CE010E944E0D800FF6
:101E4000911FDF91CF911F910F91089508955058E0
:101E5000BB27AA270ED075C166D130F06BD120F018
:101E600031F49F3F11F41EF45BC10EF4E095E7FBE3
:101E700051C1E92F77D180F3BA176207730784073E
:101E8000950718F071F49EF58FC10EF4E0950B2EB6
:101E9000BA2FA02D0B01B90190010C01CA01A001BC
:101EA0001124FF27591B99F0593F50F4503E68F117
:101EB0001A16F040A22F232F342F4427585FF3CF58
:101EC000469537952795A795F0405395C9F77EF429
:101ED0001F16BA0B620B730B840BBAF09150A1F072
:101EE000FF0FBB1F661F771F881FC2F70EC0BA0FF8
:101EF000621F731F841F48F4879577956795B79580
:101F0000F7959E3F08F0B3CF9395880F08F0992777
:101F1000EE0F979587950895D9D008F481E008953C
:101F20000CD00FC107D140F0FED030F021F45F3F5C
:101F300019F0F0C0511139C1F3C014D198F39923AD
:101F4000C9F35523B1F3951B550BBB27AA2762177D
:101F50007307840738F09F5F5F4F220F331F441FC2
:101F6000AA1FA9F333D00E2E3AF0E0E830D09150FA
:101F70005040E695001CCAF729D0FE2F27D0660FE7
:101F8000771F881FBB1F261737074807AB07B0E826
:101F900009F0BB0B802DBF01FF2793585F4F2AF03C
:101FA0009E3F510568F0B6C000C15F3FECF3983E1C
:101FB000DCF3869577956795B795F7959F5FC9F799
:101FC000880F911D9695879597F90895E1E0660F22
:101FD000771F881FBB1F621773078407BA0720F09B
:101FE000621B730B840BBA0BEE1F88F7E095089504
:101FF00004D06894B111D9C00895BCD088F09F571F
:1020000090F0B92F9927B751A0F0D1F0660F771F44
:10201000881F991F1AF0BA95C9F712C0B13081F024
:10202000C3D0B1E00895C0C0672F782F8827B85F6C
:1020300039F0B93FCCF3869577956795B395D9F785
:102040003EF490958095709561957F4F8F4F9F4F8F
:102050000895E89409C097FB3EF49095809570959B
:1020600061957F4F8F4F9F4F9923A9F0F92F96E9E4
:10207000BB279395F695879577956795B795F11159
:10208000F8CFFAF4BB0F11F460FF1BC06F5F7F4FF6
:102090008F4F9F4F16C0882311F096E911C0772308
:1020A00021F09EE8872F762F05C0662371F096E811
:1020B000862F70E060E02AF09A95660F771F881FE0
:1020C000DAF7880F9695879597F90895990F000884
:1020D000550FAA0BE0E8FEEF16161706E807F907FA
:1020E000C0F012161306E407F50798F0621B730B95
:1020F000840B950B39F40A2661F0232B242B252B16
:1021000021F408950A2609F4A140A6958FEF811DB8
:10211000811D089597F99F6780E870E060E0089559
:102120009FEF80EC089500240A94161617061806EF
:102130000906089500240A941216130614060506CB
:102140000895092E0394000C11F4882352F0BB0F5C
:1021500040F4BF2B11F460FF04C06F5F7F4F8F4FBF
:102160009F4F089557FD9058440F551F59F05F3FFA
:1021700071F04795880F97FB991F61F09F3F79F0A9
:1021800087950895121613061406551FF2CF46952B
:10219000F1DF08C0161617061806991FF1CF8695AD
:1021A0007105610508940895E894BB276627772791
:1021B000CB0197F908958ADF08F48FEF08950BD0CB
:1021C000C0CFB1DF28F0B6DF18F0952309F0A2CF19
:1021D000A7CF1124EACFC6DFA0F3959FD1F3950FC7
:1021E00050E0551F629FF001729FBB27F00DB11D9B
:1021F000639FAA27F00DB11DAA1F649F6627B00D2B
:10220000A11D661F829F2227B00DA11D621F739F13
:10221000B00DA11D621F839FA00D611D221F749F21
:102220003327A00D611D231F849F600D211D822F68
:10223000762F6A2F11249F5750408AF0E1F08823AF
:102240004AF0EE0FFF1FBB1F661F771F881F9150BC
:102250005040A9F79E3F510570F05CCFA6CF5F3F7D
:10226000ECF3983EDCF3869577956795B795F795EF
:10227000E7959F5FC1F7FE2B880F911D9695879577
:1022800097F9089523DF880B990B089597FB072E84
:1022900016F4009407D077FD09D00E94821107FC44
:1022A00005D03EF4909581959F4F08957095619566
:1022B0007F4F0895A1E21A2EAA1BBB1BFD010DC082
:1022C000AA1FBB1FEE1FFF1FA217B307E407F507E6
:1022D00020F0A21BB30BE40BF50B661F771F881FC2
:1022E000991F1A9469F760957095809590959B0158
:1022F000AC01BD01CF010895EE0FFF1F0590F491D1
:10230000E02D0994AA1BBB1B51E107C0AA1FBB1FEC
:10231000A617B70710F0A61BB70B881F991F5A9571
:10232000A9F780959095BC01CD010895F894FFCF51
:10233000083F0E84030AD72340C00001507265761F
:10234000696F75732053746174653A200043757228
:1023500072656E742053746174653A20006472690A
:10236000766544697374616E63652829200020696D
:102370006E636865732061742000206C656674204C
:10238000706F7765722E0020726967687420706FB5
:102390007765722E004D6F766520666F7277617279
:1023A0006420616E20696E63680049522053656E37
:1023B000736F722052656164696E67733A20000919
:1023C00000476F696E6720537472616967687400B3
:1023D000646563696465206C65667400646563693F
:1023E0006465207269676874005475726E20526962
:1023F000676874005475726E696E67206120526957
:10240000676874007475726E206C6566740054752C
:10241000726E696E672061204C6566740054757237
:102420006E204C656674004D616B696E672061209B
:1024300055205475726E00000000008B0B070D0DC7
:102440000B260B180B690B0D0A006E616E00696E8E
:0624500066006F766600D5
:00000001FF
