:100000000C946F000C9497000C9497000C94B5011D
:100010000C94F0020C944A030C9497000C949700F3
:100020000C9497000C9497000C9497000C949700F4
:100030000C9497000C9497000C9497000C949700E4
:100040000C94B9090C9497000C94EE0C0C94200DB0
:100050000C9497000C9497000C9497000C949700C4
:100060000C9497000C949700DE03210421042104D2
:1000700021042104F00300041004210421047C0362
:100080008C039E03AE03BE03CE03000000080002F3
:10009000010000030407000000000000000001024E
:1000A0000408102040800102040810200102040806
:1000B00010200404040404040404020202020202E4
:1000C00003030303030300000000250028002B00A6
:1000D00000000000240027002A007809500D112498
:1000E0001FBECFEFD8E0DEBFCDBF11E0A0E0B1E092
:1000F000E4E4FFE102C005900D92A039B107D9F701
:1001000022E0A0E9B1E001C01D92A83EB207E1F7EC
:1001100010E0CEEDD0E004C02297FE010E949C0FBB
:10012000CA3DD107C9F70E94940D0C94A00F0C94FE
:100130000000CF92DF92EF92FF92E82FF0E0DF0114
:10014000AE56BE4F8C918230F9F078F4813009F0D0
:1001500052C0EE0FFF1FE555FE4F0190F081E02DDC
:10016000FF90EF90DF90CF900994833021F184309D
:1001700009F041C08091900190919101FF90EF9022
:10018000DF90CF900C94A505C090A301D090A4015E
:10019000E090A501F090A6010E940F0A22E3C20E92
:1001A000D11CE11CF11CC616D706E806F90618F5A5
:1001B00060E070E016C0C090A701D090A801E09068
:1001C000A901F090AA010E940F0A22E3C20ED11CDD
:1001D000E11CF11CC616D706E806F90660F461E0DA
:1001E00070E08091BF019091C001FF90EF90DF908F
:1001F000CF900C945D04FF90EF90DF90CF90089526
:10020000CF93C82F8091020181FF02C0C1FF46C079
:100210008091020181FD2CC0C1FF2AC0809199010B
:10022000823051F40E940F0A6093A3017093A401DD
:100230008093A5019093A60180919901833051F498
:100240000E940F0A6093A7017093A8018093A901EF
:100250009093AA0180919901813051F40E94030A80
:1002600060939F017093A0018093A1019093A201DC
:100270008091020182FF16C0C2FD14C088E00E9476
:1002800099008091020183FF3EC0C3FD3CC089E01C
:100290000E949900C0930201CF91089587E00E94C7
:1002A0009900E6CF8091020182FDEBCFC2FFE9CF3A
:1002B00080919A01823051F40E940F0A6093A30149
:1002C0007093A4018093A5019093A60180919A0157
:1002D000833051F40E940F0A6093A7017093A80124
:1002E0008093A9019093AA0180919A01813049F6E7
:1002F0000E94030A60939F017093A0018093A10163
:100300009093A201BECF8091020182FDC3CFC2FFB4
:10031000C1CF80919B01823051F40E940F0A6093FB
:10032000A3017093A4018093A5019093A6018091ED
:100330009B01833051F40E940F0A6093A7017093D0
:10034000A8018093A9019093AA0180919B0181301B
:1003500009F0A0CF0E94030A60939F017093A0014F
:100360008093A1019093A20195CF1F920F920FB697
:100370000F9211242F933F934F935F936F937F932B
:100380008F939F93AF93BF93EF93FF9393B180911C
:100390009E0189230E940001FF91EF91BF91AF91CF
:1003A0009F918F917F916F915F914F913F912F918D
:1003B0000F900FBE0F901F901895CF93C82F80916C
:1003C000010180FF02C0C0FF53C08091010180FD88
:1003D0001EC0C0FF1CC080919201823051F40E9467
:1003E000030A6093A3017093A4018093A5019093E5
:1003F000A60180919201833051F40E94030A609318
:10040000A7017093A8018093A9019093AA018091FC
:10041000010181FF31C0C1FD2FC081E00E94990020
:100420008091010182FF4CC0C2FD4AC082E00E945F
:1004300099008091010183FF67C0C3FD65C083E01F
:100440000E9499008091010184FF82C0C4FD80C098
:1004500084E00E9499008091010185FF9DC0C5FD47
:100460009BC085E00E949900C0930101CF9108953F
:1004700080E00E949900CBCF8091010181FDD0CF17
:10048000C1FFCECF80919301823051F40E94030AC4
:100490006093A3017093A4018093A5019093A6019A
:1004A00080919301833009F0BBCF0E94030A6093CF
:1004B000A7017093A8018093A9019093AA01B0CFDE
:1004C0008091010182FDB5CFC2FFB3CF809194012D
:1004D000823051F40E94030A6093A3017093A40137
:1004E0008093A5019093A60180919401833009F037
:1004F000A0CF0E94030A6093A7017093A801809384
:10050000A9019093AA0195CF8091010183FD9ACF13
:10051000C3FF98CF80919501823051F40E94030A65
:100520006093A3017093A4018093A5019093A60109
:1005300080919501833009F085CF0E94030A609372
:10054000A7017093A8018093A9019093AA017ACF83
:100550008091010184FD7FCFC4FF7DCF8091960102
:10056000823051F40E94030A6093A3017093A401A6
:100570008093A5019093A60180919601833009F0A4
:100580006ACF0E94030A6093A7017093A801809329
:10059000A9019093AA015FCF8091010185FD64CFED
:1005A000C5FF62CF80919701823051F40E94030A07
:1005B0006093A3017093A4018093A5019093A60179
:1005C00080919701833009F04FCF0E94030A609316
:1005D000A7017093A8018093A9019093AA0144CF29
:1005E0001F920F920FB60F9211242F933F934F93A8
:1005F0005F936F937F938F939F93AF93BF93EF938B
:10060000FF9396B180919D0189230E94DD01FF91A6
:10061000EF91BF91AF919F918F917F916F915F917A
:100620004F913F912F910F900FBE0F901F901895F3
:10063000CF93C82F8091000183FF02C0C3FF26C063
:100640008091000183FD1EC0C3FF1CC080919801F2
:10065000823051F40E94030A6093A3017093A401B5
:100660008093A5019093A60180919801833051F465
:100670000E94030A6093A7017093A8018093A901C7
:100680009093AA01C0930001CF91089586E00E9443
:100690009900F8CF1F920F920FB60F9211242F934B
:1006A0003F934F935F936F937F938F939F93AF93FA
:1006B000BF93EF93FF9399B180919C0189230E948E
:1006C0001803FF91EF91BF91AF919F918F917F910F
:1006D0006F915F914F913F912F910F900FBE0F90AF
:1006E0001F90189503978131910508F0AAC08C5C82
:1006F0009F4FFC010C949A0F80916C008160809355
:100700006C00809168008260809368006093920121
:1007100080919D0181600FC080916C008260809308
:100720006C00809168008260809368006093930100
:1007300080919D01826080939D01089580916C005D
:10074000846080936C008091680082608093680070
:100750006093940180919D018460EDCF80916C0045
:10076000886080936C00809168008260809368004C
:100770006093950180919D018860DDCF80916C0030
:10078000806180936C008091680082608093680033
:100790006093960180919D018061CDCF80916C0026
:1007A000806280936C008091680082608093680012
:1007B0006093970180919D018062BDCF80916D0013
:1007C000886080936D0080916800846080936800E9
:1007D0006093980180919C01886080939C010895AA
:1007E00080916B00826080936B00809168008160D3
:1007F000809368006093990180919E0182601FC080
:1008000080916B00846080936B00809168008160B0
:100810008093680060939A0180919E0184600FC06C
:1008200080916B00886080936B008091680081608C
:100830008093680060939B0180919E018860809303
:100840009E010895EF92FF920F931F93CF93DF9332
:1008500000D0CDB7DEB77C01062F142F62E0802FC9
:100860005A8379830E943A0B62E0812F0E943A0BEF
:1008700062E0802F7981972F0E94720363E0812FBD
:100880005A81952F0E947203F70110821182128201
:1008900013821482158216821782F092C001E092B0
:1008A000BF0181E0808781870F900F90DF91CF910A
:1008B0001F910F91FF90EF9008950F931F93FC01EC
:1008C00061157105B1F06130710529F501851127B8
:1008D00007FD1095212F312F448155816681778145
:1008E000400F511F621F731F4483558366837783B4
:1008F00012C00085112707FD1095212F312F40814F
:10090000518162817381400F511F621F731F4083A9
:100910005183628373831F910F91089561E087E093
:100920000E943A0B61E088E00E943A0B61E082E0AD
:100930000E943A0B61E084E00C943A0B61E082E0A3
:100940000E94730B61E084E00E94730B60E070E032
:1009500085E00C94B20A61E087E00E94730B61E0CD
:1009600088E00E94730B60E070E086E00C94B20AAD
:10097000CF93DF93EC010E949E04CE01DF91CF91D3
:100980000C94AB04CF93C62F61E082E00E94730BFE
:1009900060E084E00E94730B6C2F70E085E00E94A1
:1009A000B20AE091BF01F091C001309711F081E0EF
:1009B0008087CF910895CF93C62F60E082E00E9498
:1009C000730B61E084E00E94730B6C2F70E085E094
:1009D0000E94B20AE091BF01F091C001309711F07E
:1009E0008FEF8087CF9108951616170614F40C9494
:1009F000DB047195619571090C94C20416161706F3
:100A000014F40C94C2047195619571090C94DB0483
:100A1000CF93C62F61E087E00E94730B60E088E00F
:100A20000E94730B6C2F70E086E00E94B20AE09186
:100A3000BF01F091C001309711F081E08187CF9123
:100A40000895CF93C62F60E087E00E94730B61E0AA
:100A500088E00E94730B6C2F70E086E00E94B20A5F
:100A6000E091BF01F091C001309711F08FEF8187C5
:100A7000CF9108950F931F93CF93DF93EC018B01D8
:100A80001616170654F40E94C204602FCE01DF919F
:100A9000CF911F910F910C940805119501951109A3
:100AA000602F0E94DB04602FCE01DF91CF911F9158
:100AB0000F910C9421050F931F93CF93DF93EC01BB
:100AC0008B011616170654F40E94C204602FCE0143
:100AD000DF91CF911F910F910C94210511950195F4
:100AE0001109602F0E94DB04602FCE01DF91CF91AE
:100AF0001F910F910C9408051616170614F40C9408
:100B000008057195619571090C9421051616170653
:100B100014F40C9408057195619571090C942105E4
:100B2000FC01718360838FEF9FEF938382839583B2
:100B300084830895FC0180810C94950A20E001973C
:100B40002FEF8F3F9207D9F70895EF92FF920F93FF
:100B50001F93CF93DF93EC018B899C890E949E05A4
:100B600008E010E0EE24E394F12C8D899E890E9428
:100B70009E05EE85FF8580819D85892311F0FE28E5
:100B800003C08E2D8095F822EE0C0150110969F7F3
:100B90008F89988D0E949E058091C2012091C1018C
:100BA00090E001968F73992730E08217930779F0D0
:100BB000E091C201F0E0ED53FE4FF0828091C2015E
:100BC00090E001968F7399278093C20103C08B8DAB
:100BD00081608B8FDF91CF911F910F91FF90EF90EC
:100BE0000895CF93DF93C3E0D1E061E088810E9454
:100BF0003A0B26E040E855E260E070E08BE492E0DA
:100C00000E948C0C61E088810E94730B68EE73E097
:100C100080E090E0DF91CF910C94320A84E292E080
:100C20000E949A0590930C0280930B028CE392E051
:100C30000E949A0590930E0280930D0280E392E049
:100C40000E949A0590930A028093090284E292E03E
:100C50000E949A05909308028093070286E392E02F
:100C60000E949A059093100280930F02089580913C
:100C70000F0290911002833593406CF065E171E0B2
:100C80008BE492E00E94EE0D64E670E089E192E070
:100C90000E943A0543C08091090290910A0283356F
:100CA0009340ACF061E271E08BE492E00E94EE0DC3
:100CB00084E79FEF90931802809317028CE390E0F3
:100CC000909316028093150264E77FEF1BC080911A
:100CD0000D0290910E028335934004F164E371E0BC
:100CE0008BE492E00E94EE0D84EC9FEF909318024B
:100CF000809317028CE890E090931602809315027F
:100D000064EC7FEF89E192E00E94F40460911502A7
:100D10007091160289E192E00E947C0565E070E026
:100D200080E090E00C94320A209105023091060296
:100D3000C9010397FC01EB5FFE4F4081423561F42E
:100D4000D901AC5FBE4F2C912C3431F49093060244
:100D50008093050285E5808320910502309106028B
:100D6000C9010397FC01EB5FFE4F4081423551F40E
:100D7000D901AC5FBE4F2C91233521F4909306022C
:100D8000809305022091050230910602C901039764
:100D9000FC01EB5FFE4F4081423561F4D901AC5F4D
:100DA000BE4F2C91223531F49093060280930502B8
:100DB00083E580832091050230910602C9010397E3
:100DC000FC01EB5FFE4F4081433559F4D901AC5F24
:100DD000BE4F2C91223529F4909306028093050290
:100DE00020832091050230910602C9010397FC017E
:100DF000EB5FFE4F4081433561F4D901AC5FBE4FDC
:100E00002C91233531F4909306028093050285E5F9
:100E100080832091050230910602C9010397FC01ED
:100E2000EB5FFE4F40814C3461F4D901AC5FBE4FA3
:100E30002C91223531F4909306028093050285E5CA
:100E4000808308958CE99FEF909318028093170296
:100E500090931602809315026CE97FEF89E192E08E
:100E60000E94F404609115027091160289E192E0EB
:100E70000E947C0563E770E080E090E00E94320A07
:100E80008091030290910402892BC1F5E091050243
:100E9000F0910602EB5FFE4F82E5808366E471E02D
:100EA0008BE492E00E94EE0D809105029091060283
:100EB0000196909306028093050268E471E08BE44A
:100EC00092E00E94E10D60910502709106024AE0F5
:100ED00050E08BE492E00E94AB0EE0910502F091AD
:100EE0000602ED5FFE4F8081853541F466E571E0D5
:100EF0008BE492E00E94EE0D0C949406089580918C
:100F00000D0290910E0283359340BCF060E570E0D5
:100F100089E192E00E94860564E670E089E192E052
:100F20000E94FE0462E070E080E090E00E94320ADD
:100F300089E192E00E94B804E2CF80910D02909185
:100F40000E0282359340BCF460E570E089E192E0E6
:100F50000E94860564E670E089E192E00E94FE044A
:100F600062E070E080E090E00E94320A89E192E065
:100F70000E94B804E2CF8091090290910A02833561
:100F80009340BCF060E570E089E192E00E94860544
:100F900064E670E089E192E00E94FE0462E070E0A5
:100FA00080E090E00E94320A89E192E00E94B80459
:100FB000E2CF8091030290910402892BA1F48091E9
:100FC000050290910602FC01EB5FFE4F2CE42083AA
:100FD00001969093060280930502319780818535B2
:100FE00011F40C94940608958091090290910A02DC
:100FF000823593403CF464E670E089E192E00E941F
:101000005B05F2CF8091050290910602FC01EB5F37
:10101000FE4F25E5208301969093060280930502FA
:101020000C94370666E671E08BE492E00C94EE0DCA
:1010300080910B0290910C0283359340DCF18091FA
:1010400007029091080283359340A4F164E670E0B2
:1010500089E192E00E94FE0464E670E089E192E09A
:101060000E94860568EC70E080E090E00E94320A01
:101070000E940E0680910B0290910C0283359340E2
:101080003CF480910702909108028335934014F05C
:101090000E94120880910B0290910C0282359340BD
:1010A0004CF480910702909108028235934014F429
:1010B0000E94220780910B0290910C02833593408D
:1010C0000CF477C084E690E09093180280931702A6
:1010D000909316028093150264E670E089E192E035
:1010E0000E94F404609115027091160289E192E069
:1010F0000E947C056EE170E080E090E00E94320A80
:101100000E940E0680910702909108028335934059
:10111000DCF061EA70E080E090E00E94320A0E9418
:101120000E0680910702909108028335934054F097
:1011300080910B0290910C02833593401CF00E9429
:10114000120802C00C9422076AEA70E080E090E086
:101150000E94320A0E940E068091070290910802B6
:101160008235934084F480910F0290911002823571
:1011700093404CF480910B0290910C028235934085
:1011800014F40C947F078091050290910602FC01F3
:10119000EB5FFE4F23E52083019690930602809338
:1011A000050231978081853511F40E9494060E94D2
:1011B00037060E940E0680910B0290910C02823538
:1011C0009340F4F480910D0290910E028235934089
:1011D000BCF48091090290910A028235934084F414
:1011E0008091070290910802823593404CF48091DF
:1011F0000F02909110028235934014F40C94F4077E
:1012000008950E940E0660910B0270910C024AE054
:1012100050E08BE492E00E94A30E6CE671E08BE458
:1012200092E00E94E10D60910D0270910E024AE081
:1012300050E08BE492E00E94A30E6CE671E08BE438
:1012400092E00E94E10D60910F02709110024AE05D
:1012500050E08BE492E00E94A30E6CE671E08BE418
:1012600092E00E94E10D6091090270910A024AE049
:1012700050E08BE492E00E94A30E6CE671E08BE4F8
:1012800092E00E94E10D60910702709108024AE02D
:1012900050E08BE492E00E94A30E8BE492E00E9467
:1012A000EA0D80910B0290910C0282359340F4F488
:1012B000809107029091080282359340BCF480919E
:1012C0000D0290910E028335934074F480910902CF
:1012D00090910A02833593403CF480910F029091E3
:1012E00010028335934014F00C9437060C941808C0
:1012F00061E170E08CE392E00E94900564E170E0AF
:1013000086E392E00E94900565E170E080E392E060
:101310000E9490056FE070E08AE292E00E949005E2
:101320006EE070E084E292E00E9490054AE050E0B6
:1013300060E170E08AE192E00E94220489E192E09B
:101340000E948E042BED3FE049E450E460911001CF
:101350007091110180911201909113010E94150F5B
:1013600060931102709312028093130290931402FF
:1013700008951F920F920FB60F9211242F933F934F
:101380008F939F93AF93BF938091430290914402B8
:10139000A0914502B09146023091420223E0230F12
:1013A0002D3720F40196A11DB11D05C026E8230F9D
:1013B0000296A11DB11D2093420280934302909397
:1013C0004402A0934502B093460280914702909157
:1013D0004802A0914902B0914A020196A11DB11D97
:1013E0008093470290934802A0934902B0934A0227
:1013F000BF91AF919F918F913F912F910F900FBE11
:101400000F901F9018952FB7F89460914302709138
:10141000440280914502909146022FBF08953FB744
:10142000F8948091470290914802A0914902B091AE
:101430004A0226B5A89B05C02F3F19F00196A11DB1
:10144000B11D3FBF6627782F892F9A2F620F711D1C
:10145000811D911D42E0660F771F881F991F4A95D5
:10146000D1F70895CF92DF92EF92FF92CF93DF935F
:101470006B017C010E940F0AEB01C114D104E1044D
:10148000F10489F00E94C30E0E940F0A6C1B7D0BB1
:10149000683E734090F381E0C81AD108E108F10872
:1014A000C851DC4FEACFDF91CF91FF90EF90DF90F2
:1014B000CF900895789484B5826084BD84B58160AE
:1014C00084BD85B5826085BD85B5816085BDEEE64C
:1014D000F0E0808181608083E1E8F0E0108280812B
:1014E00082608083808181608083E0E8F0E0808199
:1014F00081608083E1EBF0E0808184608083E0EBB9
:10150000F0E0808181608083EAE7F0E080818460A0
:1015100080838081826080838081816080838081FC
:10152000806880831092C10008958E3008F08E503C
:1015300087702091140190E4299F90011124822B3F
:1015400080937C0080917A00806480937A008091FF
:101550007A0086FDFCCF809178002091790090E0A0
:10156000922B08951F93CF93DF93182FEB0161E027
:101570000E943A0B209711F460E004C0CF3FD105E0
:1015800039F461E0812FDF91CF911F910C94730B9F
:10159000E12FF0E0E657FF4FE491E330F9F048F433
:1015A000E130B9F0E230A1F584B5806284BDC8BDF8
:1015B00034C0E730E9F0E83019F1E43049F58091C2
:1015C0008000806280938000D0938B00C0938A005B
:1015D00024C084B5806884BDC7BD1FC080918000D1
:1015E000806880938000D0938900C093880015C0E4
:1015F0008091B00080688093B000C093B3000DC0AC
:101600008091B00080628093B000C093B40005C0A8
:10161000C038D1050CF0B5CFAFCFDF91CF911F917E
:101620000895833081F028F4813099F08230A1F060
:1016300008958730A9F08830B9F08430D1F48091D2
:1016400080008F7D03C0809180008F778093800021
:10165000089584B58F7702C084B58F7D84BD0895C9
:101660008091B0008F7703C08091B0008F7D809310
:10167000B0000895CF93DF9390E0FC01E256FF4F56
:101680002491FC01EE54FF4F8491882349F190E0AE
:10169000880F991FFC01E053FF4FA591B4918A5325
:1016A0009F4FFC01C591D4919FB7611108C0F89478
:1016B0008C91209582238C93888182230AC062308A
:1016C00051F4F8948C91322F309583238C93888138
:1016D000822B888304C0F8948C91822B8C939FBFBB
:1016E000DF91CF9108950F931F93CF93DF931F92B4
:1016F000CDB7DEB7282F30E0F901E657FF4F8491D0
:10170000F901E256FF4F1491F901EE54FF4F049195
:101710000023C9F0882321F069830E94110B69819D
:10172000E02FF0E0EE0FFF1FEA53FF4FA591B491B9
:101730009FB7F8948C91611103C01095812301C06B
:10174000812B8C939FBF0F90DF91CF911F910F91B1
:101750000895FC01818D228D90E0805C9F4F821B5B
:1017600091098F7399270895FC01918D828D9817A7
:1017700031F0828DE80FF11D858D90E008958FEF97
:101780009FEF0895FC01918D828D981761F0828DF5
:10179000DF01A80FB11D5D968C91928D9F5F9F73A5
:1017A000928F90E008958FEF9FEF089586E49DE07B
:1017B000892B49F080E090E0892B29F00E94460DAA
:1017C00081110C9400000895FC01848DDF01A80FA5
:1017D000B11DA35ABF4F2C91848D90E001968F7359
:1017E0009927848FA689B7892C93A089B1898C9178
:1017F00080648C93938D848D981306C00288F3893E
:10180000E02D80818F7D80830895CF93DF93EC015D
:10181000888D8823C9F0EA89FB89808185FD05C010
:10182000A889B9898C9186FD0FC00FB607FCF5CF4A
:10183000808185FFF2CFA889B9898C9185FFEDCF92
:10184000CE010E94E40BE7CFDF91CF910895CF92B4
:10185000DF92FF920F931F93CF93DF931F92CDB729
:10186000DEB76C0181E0D60158968C9358975B9651
:101870009C915B975C968C915C97981307C05096EF
:10188000ED91FC915197808185FD2EC0F601038D6D
:1018900010E00F5F1F4F0F731127F02EF601848D9C
:1018A000F81211C00FB607FCF9CFD6015096ED9192
:1018B000FC915197808185FFF1CFC60169830E9419
:1018C000E40B6981EBCF838DE80FF11DE35AFF4FE5
:1018D0006083D6015B960C935B975296ED91FC91D9
:1018E0005397808180620CC0D6015696ED91FC9191
:1018F000579760835096ED91FC9151978081806459
:10190000808381E090E00F90DF91CF911F910F9144
:10191000FF90DF90CF900895BF92CF92DF92EF9229
:10192000FF92CF93DF93EC016A017B01B22EE8892D
:10193000F98982E08083411581EE580761057105C0
:10194000A1F060E079E08DE390E0A70196010E94AC
:10195000780F21503109410951095695479537951E
:101960002795211580E1380798F0E889F9891082D8
:1019700060E874E88EE190E0A70196010E94780F7C
:1019800021503109410951095695479537952795B9
:10199000EC85FD853083EE85FF852083188EEC89EC
:1019A000FD89B082EA89FB89808180618083EA8930
:1019B000FB89808188608083EA89FB8980818068D7
:1019C0008083EA89FB8980818F7D8083DF91CF913D
:1019D000FF90EF90DF90CF90BF9008951F920F92ED
:1019E0000FB60F9211242F938F939F93EF93FF9332
:1019F000E0915B02F0915C028081E0916102F091E4
:101A0000620282FD12C09081809164028F5F8F73A9
:101A100020916502821751F0E0916402F0E0E55BED
:101A2000FD4F958F8093640201C08081FF91EF91FB
:101A30009F918F912F910F900FBE0F901F9018952F
:101A40001F920F920FB60F9211242F933F934F9333
:101A50005F936F937F938F939F93AF93BF93EF9316
:101A6000FF938BE492E00E94E40BFF91EF91BF9112
:101A7000AF919F918F917F916F915F914F913F9126
:101A80002F910F900FBE0F901F9018958BE492E04E
:101A90000E94A90B21E0892B09F420E0822F0895F0
:101AA00010924E0210924D0288EE93E0A0E0B0E05A
:101AB00080934F0290935002A0935102B093520230
:101AC00082E791E090934C0280934B0285EC90E08A
:101AD000909358028093570284EC90E090935A02BE
:101AE0008093590280EC90E090935C0280935B02BB
:101AF00081EC90E090935E0280935D0282EC90E036
:101B00009093600280935F0286EC90E09093620273
:101B10008093610210926402109265021092660234
:101B200010926702089508950E945A0A0E94930D28
:101B30000E94F105C6EDDBE00E9401092097E1F368
:101B40000E94D60BF9CFCF92DF92EF92FF920F93C4
:101B50001F93CF93DF936C017A01EB01E60EF71E22
:101B600000E010E0CE15DF0561F06991D601ED913E
:101B7000FC910190F081E02DC6010995080F191F15
:101B8000F1CFC801DF91CF911F910F91FF90EF909E
:101B9000DF90CF9008956115710581F0DB010D9004
:101BA0000020E9F7AD0141505109461B570BDC01FC
:101BB000ED91FC910280F381E02D099480E090E0AA
:101BC00008950C94CB0DDC01ED91FC910190F08116
:101BD000E02D09946EE771E00C94CB0D0F931F93E9
:101BE000CF93DF93EC010E94CB0D8C01CE010E94BC
:101BF000EA0D800F911FDF91CF911F910F910895F2
:101C00008F929F92AF92BF92CF92DF92EF92FF920C
:101C10000F931F93CF93DF93CDB7DEB7A1970FB686
:101C2000F894DEBF0FBECDBF7C01C42EE52FCB01E3
:101C3000D22E19A221E02D1510F02AE0D22E8E010D
:101C40000F5D1F4F8D2C912CA12CB12C6C2D7E2F54
:101C5000A50194010E94780F8C2DD29E8019112429
:101C6000015011098A3014F4805D01C0895CF801CB
:101C70008083211531054105510521F0C22EE32F46
:101C8000CA01E4CFB801C7010E94CB0DA1960FB6DF
:101C9000F894DEBF0FBECDBFDF91CF911F910F91A2
:101CA000FF90EF90DF90CF90BF90AF909F908F907C
:101CB0000895CF92DF92EF92FF920F931F93CF93ED
:101CC000DF93EC016A017B012115310579F4E8818C
:101CD000F9810190F081E02D642FDF91CF911F9168
:101CE0000F91FF90EF90DF90CF9009942A3031054B
:101CF000E9F477FF1AC06DE20E94E30D8C014427DE
:101D00005527BA014C195D096E097F092AE0CE01F9
:101D10000E94000E800F911FDF91CF911F910F91B4
:101D2000FF90EF90DF90CF9008952AE0B701A601D1
:101D3000CE01DF91CF911F910F91FF90EF90DF9037
:101D4000CF900C94000E9A01AB01662757FD609569
:101D5000762F0C94590E0F931F93CF93DF93EC01C2
:101D60009A01AB01662757FD6095762F0E94590EA8
:101D70008C01CE010E94EA0D800F911FDF91CF915F
:101D80001F910F910895089597F99F6780E870E07B
:101D900060E008959FEF80EC089500240A941616E1
:101DA000170618060906089500240A941216130649
:101DB000140605060895092E0394000C11F48823D7
:101DC00052F0BB0F40F4BF2B11F460FF04C06F5FF3
:101DD0007F4F8F4F9F4F089557FD9058440F551FC9
:101DE00059F05F3F71F04795880F97FB991F61F09D
:101DF0009F3F79F087950895121613061406551F14
:101E0000F2CF4695F1DF08C0161617061806991F7F
:101E1000F1CF86957105610508940895E894BB2774
:101E200066277727CB0197F908950BD0C4CFB5DF8C
:101E300028F0BADF18F0952309F0A6CFABCF112414
:101E4000EECFCADFA0F3959FD1F3950F50E0551F59
:101E5000629FF001729FBB27F00DB11D639FAA27FF
:101E6000F00DB11DAA1F649F6627B00DA11D661F4E
:101E7000829F2227B00DA11D621F739FB00DA11D6F
:101E8000621F839FA00D611D221F749F3327A00D29
:101E9000611D231F849F600D211D822F762F6A2FC5
:101EA00011249F5750408AF0E1F088234AF0EE0F4A
:101EB000FF1FBB1F661F771F881F91505040A9F757
:101EC0009E3F510570F060CFAACF5F3FECF3983E84
:101ED000DCF3869577956795B795F795E7959F5FBE
:101EE000C1F7FE2B880F911D9695879597F9089558
:101EF000A1E21A2EAA1BBB1BFD010DC0AA1FBB1F0E
:101F0000EE1FFF1FA217B307E407F50720F0A21B7F
:101F1000B30BE40BF50B661F771F881F991F1A94EC
:101F200069F760957095809590959B01AC01BD0116
:101F3000CF010895EE0FFF1F0590F491E02D099455
:041F4000F894FFCF43
:101F4400083F0E0D00524C524C5252524C4C5252BD
:101F54000AD7234001476F2053747261696768741C
:101F6400005475726E20736C696768746C79206CA8
:101F7400656674005475726E20736C6967687420AA
:101F8400726967687400720050617468206C656ED1
:101F94006774683A200073686F7274656E696E675F
:101FA400207061746800444F4E453F0009000000F2
:101FB4000000270CA30DA90BC20BB40B050C0D0AD2
:101FC400006E616E00696E66006F7666002E00001A
:00000001FF
